{
  "contracts/libs/staking.sol": {
    "Staking": {
      "abi": [
        {
          "inputs": [
            {
              "internalType": "address",
              "name": "_stakeTokenAddress",
              "type": "address"
            },
            {
              "internalType": "address",
              "name": "_rewardTokenAddress_1",
              "type": "address"
            },
            {
              "internalType": "address",
              "name": "_rewardTokenAddress_2",
              "type": "address"
            }
          ],
          "stateMutability": "nonpayable",
          "type": "constructor"
        },
        {
          "anonymous": false,
          "inputs": [
            {
              "indexed": true,
              "internalType": "address",
              "name": "previousOwner",
              "type": "address"
            },
            {
              "indexed": true,
              "internalType": "address",
              "name": "newOwner",
              "type": "address"
            }
          ],
          "name": "OwnershipTransferred",
          "type": "event"
        },
        {
          "anonymous": false,
          "inputs": [
            {
              "indexed": false,
              "internalType": "address",
              "name": "staker",
              "type": "address"
            },
            {
              "indexed": false,
              "internalType": "uint256",
              "name": "amount_1",
              "type": "uint256"
            },
            {
              "indexed": false,
              "internalType": "uint256",
              "name": "amount_2",
              "type": "uint256"
            }
          ],
          "name": "Reward",
          "type": "event"
        },
        {
          "anonymous": false,
          "inputs": [
            {
              "indexed": false,
              "internalType": "address",
              "name": "staker",
              "type": "address"
            },
            {
              "indexed": false,
              "internalType": "uint256",
              "name": "amount",
              "type": "uint256"
            }
          ],
          "name": "Stake",
          "type": "event"
        },
        {
          "anonymous": false,
          "inputs": [
            {
              "indexed": false,
              "internalType": "address",
              "name": "staker",
              "type": "address"
            },
            {
              "indexed": false,
              "internalType": "uint256",
              "name": "amount",
              "type": "uint256"
            }
          ],
          "name": "Withdraw",
          "type": "event"
        },
        {
          "inputs": [],
          "name": "APY",
          "outputs": [
            {
              "internalType": "uint256",
              "name": "",
              "type": "uint256"
            }
          ],
          "stateMutability": "view",
          "type": "function"
        },
        {
          "inputs": [],
          "name": "PancakeSwapRouter",
          "outputs": [
            {
              "internalType": "contract IPancakeSwapRouter",
              "name": "",
              "type": "address"
            }
          ],
          "stateMutability": "view",
          "type": "function"
        },
        {
          "inputs": [
            {
              "internalType": "address",
              "name": "stakerAddress",
              "type": "address"
            }
          ],
          "name": "checkReward",
          "outputs": [
            {
              "internalType": "uint256",
              "name": "_reward_1",
              "type": "uint256"
            },
            {
              "internalType": "uint256",
              "name": "_reward_2",
              "type": "uint256"
            }
          ],
          "stateMutability": "view",
          "type": "function"
        },
        {
          "inputs": [],
          "name": "claimRewards",
          "outputs": [],
          "stateMutability": "nonpayable",
          "type": "function"
        },
        {
          "inputs": [
            {
              "internalType": "address",
              "name": "stakerAddress",
              "type": "address"
            }
          ],
          "name": "countFee",
          "outputs": [
            {
              "internalType": "uint256",
              "name": "_fee",
              "type": "uint256"
            }
          ],
          "stateMutability": "view",
          "type": "function"
        },
        {
          "inputs": [
            {
              "internalType": "address",
              "name": "stakerAddress",
              "type": "address"
            }
          ],
          "name": "countReward",
          "outputs": [
            {
              "internalType": "uint256",
              "name": "_reward_1",
              "type": "uint256"
            },
            {
              "internalType": "uint256",
              "name": "_reward_2",
              "type": "uint256"
            }
          ],
          "stateMutability": "view",
          "type": "function"
        },
        {
          "inputs": [
            {
              "internalType": "address",
              "name": "stakerAddress",
              "type": "address"
            }
          ],
          "name": "countStake",
          "outputs": [
            {
              "internalType": "uint256",
              "name": "_stake",
              "type": "uint256"
            }
          ],
          "stateMutability": "view",
          "type": "function"
        },
        {
          "inputs": [],
          "name": "countTotalReward",
          "outputs": [
            {
              "internalType": "uint256",
              "name": "_totalReward_1",
              "type": "uint256"
            },
            {
              "internalType": "uint256",
              "name": "_totalReward_2",
              "type": "uint256"
            }
          ],
          "stateMutability": "view",
          "type": "function"
        },
        {
          "inputs": [],
          "name": "countTotalStake",
          "outputs": [
            {
              "internalType": "uint256",
              "name": "_totalStake",
              "type": "uint256"
            }
          ],
          "stateMutability": "view",
          "type": "function"
        },
        {
          "inputs": [],
          "name": "getRewardableAmount",
          "outputs": [
            {
              "internalType": "uint256",
              "name": "_rewardableAmount_1",
              "type": "uint256"
            },
            {
              "internalType": "uint256",
              "name": "_rewardableAmount_2",
              "type": "uint256"
            }
          ],
          "stateMutability": "view",
          "type": "function"
        },
        {
          "inputs": [
            {
              "internalType": "address",
              "name": "stakerAddress",
              "type": "address"
            }
          ],
          "name": "getStakeInfo",
          "outputs": [
            {
              "internalType": "uint256",
              "name": "_total",
              "type": "uint256"
            },
            {
              "internalType": "uint256",
              "name": "_staking",
              "type": "uint256"
            },
            {
              "internalType": "uint256",
              "name": "_rewardable_1",
              "type": "uint256"
            },
            {
              "internalType": "uint256",
              "name": "_rewardable_2",
              "type": "uint256"
            },
            {
              "internalType": "uint256",
              "name": "_rewards_1",
              "type": "uint256"
            },
            {
              "internalType": "uint256",
              "name": "_rewards_2",
              "type": "uint256"
            }
          ],
          "stateMutability": "view",
          "type": "function"
        },
        {
          "inputs": [],
          "name": "lastUpdateTime",
          "outputs": [
            {
              "internalType": "uint256",
              "name": "",
              "type": "uint256"
            }
          ],
          "stateMutability": "view",
          "type": "function"
        },
        {
          "inputs": [],
          "name": "marketingAddress",
          "outputs": [
            {
              "internalType": "address",
              "name": "",
              "type": "address"
            }
          ],
          "stateMutability": "view",
          "type": "function"
        },
        {
          "inputs": [],
          "name": "owner",
          "outputs": [
            {
              "internalType": "address",
              "name": "",
              "type": "address"
            }
          ],
          "stateMutability": "view",
          "type": "function"
        },
        {
          "inputs": [],
          "name": "renounceOwnership",
          "outputs": [],
          "stateMutability": "nonpayable",
          "type": "function"
        },
        {
          "inputs": [],
          "name": "rewardTokenAddress_1",
          "outputs": [
            {
              "internalType": "address",
              "name": "",
              "type": "address"
            }
          ],
          "stateMutability": "view",
          "type": "function"
        },
        {
          "inputs": [],
          "name": "rewardTokenAddress_2",
          "outputs": [
            {
              "internalType": "address",
              "name": "",
              "type": "address"
            }
          ],
          "stateMutability": "view",
          "type": "function"
        },
        {
          "inputs": [
            {
              "internalType": "address",
              "name": "_RouterAddress",
              "type": "address"
            },
            {
              "internalType": "address",
              "name": "_marketingAddress",
              "type": "address"
            }
          ],
          "name": "setInitialAddresses",
          "outputs": [],
          "stateMutability": "nonpayable",
          "type": "function"
        },
        {
          "inputs": [
            {
              "internalType": "uint256",
              "name": "amount",
              "type": "uint256"
            },
            {
              "internalType": "address",
              "name": "referrar",
              "type": "address"
            }
          ],
          "name": "stake",
          "outputs": [],
          "stateMutability": "nonpayable",
          "type": "function"
        },
        {
          "inputs": [],
          "name": "stakeTokenAddress",
          "outputs": [
            {
              "internalType": "address",
              "name": "",
              "type": "address"
            }
          ],
          "stateMutability": "view",
          "type": "function"
        },
        {
          "inputs": [],
          "name": "stakerNum",
          "outputs": [
            {
              "internalType": "uint256",
              "name": "",
              "type": "uint256"
            }
          ],
          "stateMutability": "view",
          "type": "function"
        },
        {
          "inputs": [
            {
              "internalType": "address",
              "name": "",
              "type": "address"
            }
          ],
          "name": "stakers",
          "outputs": [
            {
              "internalType": "uint256",
              "name": "referal",
              "type": "uint256"
            },
            {
              "internalType": "uint256",
              "name": "stakingAmount",
              "type": "uint256"
            },
            {
              "internalType": "uint256",
              "name": "lastUpdateTime",
              "type": "uint256"
            },
            {
              "internalType": "uint256",
              "name": "lastStakeUpdateTime",
              "type": "uint256"
            },
            {
              "internalType": "uint256",
              "name": "stake",
              "type": "uint256"
            },
            {
              "internalType": "uint256",
              "name": "rewards_1",
              "type": "uint256"
            },
            {
              "internalType": "uint256",
              "name": "rewards_2",
              "type": "uint256"
            }
          ],
          "stateMutability": "view",
          "type": "function"
        },
        {
          "inputs": [],
          "name": "swapTokenForReward",
          "outputs": [],
          "stateMutability": "nonpayable",
          "type": "function"
        },
        {
          "inputs": [],
          "name": "totalStake",
          "outputs": [
            {
              "internalType": "uint256",
              "name": "",
              "type": "uint256"
            }
          ],
          "stateMutability": "view",
          "type": "function"
        },
        {
          "inputs": [],
          "name": "totalStakingAmount",
          "outputs": [
            {
              "internalType": "uint256",
              "name": "",
              "type": "uint256"
            }
          ],
          "stateMutability": "view",
          "type": "function"
        },
        {
          "inputs": [
            {
              "internalType": "address",
              "name": "newOwner",
              "type": "address"
            }
          ],
          "name": "transferOwnership",
          "outputs": [],
          "stateMutability": "nonpayable",
          "type": "function"
        },
        {
          "inputs": [],
          "name": "unstaking",
          "outputs": [],
          "stateMutability": "nonpayable",
          "type": "function"
        }
      ],
      "devdoc": {
        "kind": "dev",
        "methods": {
          "owner()": {
            "details": "Returns the address of the current owner."
          },
          "renounceOwnership()": {
            "details": "Leaves the contract without owner. It will not be possible to call `onlyOwner` functions anymore. Can only be called by the current owner. NOTE: Renouncing ownership will leave the contract without an owner, thereby removing any functionality that is only available to the owner."
          },
          "transferOwnership(address)": {
            "details": "Transfers ownership of the contract to a new account (`newOwner`). Can only be called by the current owner."
          }
        },
        "version": 1
      },
      "evm": {
        "bytecode": {
          "linkReferences": {},
          "object": "608060405234801561001057600080fd5b506040516121053803806121058339818101604052606081101561003357600080fd5b5080516020820151604090920151909190600061004e6100e1565b600080546001600160a01b0319166001600160a01b0383169081178255604051929350917f8be0079c531659141344cd1fd0a4f28419497f9722a3daafe3b4186f6b6457e0908290a350600180546001600160a01b039384166001600160a01b031991821617909155600280549284169282169290921790915560038054939092169216919091179055426006556100e5565b3390565b612011806100f46000396000f3fe608060405234801561001057600080fd5b50600436106101495760003560e01c80630106395f1461014e57806301c15475146101725780630a84bf3e1461017a5780632461da5514610182578063372500ab1461019c578063421ea58b146101a657806356714be3146101ae5780635f920bba146101ed578063630b1146146101f557806363c138b3146101fd578063715018a6146102055780637acb77571461020d5780638b0e9f3f146102395780638da5cb5b146102415780639168ae7214610249578063a5ece941146102a7578063a9686e3c146102af578063b083692d146102dd578063b87089d914610303578063c345315314610329578063c3c90e6414610382578063c8f33c91146103a8578063d201114a146103b0578063e7caa8c4146103b8578063ef8bd305146103c0578063f2fde38b146103c8578063f4eb4a59146103ee575b600080fd5b6101566103f6565b604080516001600160a01b039092168252519081900360200190f35b610156610405565b610156610414565b61018a610423565b60408051918252519081900360200190f35b6101a461044f565b005b61015661067a565b6101d4600480360360208110156101c457600080fd5b50356001600160a01b0316610689565b6040805192835260208301919091528051918290030190f35b6101a46106ff565b6101a461071c565b61018a610981565b6101a4610987565b6101a46004803603604081101561022357600080fd5b50803590602001356001600160a01b0316610a17565b61018a610cbf565b610156610cc5565b61026f6004803603602081101561025f57600080fd5b50356001600160a01b0316610cd5565b604080519788526020880196909652868601949094526060860192909252608085015260a084015260c0830152519081900360e00190f35b610156610d12565b6101a4600480360360408110156102c557600080fd5b506001600160a01b0381358116916020013516610d21565b61018a600480360360208110156102f357600080fd5b50356001600160a01b0316610daa565b61018a6004803603602081101561031957600080fd5b50356001600160a01b0316610ded565b61034f6004803603602081101561033f57600080fd5b50356001600160a01b0316610e9f565b604080519687526020870195909552858501939093526060850191909152608084015260a0830152519081900360c00190f35b6101d46004803603602081101561039857600080fd5b50356001600160a01b0316610f02565b61018a611394565b61018a61139a565b6101d46113a0565b61018a61149c565b6101a4600480360360208110156103de57600080fd5b50356001600160a01b031661195e565b6101d46119c2565b6003546001600160a01b031681565b6001546001600160a01b031681565b6002546001600160a01b031681565b600061044661043d60065442611a5390919063ffffffff16565b60055490611aa9565b60075401905090565b33610458611b0c565b6001600160a01b0381166000908152600a602052604081205461047a83610ded565b01905060008061048984610689565b91509150600082116104e1576040805162461bcd60e51b815260206004820152601c60248201527b07374616b696e67203a2072657761726420616d6f756e7420697320360241b604482015290519081900360640190fd5b6001546002546040805163a9059cbb60e01b81526001600160a01b038881166004830152602482018790529151938216939290911691839163a9059cbb9160448083019260209291908290030181600087803b15801561054057600080fd5b505af1158015610554573d6000803e3d6000fd5b505050506040513d602081101561056a57600080fd5b50506040805163a9059cbb60e01b81526001600160a01b0388811660048301526024820186905291519183169163a9059cbb916044808201926020929091908290030181600087803b1580156105bf57600080fd5b505af11580156105d3573d6000803e3d6000fd5b505050506040513d60208110156105e957600080fd5b50506001600160a01b0386166000818152600a602090815260408083206005810180548a01905560068101805489019055600780548b90039055600481018490559283554260029093019290925581519283528201869052818101859052517f02a6a2be713fedf52f113c0a759f1c1a23a113476d9b1b1a2a453c910660de4e9181900360600190a1505050505050565b6009546001600160a01b031681565b6000806000610696610423565b90506000806106a36113a0565b9150915060006106b287610ded565b905083156106d3576106ce846106c88584611aa9565b90611b43565b6106d6565b60005b955083156106f1576106ec846106c88484611aa9565b6106f4565b60005b945050505050915091565b60008061070a6119c2565b915091506107188282611ba1565b5050565b336000818152600a6020526040902060010154600061073a83610daa565b905061074583610ded565b6001600160a01b0384166000908152600a60205260409020600481019190915560018101805484900390554260028201819055600390910155610786611b0c565b60058054839003905580156108a2576003546001600160a01b03166342966c686107b76103e86106c8866004611aa9565b6040518263ffffffff1660e01b815260040180828152602001915050600060405180830381600087803b1580156107ed57600080fd5b505af1158015610801573d6000803e3d6000fd5b50506003546004546001600160a01b03918216935063a9059cbb92501661082f6103e86106c8876005611aa9565b6040518363ffffffff1660e01b815260040180836001600160a01b0316815260200182815260200192505050602060405180830381600087803b15801561087557600080fd5b505af1158015610889573d6000803e3d6000fd5b505050506040513d602081101561089f57600080fd5b50505b6003546001600160a01b031663a9059cbb846108c66103e86106c887878303611aa9565b6040518363ffffffff1660e01b815260040180836001600160a01b0316815260200182815260200192505050602060405180830381600087803b15801561090c57600080fd5b505af1158015610920573d6000803e3d6000fd5b505050506040513d602081101561093657600080fd5b5050604080516001600160a01b03851681526020810184905281517f884edad9ce6fa2440d8a54cc123490eb96d2768479d49ff9c7366125a9424364929181900390910190a1505050565b60085481565b61098f611ea6565b6000546001600160a01b039081169116146109df576040805162461bcd60e51b81526020600482018190526024820152600080516020611f9c833981519152604482015290519081900360640190fd5b600080546040516001600160a01b0390911690600080516020611fbc833981519152908390a3600080546001600160a01b0319169055565b336000818152600a6020526040902060020154610a38576008805460010190555b610a4181610ded565b6001600160a01b0382166000908152600a6020526040902060040155610a6f6103e86106c8856103de611aa9565b6001600160a01b038083166000908152600a602052604090206001810180549093019092554260028301819055600390920191909155821615801590610ac75750806001600160a01b0316826001600160a01b031614155b15610afc576001600160a01b0382166000908152600a6020526040902080546201518085029081019091556007805490910190555b610b04611b0c565b6003546001600160a01b03166323b872dd8230610b296103e86106c8896103e3611aa9565b6040518463ffffffff1660e01b815260040180846001600160a01b03168152602001836001600160a01b031681526020018281526020019350505050602060405180830381600087803b158015610b7f57600080fd5b505af1158015610b93573d6000803e3d6000fd5b505050506040513d6020811015610ba957600080fd5b50506003546004546001600160a01b03918216916323b872dd91849116610bd76103e86106c8896005611aa9565b6040518463ffffffff1660e01b815260040180846001600160a01b03168152602001836001600160a01b031681526020018281526020019350505050602060405180830381600087803b158015610c2d57600080fd5b505af1158015610c41573d6000803e3d6000fd5b505050506040513d6020811015610c5757600080fd5b50610c6c90506103e86106c8856103e3611aa9565b60058054919091019055604080516001600160a01b03831681526020810185905281517febedb8b3c678666e7f36970bc8f57abf6d8fa2e828c0da91ea5b75bf68ed101a929181900390910190a1505050565b60075481565b6000546001600160a01b03165b90565b600a602052600090815260409020805460018201546002830154600384015460048501546005860154600690960154949593949293919290919087565b6004546001600160a01b031681565b610d29611ea6565b6000546001600160a01b03908116911614610d79576040805162461bcd60e51b81526020600482018190526024820152600080516020611f9c833981519152604482015290519081900360640190fd5b600480546001600160a01b039283166001600160a01b03199182161790915560098054939092169216919091179055565b6001600160a01b0381166000908152600a602052604081206003015462375f0090610dd6904290611a53565b1015610de4575060fa610de8565b5060005b919050565b6000610df7611f38565b506001600160a01b0382166000908152600a6020908152604091829020825160e0810184528154815260018201549281019290925260028101549282018390526003810154606083015260048101546080830152600581015460a08301526006015460c082015290610e6d576000915050610de8565b610e928160200151610e8c836040015142611a5390919063ffffffff16565b90611aa9565b6080909101510192915050565b6005546001600160a01b0382166000908152600a602052604081206001015490808080610ecb87610689565b6001600160a01b039098166000908152600a6020526040902060058101546006909101549799969891979196909550909350915050565b6000806000610f0f610423565b9050600080610f1c6113a0565b91509150600080610f2b6119c2565b9150915067016345785d8a000082118015610f4d575067016345785d8a000081115b1561132857604080516002808252606080830184529260208301908036833750506040805160028082526060808301845294955090925090602083019080368337505060035484519293506001600160a01b031691849150600090610fae57fe5b6001600160a01b0392831660209182029290920101526001805484519216918491908110610fd857fe5b6001600160a01b0392831660209182029290920101526003548251911690829060009061100157fe5b6001600160a01b03928316602091820292909201015260025482519116908290600190811061102c57fe5b6001600160a01b039283166020918202929092018101919091526009546040805163d06ca61f60e01b81526004810189815260248201928352875160448301528751606096949094169463d06ca61f948b948a949092606490910191858201910280838360005b838110156110ab578181015183820152602001611093565b50505050905001935050505060006040518083038186803b1580156110cf57600080fd5b505afa1580156110e3573d6000803e3d6000fd5b505050506040513d6000823e601f3d908101601f19168201604052602081101561110c57600080fd5b8101908080516040519392919084600160201b82111561112b57600080fd5b90830190602082018581111561114057600080fd5b82518660208202830111600160201b8211171561115c57600080fd5b82525081516020918201928201910280838360005b83811015611189578181015183820152602001611171565b5050505091909101604081815260095463d06ca61f60e01b8352600483018c8152602484019283528a5160448501528a519899506060986001600160a01b03909216975063d06ca61f96508c95508a945092606401906020808601910280838360005b838110156112045781810151838201526020016111ec565b50505050905001935050505060006040518083038186803b15801561122857600080fd5b505afa15801561123c573d6000803e3d6000fd5b505050506040513d6000823e601f3d908101601f19168201604052602081101561126557600080fd5b8101908080516040519392919084600160201b82111561128457600080fd5b90830190602082018581111561129957600080fd5b82518660208202830111600160201b821117156112b557600080fd5b82525081516020918201928201910280838360005b838110156112e25781810151838201526020016112ca565b505050509050016040525050509050816000815181106112fe57fe5b6020026020010151880197508060008151811061131757fe5b602002602001015187019650505050505b6001600160a01b0388166000908152600a602052604081205461134a8a610ded565b019050851561136657611361866106c88784611aa9565b611369565b60005b975085156113845761137f866106c88684611aa9565b611387565b60005b9650505050505050915091565b60065481565b60055481565b600154604080516370a0823160e01b8152306004820152905160009283926001600160a01b03909116916370a0823191602480820192602092909190829003018186803b1580156113f057600080fd5b505afa158015611404573d6000803e3d6000fd5b505050506040513d602081101561141a57600080fd5b5051600254604080516370a0823160e01b815230600482015290519294506001600160a01b03909116916370a0823191602480820192602092909190829003018186803b15801561146a57600080fd5b505afa15801561147e573d6000803e3d6000fd5b505050506040513d602081101561149457600080fd5b505191929050565b6000806114a7610423565b9050806114b8576000915050610cd2565b6000806114c36113a0565b9150915060008067016345785d8a0000841180156114e8575067016345785d8a000083115b156118bf57604080516002808252606080830184529260208301908036833750506040805160028082526060808301845294955090925090602083019080368337505060035484519293506001600160a01b03169184915060009061154957fe5b6001600160a01b039283166020918202929092010152600180548451921691849190811061157357fe5b6001600160a01b0392831660209182029290920101526003548251911690829060009061159c57fe5b6001600160a01b0392831660209182029290920101526002548251911690829060019081106115c757fe5b6001600160a01b03928316602091820292909201810191909152600954604080516307c0329d60e21b8152600481018b8152602482019283528751604483015287516060969490941694631f00ca74948d948a949092606490910191858201910280838360005b8381101561164657818101518382015260200161162e565b50505050905001935050505060006040518083038186803b15801561166a57600080fd5b505afa15801561167e573d6000803e3d6000fd5b505050506040513d6000823e601f3d908101601f1916820160405260208110156116a757600080fd5b8101908080516040519392919084600160201b8211156116c657600080fd5b9083019060208201858111156116db57600080fd5b82518660208202830111600160201b821117156116f757600080fd5b82525081516020918201928201910280838360005b8381101561172457818101518382015260200161170c565b505050509190910160408181526009546307c0329d60e21b8352600483018e8152602484019283528a5160448501528a519899506060986001600160a01b039092169750631f00ca7496508e95508a945092606401906020808601910280838360005b8381101561179f578181015183820152602001611787565b50505050905001935050505060006040518083038186803b1580156117c357600080fd5b505afa1580156117d7573d6000803e3d6000fd5b505050506040513d6000823e601f3d908101601f19168201604052602081101561180057600080fd5b8101908080516040519392919084600160201b82111561181f57600080fd5b90830190602082018581111561183457600080fd5b82518660208202830111600160201b8211171561185057600080fd5b82525081516020918201928201910280838360005b8381101561187d578181015183820152602001611865565b5050505090500160405250505090508160008151811061189957fe5b60200260200101519550806001815181106118b057fe5b60200260200101519450505050505b600554600354604080516370a0823160e01b81523060048201529051600093926001600160a01b0316916370a08231916024808301926020929190829003018186803b15801561190e57600080fd5b505afa158015611922573d6000803e3d6000fd5b505050506040513d602081101561193857600080fd5b50518484010103905085651cae8c13e00082028161195257fe5b04965050505050505090565b611966611ea6565b6000546001600160a01b039081169116146119b6576040805162461bcd60e51b81526020600482018190526024820152600080516020611f9c833981519152604482015290519081900360640190fd5b6119bf81611eaa565b50565b600554600354604080516370a0823160e01b815230600482015290516000938493849391926001600160a01b03909116916370a08231916024808301926020929190829003018186803b158015611a1857600080fd5b505afa158015611a2c573d6000803e3d6000fd5b505050506040513d6020811015611a4257600080fd5b505160029190030493849350915050565b80820382811115611aa3576040805162461bcd60e51b815260206004820152601560248201527464732d6d6174682d7375622d756e646572666c6f7760581b604482015290519081900360640190fd5b92915050565b6000811580611ac457505080820282828281611ac157fe5b04145b611aa3576040805162461bcd60e51b815260206004820152601460248201527364732d6d6174682d6d756c2d6f766572666c6f7760601b604482015290519081900360640190fd5b6000611b166119c2565b509050678ac7230489e80000811115611b3157611b316106ff565b611b39610423565b6007555042600655565b6000808211611b90576040805162461bcd60e51b815260206004820152601460248201527364732d6d6174682d6d756c2d6f766572666c6f7760601b604482015290519081900360640190fd5b818381611b9957fe5b049392505050565b604080516002808252606080830184529260208301908036833750506040805160028082526060808301845294955090925090602083019080368337505060035484519293506001600160a01b031691849150600090611bfd57fe5b6001600160a01b0392831660209182029290920101526001805484519216918491908110611c2757fe5b6001600160a01b03928316602091820292909201015260035482519116908290600090611c5057fe5b6001600160a01b039283166020918202929092010152600254825191169082906001908110611c7b57fe5b6001600160a01b039283166020918202929092018101919091526003546009546040805163095ea7b360e01b81529185166004830152888801602483015251919093169263095ea7b39260448083019391928290030181600087803b158015611ce357600080fd5b505af1158015611cf7573d6000803e3d6000fd5b505050506040513d6020811015611d0d57600080fd5b5050600954604051635c11d79560e01b8152600481018681526000602483018190523060648401819052426084850181905260a060448601908152885160a487015288516001600160a01b0390971696635c11d795968c968b9594939092909160c40190602087810191028083838b5b83811015611d95578181015183820152602001611d7d565b505050509050019650505050505050600060405180830381600087803b158015611dbe57600080fd5b505af1158015611dd2573d6000803e3d6000fd5b5050600954604051635c11d79560e01b8152600481018781526000602483018190523060648401819052426084850181905260a060448601908152895160a487015289516001600160a01b039097169850635c11d79597508b9693958a95939492939260c490910190602080880191028083838b5b83811015611e5f578181015183820152602001611e47565b505050509050019650505050505050600060405180830381600087803b158015611e8857600080fd5b505af1158015611e9c573d6000803e3d6000fd5b5050505050505050565b3390565b6001600160a01b038116611eef5760405162461bcd60e51b8152600401808060200182810382526026815260200180611f766026913960400191505060405180910390fd5b600080546040516001600160a01b0380851693921691600080516020611fbc83398151915291a3600080546001600160a01b0319166001600160a01b0392909216919091179055565b6040518060e0016040528060008152602001600081526020016000815260200160008152602001600081526020016000815260200160008152509056fe4f776e61626c653a206e6577206f776e657220697320746865207a65726f20616464726573734f776e61626c653a2063616c6c6572206973206e6f7420746865206f776e65728be0079c531659141344cd1fd0a4f28419497f9722a3daafe3b4186f6b6457e0a264697066735822122036c337b0441147134af06f9a4a2255528b7dc148c00f82d0edb90f644f7c7ba664736f6c634300060c0033",
          "opcodes": "PUSH1 0x80 PUSH1 0x40 MSTORE CALLVALUE DUP1 ISZERO PUSH2 0x10 JUMPI PUSH1 0x0 DUP1 REVERT JUMPDEST POP PUSH1 0x40 MLOAD PUSH2 0x2105 CODESIZE SUB DUP1 PUSH2 0x2105 DUP4 CODECOPY DUP2 DUP2 ADD PUSH1 0x40 MSTORE PUSH1 0x60 DUP2 LT ISZERO PUSH2 0x33 JUMPI PUSH1 0x0 DUP1 REVERT JUMPDEST POP DUP1 MLOAD PUSH1 0x20 DUP3 ADD MLOAD PUSH1 0x40 SWAP1 SWAP3 ADD MLOAD SWAP1 SWAP2 SWAP1 PUSH1 0x0 PUSH2 0x4E PUSH2 0xE1 JUMP JUMPDEST PUSH1 0x0 DUP1 SLOAD PUSH1 0x1 PUSH1 0x1 PUSH1 0xA0 SHL SUB NOT AND PUSH1 0x1 PUSH1 0x1 PUSH1 0xA0 SHL SUB DUP4 AND SWAP1 DUP2 OR DUP3 SSTORE PUSH1 0x40 MLOAD SWAP3 SWAP4 POP SWAP2 PUSH32 0x8BE0079C531659141344CD1FD0A4F28419497F9722A3DAAFE3B4186F6B6457E0 SWAP1 DUP3 SWAP1 LOG3 POP PUSH1 0x1 DUP1 SLOAD PUSH1 0x1 PUSH1 0x1 PUSH1 0xA0 SHL SUB SWAP4 DUP5 AND PUSH1 0x1 PUSH1 0x1 PUSH1 0xA0 SHL SUB NOT SWAP2 DUP3 AND OR SWAP1 SWAP2 SSTORE PUSH1 0x2 DUP1 SLOAD SWAP3 DUP5 AND SWAP3 DUP3 AND SWAP3 SWAP1 SWAP3 OR SWAP1 SWAP2 SSTORE PUSH1 0x3 DUP1 SLOAD SWAP4 SWAP1 SWAP3 AND SWAP3 AND SWAP2 SWAP1 SWAP2 OR SWAP1 SSTORE TIMESTAMP PUSH1 0x6 SSTORE PUSH2 0xE5 JUMP JUMPDEST CALLER SWAP1 JUMP JUMPDEST PUSH2 0x2011 DUP1 PUSH2 0xF4 PUSH1 0x0 CODECOPY PUSH1 0x0 RETURN INVALID PUSH1 0x80 PUSH1 0x40 MSTORE CALLVALUE DUP1 ISZERO PUSH2 0x10 JUMPI PUSH1 0x0 DUP1 REVERT JUMPDEST POP PUSH1 0x4 CALLDATASIZE LT PUSH2 0x149 JUMPI PUSH1 0x0 CALLDATALOAD PUSH1 0xE0 SHR DUP1 PUSH4 0x106395F EQ PUSH2 0x14E JUMPI DUP1 PUSH4 0x1C15475 EQ PUSH2 0x172 JUMPI DUP1 PUSH4 0xA84BF3E EQ PUSH2 0x17A JUMPI DUP1 PUSH4 0x2461DA55 EQ PUSH2 0x182 JUMPI DUP1 PUSH4 0x372500AB EQ PUSH2 0x19C JUMPI DUP1 PUSH4 0x421EA58B EQ PUSH2 0x1A6 JUMPI DUP1 PUSH4 0x56714BE3 EQ PUSH2 0x1AE JUMPI DUP1 PUSH4 0x5F920BBA EQ PUSH2 0x1ED JUMPI DUP1 PUSH4 0x630B1146 EQ PUSH2 0x1F5 JUMPI DUP1 PUSH4 0x63C138B3 EQ PUSH2 0x1FD JUMPI DUP1 PUSH4 0x715018A6 EQ PUSH2 0x205 JUMPI DUP1 PUSH4 0x7ACB7757 EQ PUSH2 0x20D JUMPI DUP1 PUSH4 0x8B0E9F3F EQ PUSH2 0x239 JUMPI DUP1 PUSH4 0x8DA5CB5B EQ PUSH2 0x241 JUMPI DUP1 PUSH4 0x9168AE72 EQ PUSH2 0x249 JUMPI DUP1 PUSH4 0xA5ECE941 EQ PUSH2 0x2A7 JUMPI DUP1 PUSH4 0xA9686E3C EQ PUSH2 0x2AF JUMPI DUP1 PUSH4 0xB083692D EQ PUSH2 0x2DD JUMPI DUP1 PUSH4 0xB87089D9 EQ PUSH2 0x303 JUMPI DUP1 PUSH4 0xC3453153 EQ PUSH2 0x329 JUMPI DUP1 PUSH4 0xC3C90E64 EQ PUSH2 0x382 JUMPI DUP1 PUSH4 0xC8F33C91 EQ PUSH2 0x3A8 JUMPI DUP1 PUSH4 0xD201114A EQ PUSH2 0x3B0 JUMPI DUP1 PUSH4 0xE7CAA8C4 EQ PUSH2 0x3B8 JUMPI DUP1 PUSH4 0xEF8BD305 EQ PUSH2 0x3C0 JUMPI DUP1 PUSH4 0xF2FDE38B EQ PUSH2 0x3C8 JUMPI DUP1 PUSH4 0xF4EB4A59 EQ PUSH2 0x3EE JUMPI JUMPDEST PUSH1 0x0 DUP1 REVERT JUMPDEST PUSH2 0x156 PUSH2 0x3F6 JUMP JUMPDEST PUSH1 0x40 DUP1 MLOAD PUSH1 0x1 PUSH1 0x1 PUSH1 0xA0 SHL SUB SWAP1 SWAP3 AND DUP3 MSTORE MLOAD SWAP1 DUP2 SWAP1 SUB PUSH1 0x20 ADD SWAP1 RETURN JUMPDEST PUSH2 0x156 PUSH2 0x405 JUMP JUMPDEST PUSH2 0x156 PUSH2 0x414 JUMP JUMPDEST PUSH2 0x18A PUSH2 0x423 JUMP JUMPDEST PUSH1 0x40 DUP1 MLOAD SWAP2 DUP3 MSTORE MLOAD SWAP1 DUP2 SWAP1 SUB PUSH1 0x20 ADD SWAP1 RETURN JUMPDEST PUSH2 0x1A4 PUSH2 0x44F JUMP JUMPDEST STOP JUMPDEST PUSH2 0x156 PUSH2 0x67A JUMP JUMPDEST PUSH2 0x1D4 PUSH1 0x4 DUP1 CALLDATASIZE SUB PUSH1 0x20 DUP2 LT ISZERO PUSH2 0x1C4 JUMPI PUSH1 0x0 DUP1 REVERT JUMPDEST POP CALLDATALOAD PUSH1 0x1 PUSH1 0x1 PUSH1 0xA0 SHL SUB AND PUSH2 0x689 JUMP JUMPDEST PUSH1 0x40 DUP1 MLOAD SWAP3 DUP4 MSTORE PUSH1 0x20 DUP4 ADD SWAP2 SWAP1 SWAP2 MSTORE DUP1 MLOAD SWAP2 DUP3 SWAP1 SUB ADD SWAP1 RETURN JUMPDEST PUSH2 0x1A4 PUSH2 0x6FF JUMP JUMPDEST PUSH2 0x1A4 PUSH2 0x71C JUMP JUMPDEST PUSH2 0x18A PUSH2 0x981 JUMP JUMPDEST PUSH2 0x1A4 PUSH2 0x987 JUMP JUMPDEST PUSH2 0x1A4 PUSH1 0x4 DUP1 CALLDATASIZE SUB PUSH1 0x40 DUP2 LT ISZERO PUSH2 0x223 JUMPI PUSH1 0x0 DUP1 REVERT JUMPDEST POP DUP1 CALLDATALOAD SWAP1 PUSH1 0x20 ADD CALLDATALOAD PUSH1 0x1 PUSH1 0x1 PUSH1 0xA0 SHL SUB AND PUSH2 0xA17 JUMP JUMPDEST PUSH2 0x18A PUSH2 0xCBF JUMP JUMPDEST PUSH2 0x156 PUSH2 0xCC5 JUMP JUMPDEST PUSH2 0x26F PUSH1 0x4 DUP1 CALLDATASIZE SUB PUSH1 0x20 DUP2 LT ISZERO PUSH2 0x25F JUMPI PUSH1 0x0 DUP1 REVERT JUMPDEST POP CALLDATALOAD PUSH1 0x1 PUSH1 0x1 PUSH1 0xA0 SHL SUB AND PUSH2 0xCD5 JUMP JUMPDEST PUSH1 0x40 DUP1 MLOAD SWAP8 DUP9 MSTORE PUSH1 0x20 DUP9 ADD SWAP7 SWAP1 SWAP7 MSTORE DUP7 DUP7 ADD SWAP5 SWAP1 SWAP5 MSTORE PUSH1 0x60 DUP7 ADD SWAP3 SWAP1 SWAP3 MSTORE PUSH1 0x80 DUP6 ADD MSTORE PUSH1 0xA0 DUP5 ADD MSTORE PUSH1 0xC0 DUP4 ADD MSTORE MLOAD SWAP1 DUP2 SWAP1 SUB PUSH1 0xE0 ADD SWAP1 RETURN JUMPDEST PUSH2 0x156 PUSH2 0xD12 JUMP JUMPDEST PUSH2 0x1A4 PUSH1 0x4 DUP1 CALLDATASIZE SUB PUSH1 0x40 DUP2 LT ISZERO PUSH2 0x2C5 JUMPI PUSH1 0x0 DUP1 REVERT JUMPDEST POP PUSH1 0x1 PUSH1 0x1 PUSH1 0xA0 SHL SUB DUP2 CALLDATALOAD DUP2 AND SWAP2 PUSH1 0x20 ADD CALLDATALOAD AND PUSH2 0xD21 JUMP JUMPDEST PUSH2 0x18A PUSH1 0x4 DUP1 CALLDATASIZE SUB PUSH1 0x20 DUP2 LT ISZERO PUSH2 0x2F3 JUMPI PUSH1 0x0 DUP1 REVERT JUMPDEST POP CALLDATALOAD PUSH1 0x1 PUSH1 0x1 PUSH1 0xA0 SHL SUB AND PUSH2 0xDAA JUMP JUMPDEST PUSH2 0x18A PUSH1 0x4 DUP1 CALLDATASIZE SUB PUSH1 0x20 DUP2 LT ISZERO PUSH2 0x319 JUMPI PUSH1 0x0 DUP1 REVERT JUMPDEST POP CALLDATALOAD PUSH1 0x1 PUSH1 0x1 PUSH1 0xA0 SHL SUB AND PUSH2 0xDED JUMP JUMPDEST PUSH2 0x34F PUSH1 0x4 DUP1 CALLDATASIZE SUB PUSH1 0x20 DUP2 LT ISZERO PUSH2 0x33F JUMPI PUSH1 0x0 DUP1 REVERT JUMPDEST POP CALLDATALOAD PUSH1 0x1 PUSH1 0x1 PUSH1 0xA0 SHL SUB AND PUSH2 0xE9F JUMP JUMPDEST PUSH1 0x40 DUP1 MLOAD SWAP7 DUP8 MSTORE PUSH1 0x20 DUP8 ADD SWAP6 SWAP1 SWAP6 MSTORE DUP6 DUP6 ADD SWAP4 SWAP1 SWAP4 MSTORE PUSH1 0x60 DUP6 ADD SWAP2 SWAP1 SWAP2 MSTORE PUSH1 0x80 DUP5 ADD MSTORE PUSH1 0xA0 DUP4 ADD MSTORE MLOAD SWAP1 DUP2 SWAP1 SUB PUSH1 0xC0 ADD SWAP1 RETURN JUMPDEST PUSH2 0x1D4 PUSH1 0x4 DUP1 CALLDATASIZE SUB PUSH1 0x20 DUP2 LT ISZERO PUSH2 0x398 JUMPI PUSH1 0x0 DUP1 REVERT JUMPDEST POP CALLDATALOAD PUSH1 0x1 PUSH1 0x1 PUSH1 0xA0 SHL SUB AND PUSH2 0xF02 JUMP JUMPDEST PUSH2 0x18A PUSH2 0x1394 JUMP JUMPDEST PUSH2 0x18A PUSH2 0x139A JUMP JUMPDEST PUSH2 0x1D4 PUSH2 0x13A0 JUMP JUMPDEST PUSH2 0x18A PUSH2 0x149C JUMP JUMPDEST PUSH2 0x1A4 PUSH1 0x4 DUP1 CALLDATASIZE SUB PUSH1 0x20 DUP2 LT ISZERO PUSH2 0x3DE JUMPI PUSH1 0x0 DUP1 REVERT JUMPDEST POP CALLDATALOAD PUSH1 0x1 PUSH1 0x1 PUSH1 0xA0 SHL SUB AND PUSH2 0x195E JUMP JUMPDEST PUSH2 0x1D4 PUSH2 0x19C2 JUMP JUMPDEST PUSH1 0x3 SLOAD PUSH1 0x1 PUSH1 0x1 PUSH1 0xA0 SHL SUB AND DUP2 JUMP JUMPDEST PUSH1 0x1 SLOAD PUSH1 0x1 PUSH1 0x1 PUSH1 0xA0 SHL SUB AND DUP2 JUMP JUMPDEST PUSH1 0x2 SLOAD PUSH1 0x1 PUSH1 0x1 PUSH1 0xA0 SHL SUB AND DUP2 JUMP JUMPDEST PUSH1 0x0 PUSH2 0x446 PUSH2 0x43D PUSH1 0x6 SLOAD TIMESTAMP PUSH2 0x1A53 SWAP1 SWAP2 SWAP1 PUSH4 0xFFFFFFFF AND JUMP JUMPDEST PUSH1 0x5 SLOAD SWAP1 PUSH2 0x1AA9 JUMP JUMPDEST PUSH1 0x7 SLOAD ADD SWAP1 POP SWAP1 JUMP JUMPDEST CALLER PUSH2 0x458 PUSH2 0x1B0C JUMP JUMPDEST PUSH1 0x1 PUSH1 0x1 PUSH1 0xA0 SHL SUB DUP2 AND PUSH1 0x0 SWAP1 DUP2 MSTORE PUSH1 0xA PUSH1 0x20 MSTORE PUSH1 0x40 DUP2 KECCAK256 SLOAD PUSH2 0x47A DUP4 PUSH2 0xDED JUMP JUMPDEST ADD SWAP1 POP PUSH1 0x0 DUP1 PUSH2 0x489 DUP5 PUSH2 0x689 JUMP JUMPDEST SWAP2 POP SWAP2 POP PUSH1 0x0 DUP3 GT PUSH2 0x4E1 JUMPI PUSH1 0x40 DUP1 MLOAD PUSH3 0x461BCD PUSH1 0xE5 SHL DUP2 MSTORE PUSH1 0x20 PUSH1 0x4 DUP3 ADD MSTORE PUSH1 0x1C PUSH1 0x24 DUP3 ADD MSTORE PUSH28 0x7374616B696E67203A2072657761726420616D6F756E74206973203 PUSH1 0x24 SHL PUSH1 0x44 DUP3 ADD MSTORE SWAP1 MLOAD SWAP1 DUP2 SWAP1 SUB PUSH1 0x64 ADD SWAP1 REVERT JUMPDEST PUSH1 0x1 SLOAD PUSH1 0x2 SLOAD PUSH1 0x40 DUP1 MLOAD PUSH4 0xA9059CBB PUSH1 0xE0 SHL DUP2 MSTORE PUSH1 0x1 PUSH1 0x1 PUSH1 0xA0 SHL SUB DUP9 DUP2 AND PUSH1 0x4 DUP4 ADD MSTORE PUSH1 0x24 DUP3 ADD DUP8 SWAP1 MSTORE SWAP2 MLOAD SWAP4 DUP3 AND SWAP4 SWAP3 SWAP1 SWAP2 AND SWAP2 DUP4 SWAP2 PUSH4 0xA9059CBB SWAP2 PUSH1 0x44 DUP1 DUP4 ADD SWAP3 PUSH1 0x20 SWAP3 SWAP2 SWAP1 DUP3 SWAP1 SUB ADD DUP2 PUSH1 0x0 DUP8 DUP1 EXTCODESIZE ISZERO DUP1 ISZERO PUSH2 0x540 JUMPI PUSH1 0x0 DUP1 REVERT JUMPDEST POP GAS CALL ISZERO DUP1 ISZERO PUSH2 0x554 JUMPI RETURNDATASIZE PUSH1 0x0 DUP1 RETURNDATACOPY RETURNDATASIZE PUSH1 0x0 REVERT JUMPDEST POP POP POP POP PUSH1 0x40 MLOAD RETURNDATASIZE PUSH1 0x20 DUP2 LT ISZERO PUSH2 0x56A JUMPI PUSH1 0x0 DUP1 REVERT JUMPDEST POP POP PUSH1 0x40 DUP1 MLOAD PUSH4 0xA9059CBB PUSH1 0xE0 SHL DUP2 MSTORE PUSH1 0x1 PUSH1 0x1 PUSH1 0xA0 SHL SUB DUP9 DUP2 AND PUSH1 0x4 DUP4 ADD MSTORE PUSH1 0x24 DUP3 ADD DUP7 SWAP1 MSTORE SWAP2 MLOAD SWAP2 DUP4 AND SWAP2 PUSH4 0xA9059CBB SWAP2 PUSH1 0x44 DUP1 DUP3 ADD SWAP3 PUSH1 0x20 SWAP3 SWAP1 SWAP2 SWAP1 DUP3 SWAP1 SUB ADD DUP2 PUSH1 0x0 DUP8 DUP1 EXTCODESIZE ISZERO DUP1 ISZERO PUSH2 0x5BF JUMPI PUSH1 0x0 DUP1 REVERT JUMPDEST POP GAS CALL ISZERO DUP1 ISZERO PUSH2 0x5D3 JUMPI RETURNDATASIZE PUSH1 0x0 DUP1 RETURNDATACOPY RETURNDATASIZE PUSH1 0x0 REVERT JUMPDEST POP POP POP POP PUSH1 0x40 MLOAD RETURNDATASIZE PUSH1 0x20 DUP2 LT ISZERO PUSH2 0x5E9 JUMPI PUSH1 0x0 DUP1 REVERT JUMPDEST POP POP PUSH1 0x1 PUSH1 0x1 PUSH1 0xA0 SHL SUB DUP7 AND PUSH1 0x0 DUP2 DUP2 MSTORE PUSH1 0xA PUSH1 0x20 SWAP1 DUP2 MSTORE PUSH1 0x40 DUP1 DUP4 KECCAK256 PUSH1 0x5 DUP2 ADD DUP1 SLOAD DUP11 ADD SWAP1 SSTORE PUSH1 0x6 DUP2 ADD DUP1 SLOAD DUP10 ADD SWAP1 SSTORE PUSH1 0x7 DUP1 SLOAD DUP12 SWAP1 SUB SWAP1 SSTORE PUSH1 0x4 DUP2 ADD DUP5 SWAP1 SSTORE SWAP3 DUP4 SSTORE TIMESTAMP PUSH1 0x2 SWAP1 SWAP4 ADD SWAP3 SWAP1 SWAP3 SSTORE DUP2 MLOAD SWAP3 DUP4 MSTORE DUP3 ADD DUP7 SWAP1 MSTORE DUP2 DUP2 ADD DUP6 SWAP1 MSTORE MLOAD PUSH32 0x2A6A2BE713FEDF52F113C0A759F1C1A23A113476D9B1B1A2A453C910660DE4E SWAP2 DUP2 SWAP1 SUB PUSH1 0x60 ADD SWAP1 LOG1 POP POP POP POP POP POP JUMP JUMPDEST PUSH1 0x9 SLOAD PUSH1 0x1 PUSH1 0x1 PUSH1 0xA0 SHL SUB AND DUP2 JUMP JUMPDEST PUSH1 0x0 DUP1 PUSH1 0x0 PUSH2 0x696 PUSH2 0x423 JUMP JUMPDEST SWAP1 POP PUSH1 0x0 DUP1 PUSH2 0x6A3 PUSH2 0x13A0 JUMP JUMPDEST SWAP2 POP SWAP2 POP PUSH1 0x0 PUSH2 0x6B2 DUP8 PUSH2 0xDED JUMP JUMPDEST SWAP1 POP DUP4 ISZERO PUSH2 0x6D3 JUMPI PUSH2 0x6CE DUP5 PUSH2 0x6C8 DUP6 DUP5 PUSH2 0x1AA9 JUMP JUMPDEST SWAP1 PUSH2 0x1B43 JUMP JUMPDEST PUSH2 0x6D6 JUMP JUMPDEST PUSH1 0x0 JUMPDEST SWAP6 POP DUP4 ISZERO PUSH2 0x6F1 JUMPI PUSH2 0x6EC DUP5 PUSH2 0x6C8 DUP5 DUP5 PUSH2 0x1AA9 JUMP JUMPDEST PUSH2 0x6F4 JUMP JUMPDEST PUSH1 0x0 JUMPDEST SWAP5 POP POP POP POP POP SWAP2 POP SWAP2 JUMP JUMPDEST PUSH1 0x0 DUP1 PUSH2 0x70A PUSH2 0x19C2 JUMP JUMPDEST SWAP2 POP SWAP2 POP PUSH2 0x718 DUP3 DUP3 PUSH2 0x1BA1 JUMP JUMPDEST POP POP JUMP JUMPDEST CALLER PUSH1 0x0 DUP2 DUP2 MSTORE PUSH1 0xA PUSH1 0x20 MSTORE PUSH1 0x40 SWAP1 KECCAK256 PUSH1 0x1 ADD SLOAD PUSH1 0x0 PUSH2 0x73A DUP4 PUSH2 0xDAA JUMP JUMPDEST SWAP1 POP PUSH2 0x745 DUP4 PUSH2 0xDED JUMP JUMPDEST PUSH1 0x1 PUSH1 0x1 PUSH1 0xA0 SHL SUB DUP5 AND PUSH1 0x0 SWAP1 DUP2 MSTORE PUSH1 0xA PUSH1 0x20 MSTORE PUSH1 0x40 SWAP1 KECCAK256 PUSH1 0x4 DUP2 ADD SWAP2 SWAP1 SWAP2 SSTORE PUSH1 0x1 DUP2 ADD DUP1 SLOAD DUP5 SWAP1 SUB SWAP1 SSTORE TIMESTAMP PUSH1 0x2 DUP3 ADD DUP2 SWAP1 SSTORE PUSH1 0x3 SWAP1 SWAP2 ADD SSTORE PUSH2 0x786 PUSH2 0x1B0C JUMP JUMPDEST PUSH1 0x5 DUP1 SLOAD DUP4 SWAP1 SUB SWAP1 SSTORE DUP1 ISZERO PUSH2 0x8A2 JUMPI PUSH1 0x3 SLOAD PUSH1 0x1 PUSH1 0x1 PUSH1 0xA0 SHL SUB AND PUSH4 0x42966C68 PUSH2 0x7B7 PUSH2 0x3E8 PUSH2 0x6C8 DUP7 PUSH1 0x4 PUSH2 0x1AA9 JUMP JUMPDEST PUSH1 0x40 MLOAD DUP3 PUSH4 0xFFFFFFFF AND PUSH1 0xE0 SHL DUP2 MSTORE PUSH1 0x4 ADD DUP1 DUP3 DUP2 MSTORE PUSH1 0x20 ADD SWAP2 POP POP PUSH1 0x0 PUSH1 0x40 MLOAD DUP1 DUP4 SUB DUP2 PUSH1 0x0 DUP8 DUP1 EXTCODESIZE ISZERO DUP1 ISZERO PUSH2 0x7ED JUMPI PUSH1 0x0 DUP1 REVERT JUMPDEST POP GAS CALL ISZERO DUP1 ISZERO PUSH2 0x801 JUMPI RETURNDATASIZE PUSH1 0x0 DUP1 RETURNDATACOPY RETURNDATASIZE PUSH1 0x0 REVERT JUMPDEST POP POP PUSH1 0x3 SLOAD PUSH1 0x4 SLOAD PUSH1 0x1 PUSH1 0x1 PUSH1 0xA0 SHL SUB SWAP2 DUP3 AND SWAP4 POP PUSH4 0xA9059CBB SWAP3 POP AND PUSH2 0x82F PUSH2 0x3E8 PUSH2 0x6C8 DUP8 PUSH1 0x5 PUSH2 0x1AA9 JUMP JUMPDEST PUSH1 0x40 MLOAD DUP4 PUSH4 0xFFFFFFFF AND PUSH1 0xE0 SHL DUP2 MSTORE PUSH1 0x4 ADD DUP1 DUP4 PUSH1 0x1 PUSH1 0x1 PUSH1 0xA0 SHL SUB AND DUP2 MSTORE PUSH1 0x20 ADD DUP3 DUP2 MSTORE PUSH1 0x20 ADD SWAP3 POP POP POP PUSH1 0x20 PUSH1 0x40 MLOAD DUP1 DUP4 SUB DUP2 PUSH1 0x0 DUP8 DUP1 EXTCODESIZE ISZERO DUP1 ISZERO PUSH2 0x875 JUMPI PUSH1 0x0 DUP1 REVERT JUMPDEST POP GAS CALL ISZERO DUP1 ISZERO PUSH2 0x889 JUMPI RETURNDATASIZE PUSH1 0x0 DUP1 RETURNDATACOPY RETURNDATASIZE PUSH1 0x0 REVERT JUMPDEST POP POP POP POP PUSH1 0x40 MLOAD RETURNDATASIZE PUSH1 0x20 DUP2 LT ISZERO PUSH2 0x89F JUMPI PUSH1 0x0 DUP1 REVERT JUMPDEST POP POP JUMPDEST PUSH1 0x3 SLOAD PUSH1 0x1 PUSH1 0x1 PUSH1 0xA0 SHL SUB AND PUSH4 0xA9059CBB DUP5 PUSH2 0x8C6 PUSH2 0x3E8 PUSH2 0x6C8 DUP8 DUP8 DUP4 SUB PUSH2 0x1AA9 JUMP JUMPDEST PUSH1 0x40 MLOAD DUP4 PUSH4 0xFFFFFFFF AND PUSH1 0xE0 SHL DUP2 MSTORE PUSH1 0x4 ADD DUP1 DUP4 PUSH1 0x1 PUSH1 0x1 PUSH1 0xA0 SHL SUB AND DUP2 MSTORE PUSH1 0x20 ADD DUP3 DUP2 MSTORE PUSH1 0x20 ADD SWAP3 POP POP POP PUSH1 0x20 PUSH1 0x40 MLOAD DUP1 DUP4 SUB DUP2 PUSH1 0x0 DUP8 DUP1 EXTCODESIZE ISZERO DUP1 ISZERO PUSH2 0x90C JUMPI PUSH1 0x0 DUP1 REVERT JUMPDEST POP GAS CALL ISZERO DUP1 ISZERO PUSH2 0x920 JUMPI RETURNDATASIZE PUSH1 0x0 DUP1 RETURNDATACOPY RETURNDATASIZE PUSH1 0x0 REVERT JUMPDEST POP POP POP POP PUSH1 0x40 MLOAD RETURNDATASIZE PUSH1 0x20 DUP2 LT ISZERO PUSH2 0x936 JUMPI PUSH1 0x0 DUP1 REVERT JUMPDEST POP POP PUSH1 0x40 DUP1 MLOAD PUSH1 0x1 PUSH1 0x1 PUSH1 0xA0 SHL SUB DUP6 AND DUP2 MSTORE PUSH1 0x20 DUP2 ADD DUP5 SWAP1 MSTORE DUP2 MLOAD PUSH32 0x884EDAD9CE6FA2440D8A54CC123490EB96D2768479D49FF9C7366125A9424364 SWAP3 SWAP2 DUP2 SWAP1 SUB SWAP1 SWAP2 ADD SWAP1 LOG1 POP POP POP JUMP JUMPDEST PUSH1 0x8 SLOAD DUP2 JUMP JUMPDEST PUSH2 0x98F PUSH2 0x1EA6 JUMP JUMPDEST PUSH1 0x0 SLOAD PUSH1 0x1 PUSH1 0x1 PUSH1 0xA0 SHL SUB SWAP1 DUP2 AND SWAP2 AND EQ PUSH2 0x9DF JUMPI PUSH1 0x40 DUP1 MLOAD PUSH3 0x461BCD PUSH1 0xE5 SHL DUP2 MSTORE PUSH1 0x20 PUSH1 0x4 DUP3 ADD DUP2 SWAP1 MSTORE PUSH1 0x24 DUP3 ADD MSTORE PUSH1 0x0 DUP1 MLOAD PUSH1 0x20 PUSH2 0x1F9C DUP4 CODECOPY DUP2 MLOAD SWAP2 MSTORE PUSH1 0x44 DUP3 ADD MSTORE SWAP1 MLOAD SWAP1 DUP2 SWAP1 SUB PUSH1 0x64 ADD SWAP1 REVERT JUMPDEST PUSH1 0x0 DUP1 SLOAD PUSH1 0x40 MLOAD PUSH1 0x1 PUSH1 0x1 PUSH1 0xA0 SHL SUB SWAP1 SWAP2 AND SWAP1 PUSH1 0x0 DUP1 MLOAD PUSH1 0x20 PUSH2 0x1FBC DUP4 CODECOPY DUP2 MLOAD SWAP2 MSTORE SWAP1 DUP4 SWAP1 LOG3 PUSH1 0x0 DUP1 SLOAD PUSH1 0x1 PUSH1 0x1 PUSH1 0xA0 SHL SUB NOT AND SWAP1 SSTORE JUMP JUMPDEST CALLER PUSH1 0x0 DUP2 DUP2 MSTORE PUSH1 0xA PUSH1 0x20 MSTORE PUSH1 0x40 SWAP1 KECCAK256 PUSH1 0x2 ADD SLOAD PUSH2 0xA38 JUMPI PUSH1 0x8 DUP1 SLOAD PUSH1 0x1 ADD SWAP1 SSTORE JUMPDEST PUSH2 0xA41 DUP2 PUSH2 0xDED JUMP JUMPDEST PUSH1 0x1 PUSH1 0x1 PUSH1 0xA0 SHL SUB DUP3 AND PUSH1 0x0 SWAP1 DUP2 MSTORE PUSH1 0xA PUSH1 0x20 MSTORE PUSH1 0x40 SWAP1 KECCAK256 PUSH1 0x4 ADD SSTORE PUSH2 0xA6F PUSH2 0x3E8 PUSH2 0x6C8 DUP6 PUSH2 0x3DE PUSH2 0x1AA9 JUMP JUMPDEST PUSH1 0x1 PUSH1 0x1 PUSH1 0xA0 SHL SUB DUP1 DUP4 AND PUSH1 0x0 SWAP1 DUP2 MSTORE PUSH1 0xA PUSH1 0x20 MSTORE PUSH1 0x40 SWAP1 KECCAK256 PUSH1 0x1 DUP2 ADD DUP1 SLOAD SWAP1 SWAP4 ADD SWAP1 SWAP3 SSTORE TIMESTAMP PUSH1 0x2 DUP4 ADD DUP2 SWAP1 SSTORE PUSH1 0x3 SWAP1 SWAP3 ADD SWAP2 SWAP1 SWAP2 SSTORE DUP3 AND ISZERO DUP1 ISZERO SWAP1 PUSH2 0xAC7 JUMPI POP DUP1 PUSH1 0x1 PUSH1 0x1 PUSH1 0xA0 SHL SUB AND DUP3 PUSH1 0x1 PUSH1 0x1 PUSH1 0xA0 SHL SUB AND EQ ISZERO JUMPDEST ISZERO PUSH2 0xAFC JUMPI PUSH1 0x1 PUSH1 0x1 PUSH1 0xA0 SHL SUB DUP3 AND PUSH1 0x0 SWAP1 DUP2 MSTORE PUSH1 0xA PUSH1 0x20 MSTORE PUSH1 0x40 SWAP1 KECCAK256 DUP1 SLOAD PUSH3 0x15180 DUP6 MUL SWAP1 DUP2 ADD SWAP1 SWAP2 SSTORE PUSH1 0x7 DUP1 SLOAD SWAP1 SWAP2 ADD SWAP1 SSTORE JUMPDEST PUSH2 0xB04 PUSH2 0x1B0C JUMP JUMPDEST PUSH1 0x3 SLOAD PUSH1 0x1 PUSH1 0x1 PUSH1 0xA0 SHL SUB AND PUSH4 0x23B872DD DUP3 ADDRESS PUSH2 0xB29 PUSH2 0x3E8 PUSH2 0x6C8 DUP10 PUSH2 0x3E3 PUSH2 0x1AA9 JUMP JUMPDEST PUSH1 0x40 MLOAD DUP5 PUSH4 0xFFFFFFFF AND PUSH1 0xE0 SHL DUP2 MSTORE PUSH1 0x4 ADD DUP1 DUP5 PUSH1 0x1 PUSH1 0x1 PUSH1 0xA0 SHL SUB AND DUP2 MSTORE PUSH1 0x20 ADD DUP4 PUSH1 0x1 PUSH1 0x1 PUSH1 0xA0 SHL SUB AND DUP2 MSTORE PUSH1 0x20 ADD DUP3 DUP2 MSTORE PUSH1 0x20 ADD SWAP4 POP POP POP POP PUSH1 0x20 PUSH1 0x40 MLOAD DUP1 DUP4 SUB DUP2 PUSH1 0x0 DUP8 DUP1 EXTCODESIZE ISZERO DUP1 ISZERO PUSH2 0xB7F JUMPI PUSH1 0x0 DUP1 REVERT JUMPDEST POP GAS CALL ISZERO DUP1 ISZERO PUSH2 0xB93 JUMPI RETURNDATASIZE PUSH1 0x0 DUP1 RETURNDATACOPY RETURNDATASIZE PUSH1 0x0 REVERT JUMPDEST POP POP POP POP PUSH1 0x40 MLOAD RETURNDATASIZE PUSH1 0x20 DUP2 LT ISZERO PUSH2 0xBA9 JUMPI PUSH1 0x0 DUP1 REVERT JUMPDEST POP POP PUSH1 0x3 SLOAD PUSH1 0x4 SLOAD PUSH1 0x1 PUSH1 0x1 PUSH1 0xA0 SHL SUB SWAP2 DUP3 AND SWAP2 PUSH4 0x23B872DD SWAP2 DUP5 SWAP2 AND PUSH2 0xBD7 PUSH2 0x3E8 PUSH2 0x6C8 DUP10 PUSH1 0x5 PUSH2 0x1AA9 JUMP JUMPDEST PUSH1 0x40 MLOAD DUP5 PUSH4 0xFFFFFFFF AND PUSH1 0xE0 SHL DUP2 MSTORE PUSH1 0x4 ADD DUP1 DUP5 PUSH1 0x1 PUSH1 0x1 PUSH1 0xA0 SHL SUB AND DUP2 MSTORE PUSH1 0x20 ADD DUP4 PUSH1 0x1 PUSH1 0x1 PUSH1 0xA0 SHL SUB AND DUP2 MSTORE PUSH1 0x20 ADD DUP3 DUP2 MSTORE PUSH1 0x20 ADD SWAP4 POP POP POP POP PUSH1 0x20 PUSH1 0x40 MLOAD DUP1 DUP4 SUB DUP2 PUSH1 0x0 DUP8 DUP1 EXTCODESIZE ISZERO DUP1 ISZERO PUSH2 0xC2D JUMPI PUSH1 0x0 DUP1 REVERT JUMPDEST POP GAS CALL ISZERO DUP1 ISZERO PUSH2 0xC41 JUMPI RETURNDATASIZE PUSH1 0x0 DUP1 RETURNDATACOPY RETURNDATASIZE PUSH1 0x0 REVERT JUMPDEST POP POP POP POP PUSH1 0x40 MLOAD RETURNDATASIZE PUSH1 0x20 DUP2 LT ISZERO PUSH2 0xC57 JUMPI PUSH1 0x0 DUP1 REVERT JUMPDEST POP PUSH2 0xC6C SWAP1 POP PUSH2 0x3E8 PUSH2 0x6C8 DUP6 PUSH2 0x3E3 PUSH2 0x1AA9 JUMP JUMPDEST PUSH1 0x5 DUP1 SLOAD SWAP2 SWAP1 SWAP2 ADD SWAP1 SSTORE PUSH1 0x40 DUP1 MLOAD PUSH1 0x1 PUSH1 0x1 PUSH1 0xA0 SHL SUB DUP4 AND DUP2 MSTORE PUSH1 0x20 DUP2 ADD DUP6 SWAP1 MSTORE DUP2 MLOAD PUSH32 0xEBEDB8B3C678666E7F36970BC8F57ABF6D8FA2E828C0DA91EA5B75BF68ED101A SWAP3 SWAP2 DUP2 SWAP1 SUB SWAP1 SWAP2 ADD SWAP1 LOG1 POP POP POP JUMP JUMPDEST PUSH1 0x7 SLOAD DUP2 JUMP JUMPDEST PUSH1 0x0 SLOAD PUSH1 0x1 PUSH1 0x1 PUSH1 0xA0 SHL SUB AND JUMPDEST SWAP1 JUMP JUMPDEST PUSH1 0xA PUSH1 0x20 MSTORE PUSH1 0x0 SWAP1 DUP2 MSTORE PUSH1 0x40 SWAP1 KECCAK256 DUP1 SLOAD PUSH1 0x1 DUP3 ADD SLOAD PUSH1 0x2 DUP4 ADD SLOAD PUSH1 0x3 DUP5 ADD SLOAD PUSH1 0x4 DUP6 ADD SLOAD PUSH1 0x5 DUP7 ADD SLOAD PUSH1 0x6 SWAP1 SWAP7 ADD SLOAD SWAP5 SWAP6 SWAP4 SWAP5 SWAP3 SWAP4 SWAP2 SWAP3 SWAP1 SWAP2 SWAP1 DUP8 JUMP JUMPDEST PUSH1 0x4 SLOAD PUSH1 0x1 PUSH1 0x1 PUSH1 0xA0 SHL SUB AND DUP2 JUMP JUMPDEST PUSH2 0xD29 PUSH2 0x1EA6 JUMP JUMPDEST PUSH1 0x0 SLOAD PUSH1 0x1 PUSH1 0x1 PUSH1 0xA0 SHL SUB SWAP1 DUP2 AND SWAP2 AND EQ PUSH2 0xD79 JUMPI PUSH1 0x40 DUP1 MLOAD PUSH3 0x461BCD PUSH1 0xE5 SHL DUP2 MSTORE PUSH1 0x20 PUSH1 0x4 DUP3 ADD DUP2 SWAP1 MSTORE PUSH1 0x24 DUP3 ADD MSTORE PUSH1 0x0 DUP1 MLOAD PUSH1 0x20 PUSH2 0x1F9C DUP4 CODECOPY DUP2 MLOAD SWAP2 MSTORE PUSH1 0x44 DUP3 ADD MSTORE SWAP1 MLOAD SWAP1 DUP2 SWAP1 SUB PUSH1 0x64 ADD SWAP1 REVERT JUMPDEST PUSH1 0x4 DUP1 SLOAD PUSH1 0x1 PUSH1 0x1 PUSH1 0xA0 SHL SUB SWAP3 DUP4 AND PUSH1 0x1 PUSH1 0x1 PUSH1 0xA0 SHL SUB NOT SWAP2 DUP3 AND OR SWAP1 SWAP2 SSTORE PUSH1 0x9 DUP1 SLOAD SWAP4 SWAP1 SWAP3 AND SWAP3 AND SWAP2 SWAP1 SWAP2 OR SWAP1 SSTORE JUMP JUMPDEST PUSH1 0x1 PUSH1 0x1 PUSH1 0xA0 SHL SUB DUP2 AND PUSH1 0x0 SWAP1 DUP2 MSTORE PUSH1 0xA PUSH1 0x20 MSTORE PUSH1 0x40 DUP2 KECCAK256 PUSH1 0x3 ADD SLOAD PUSH3 0x375F00 SWAP1 PUSH2 0xDD6 SWAP1 TIMESTAMP SWAP1 PUSH2 0x1A53 JUMP JUMPDEST LT ISZERO PUSH2 0xDE4 JUMPI POP PUSH1 0xFA PUSH2 0xDE8 JUMP JUMPDEST POP PUSH1 0x0 JUMPDEST SWAP2 SWAP1 POP JUMP JUMPDEST PUSH1 0x0 PUSH2 0xDF7 PUSH2 0x1F38 JUMP JUMPDEST POP PUSH1 0x1 PUSH1 0x1 PUSH1 0xA0 SHL SUB DUP3 AND PUSH1 0x0 SWAP1 DUP2 MSTORE PUSH1 0xA PUSH1 0x20 SWAP1 DUP2 MSTORE PUSH1 0x40 SWAP2 DUP3 SWAP1 KECCAK256 DUP3 MLOAD PUSH1 0xE0 DUP2 ADD DUP5 MSTORE DUP2 SLOAD DUP2 MSTORE PUSH1 0x1 DUP3 ADD SLOAD SWAP3 DUP2 ADD SWAP3 SWAP1 SWAP3 MSTORE PUSH1 0x2 DUP2 ADD SLOAD SWAP3 DUP3 ADD DUP4 SWAP1 MSTORE PUSH1 0x3 DUP2 ADD SLOAD PUSH1 0x60 DUP4 ADD MSTORE PUSH1 0x4 DUP2 ADD SLOAD PUSH1 0x80 DUP4 ADD MSTORE PUSH1 0x5 DUP2 ADD SLOAD PUSH1 0xA0 DUP4 ADD MSTORE PUSH1 0x6 ADD SLOAD PUSH1 0xC0 DUP3 ADD MSTORE SWAP1 PUSH2 0xE6D JUMPI PUSH1 0x0 SWAP2 POP POP PUSH2 0xDE8 JUMP JUMPDEST PUSH2 0xE92 DUP2 PUSH1 0x20 ADD MLOAD PUSH2 0xE8C DUP4 PUSH1 0x40 ADD MLOAD TIMESTAMP PUSH2 0x1A53 SWAP1 SWAP2 SWAP1 PUSH4 0xFFFFFFFF AND JUMP JUMPDEST SWAP1 PUSH2 0x1AA9 JUMP JUMPDEST PUSH1 0x80 SWAP1 SWAP2 ADD MLOAD ADD SWAP3 SWAP2 POP POP JUMP JUMPDEST PUSH1 0x5 SLOAD PUSH1 0x1 PUSH1 0x1 PUSH1 0xA0 SHL SUB DUP3 AND PUSH1 0x0 SWAP1 DUP2 MSTORE PUSH1 0xA PUSH1 0x20 MSTORE PUSH1 0x40 DUP2 KECCAK256 PUSH1 0x1 ADD SLOAD SWAP1 DUP1 DUP1 DUP1 PUSH2 0xECB DUP8 PUSH2 0x689 JUMP JUMPDEST PUSH1 0x1 PUSH1 0x1 PUSH1 0xA0 SHL SUB SWAP1 SWAP9 AND PUSH1 0x0 SWAP1 DUP2 MSTORE PUSH1 0xA PUSH1 0x20 MSTORE PUSH1 0x40 SWAP1 KECCAK256 PUSH1 0x5 DUP2 ADD SLOAD PUSH1 0x6 SWAP1 SWAP2 ADD SLOAD SWAP8 SWAP10 SWAP7 SWAP9 SWAP2 SWAP8 SWAP2 SWAP7 SWAP1 SWAP6 POP SWAP1 SWAP4 POP SWAP2 POP POP JUMP JUMPDEST PUSH1 0x0 DUP1 PUSH1 0x0 PUSH2 0xF0F PUSH2 0x423 JUMP JUMPDEST SWAP1 POP PUSH1 0x0 DUP1 PUSH2 0xF1C PUSH2 0x13A0 JUMP JUMPDEST SWAP2 POP SWAP2 POP PUSH1 0x0 DUP1 PUSH2 0xF2B PUSH2 0x19C2 JUMP JUMPDEST SWAP2 POP SWAP2 POP PUSH8 0x16345785D8A0000 DUP3 GT DUP1 ISZERO PUSH2 0xF4D JUMPI POP PUSH8 0x16345785D8A0000 DUP2 GT JUMPDEST ISZERO PUSH2 0x1328 JUMPI PUSH1 0x40 DUP1 MLOAD PUSH1 0x2 DUP1 DUP3 MSTORE PUSH1 0x60 DUP1 DUP4 ADD DUP5 MSTORE SWAP3 PUSH1 0x20 DUP4 ADD SWAP1 DUP1 CALLDATASIZE DUP4 CALLDATACOPY POP POP PUSH1 0x40 DUP1 MLOAD PUSH1 0x2 DUP1 DUP3 MSTORE PUSH1 0x60 DUP1 DUP4 ADD DUP5 MSTORE SWAP5 SWAP6 POP SWAP1 SWAP3 POP SWAP1 PUSH1 0x20 DUP4 ADD SWAP1 DUP1 CALLDATASIZE DUP4 CALLDATACOPY POP POP PUSH1 0x3 SLOAD DUP5 MLOAD SWAP3 SWAP4 POP PUSH1 0x1 PUSH1 0x1 PUSH1 0xA0 SHL SUB AND SWAP2 DUP5 SWAP2 POP PUSH1 0x0 SWAP1 PUSH2 0xFAE JUMPI INVALID JUMPDEST PUSH1 0x1 PUSH1 0x1 PUSH1 0xA0 SHL SUB SWAP3 DUP4 AND PUSH1 0x20 SWAP2 DUP3 MUL SWAP3 SWAP1 SWAP3 ADD ADD MSTORE PUSH1 0x1 DUP1 SLOAD DUP5 MLOAD SWAP3 AND SWAP2 DUP5 SWAP2 SWAP1 DUP2 LT PUSH2 0xFD8 JUMPI INVALID JUMPDEST PUSH1 0x1 PUSH1 0x1 PUSH1 0xA0 SHL SUB SWAP3 DUP4 AND PUSH1 0x20 SWAP2 DUP3 MUL SWAP3 SWAP1 SWAP3 ADD ADD MSTORE PUSH1 0x3 SLOAD DUP3 MLOAD SWAP2 AND SWAP1 DUP3 SWAP1 PUSH1 0x0 SWAP1 PUSH2 0x1001 JUMPI INVALID JUMPDEST PUSH1 0x1 PUSH1 0x1 PUSH1 0xA0 SHL SUB SWAP3 DUP4 AND PUSH1 0x20 SWAP2 DUP3 MUL SWAP3 SWAP1 SWAP3 ADD ADD MSTORE PUSH1 0x2 SLOAD DUP3 MLOAD SWAP2 AND SWAP1 DUP3 SWAP1 PUSH1 0x1 SWAP1 DUP2 LT PUSH2 0x102C JUMPI INVALID JUMPDEST PUSH1 0x1 PUSH1 0x1 PUSH1 0xA0 SHL SUB SWAP3 DUP4 AND PUSH1 0x20 SWAP2 DUP3 MUL SWAP3 SWAP1 SWAP3 ADD DUP2 ADD SWAP2 SWAP1 SWAP2 MSTORE PUSH1 0x9 SLOAD PUSH1 0x40 DUP1 MLOAD PUSH4 0xD06CA61F PUSH1 0xE0 SHL DUP2 MSTORE PUSH1 0x4 DUP2 ADD DUP10 DUP2 MSTORE PUSH1 0x24 DUP3 ADD SWAP3 DUP4 MSTORE DUP8 MLOAD PUSH1 0x44 DUP4 ADD MSTORE DUP8 MLOAD PUSH1 0x60 SWAP7 SWAP5 SWAP1 SWAP5 AND SWAP5 PUSH4 0xD06CA61F SWAP5 DUP12 SWAP5 DUP11 SWAP5 SWAP1 SWAP3 PUSH1 0x64 SWAP1 SWAP2 ADD SWAP2 DUP6 DUP3 ADD SWAP2 MUL DUP1 DUP4 DUP4 PUSH1 0x0 JUMPDEST DUP4 DUP2 LT ISZERO PUSH2 0x10AB JUMPI DUP2 DUP2 ADD MLOAD DUP4 DUP3 ADD MSTORE PUSH1 0x20 ADD PUSH2 0x1093 JUMP JUMPDEST POP POP POP POP SWAP1 POP ADD SWAP4 POP POP POP POP PUSH1 0x0 PUSH1 0x40 MLOAD DUP1 DUP4 SUB DUP2 DUP7 DUP1 EXTCODESIZE ISZERO DUP1 ISZERO PUSH2 0x10CF JUMPI PUSH1 0x0 DUP1 REVERT JUMPDEST POP GAS STATICCALL ISZERO DUP1 ISZERO PUSH2 0x10E3 JUMPI RETURNDATASIZE PUSH1 0x0 DUP1 RETURNDATACOPY RETURNDATASIZE PUSH1 0x0 REVERT JUMPDEST POP POP POP POP PUSH1 0x40 MLOAD RETURNDATASIZE PUSH1 0x0 DUP3 RETURNDATACOPY PUSH1 0x1F RETURNDATASIZE SWAP1 DUP2 ADD PUSH1 0x1F NOT AND DUP3 ADD PUSH1 0x40 MSTORE PUSH1 0x20 DUP2 LT ISZERO PUSH2 0x110C JUMPI PUSH1 0x0 DUP1 REVERT JUMPDEST DUP2 ADD SWAP1 DUP1 DUP1 MLOAD PUSH1 0x40 MLOAD SWAP4 SWAP3 SWAP2 SWAP1 DUP5 PUSH1 0x1 PUSH1 0x20 SHL DUP3 GT ISZERO PUSH2 0x112B JUMPI PUSH1 0x0 DUP1 REVERT JUMPDEST SWAP1 DUP4 ADD SWAP1 PUSH1 0x20 DUP3 ADD DUP6 DUP2 GT ISZERO PUSH2 0x1140 JUMPI PUSH1 0x0 DUP1 REVERT JUMPDEST DUP3 MLOAD DUP7 PUSH1 0x20 DUP3 MUL DUP4 ADD GT PUSH1 0x1 PUSH1 0x20 SHL DUP3 GT OR ISZERO PUSH2 0x115C JUMPI PUSH1 0x0 DUP1 REVERT JUMPDEST DUP3 MSTORE POP DUP2 MLOAD PUSH1 0x20 SWAP2 DUP3 ADD SWAP3 DUP3 ADD SWAP2 MUL DUP1 DUP4 DUP4 PUSH1 0x0 JUMPDEST DUP4 DUP2 LT ISZERO PUSH2 0x1189 JUMPI DUP2 DUP2 ADD MLOAD DUP4 DUP3 ADD MSTORE PUSH1 0x20 ADD PUSH2 0x1171 JUMP JUMPDEST POP POP POP POP SWAP2 SWAP1 SWAP2 ADD PUSH1 0x40 DUP2 DUP2 MSTORE PUSH1 0x9 SLOAD PUSH4 0xD06CA61F PUSH1 0xE0 SHL DUP4 MSTORE PUSH1 0x4 DUP4 ADD DUP13 DUP2 MSTORE PUSH1 0x24 DUP5 ADD SWAP3 DUP4 MSTORE DUP11 MLOAD PUSH1 0x44 DUP6 ADD MSTORE DUP11 MLOAD SWAP9 SWAP10 POP PUSH1 0x60 SWAP9 PUSH1 0x1 PUSH1 0x1 PUSH1 0xA0 SHL SUB SWAP1 SWAP3 AND SWAP8 POP PUSH4 0xD06CA61F SWAP7 POP DUP13 SWAP6 POP DUP11 SWAP5 POP SWAP3 PUSH1 0x64 ADD SWAP1 PUSH1 0x20 DUP1 DUP7 ADD SWAP2 MUL DUP1 DUP4 DUP4 PUSH1 0x0 JUMPDEST DUP4 DUP2 LT ISZERO PUSH2 0x1204 JUMPI DUP2 DUP2 ADD MLOAD DUP4 DUP3 ADD MSTORE PUSH1 0x20 ADD PUSH2 0x11EC JUMP JUMPDEST POP POP POP POP SWAP1 POP ADD SWAP4 POP POP POP POP PUSH1 0x0 PUSH1 0x40 MLOAD DUP1 DUP4 SUB DUP2 DUP7 DUP1 EXTCODESIZE ISZERO DUP1 ISZERO PUSH2 0x1228 JUMPI PUSH1 0x0 DUP1 REVERT JUMPDEST POP GAS STATICCALL ISZERO DUP1 ISZERO PUSH2 0x123C JUMPI RETURNDATASIZE PUSH1 0x0 DUP1 RETURNDATACOPY RETURNDATASIZE PUSH1 0x0 REVERT JUMPDEST POP POP POP POP PUSH1 0x40 MLOAD RETURNDATASIZE PUSH1 0x0 DUP3 RETURNDATACOPY PUSH1 0x1F RETURNDATASIZE SWAP1 DUP2 ADD PUSH1 0x1F NOT AND DUP3 ADD PUSH1 0x40 MSTORE PUSH1 0x20 DUP2 LT ISZERO PUSH2 0x1265 JUMPI PUSH1 0x0 DUP1 REVERT JUMPDEST DUP2 ADD SWAP1 DUP1 DUP1 MLOAD PUSH1 0x40 MLOAD SWAP4 SWAP3 SWAP2 SWAP1 DUP5 PUSH1 0x1 PUSH1 0x20 SHL DUP3 GT ISZERO PUSH2 0x1284 JUMPI PUSH1 0x0 DUP1 REVERT JUMPDEST SWAP1 DUP4 ADD SWAP1 PUSH1 0x20 DUP3 ADD DUP6 DUP2 GT ISZERO PUSH2 0x1299 JUMPI PUSH1 0x0 DUP1 REVERT JUMPDEST DUP3 MLOAD DUP7 PUSH1 0x20 DUP3 MUL DUP4 ADD GT PUSH1 0x1 PUSH1 0x20 SHL DUP3 GT OR ISZERO PUSH2 0x12B5 JUMPI PUSH1 0x0 DUP1 REVERT JUMPDEST DUP3 MSTORE POP DUP2 MLOAD PUSH1 0x20 SWAP2 DUP3 ADD SWAP3 DUP3 ADD SWAP2 MUL DUP1 DUP4 DUP4 PUSH1 0x0 JUMPDEST DUP4 DUP2 LT ISZERO PUSH2 0x12E2 JUMPI DUP2 DUP2 ADD MLOAD DUP4 DUP3 ADD MSTORE PUSH1 0x20 ADD PUSH2 0x12CA JUMP JUMPDEST POP POP POP POP SWAP1 POP ADD PUSH1 0x40 MSTORE POP POP POP SWAP1 POP DUP2 PUSH1 0x0 DUP2 MLOAD DUP2 LT PUSH2 0x12FE JUMPI INVALID JUMPDEST PUSH1 0x20 MUL PUSH1 0x20 ADD ADD MLOAD DUP9 ADD SWAP8 POP DUP1 PUSH1 0x0 DUP2 MLOAD DUP2 LT PUSH2 0x1317 JUMPI INVALID JUMPDEST PUSH1 0x20 MUL PUSH1 0x20 ADD ADD MLOAD DUP8 ADD SWAP7 POP POP POP POP POP JUMPDEST PUSH1 0x1 PUSH1 0x1 PUSH1 0xA0 SHL SUB DUP9 AND PUSH1 0x0 SWAP1 DUP2 MSTORE PUSH1 0xA PUSH1 0x20 MSTORE PUSH1 0x40 DUP2 KECCAK256 SLOAD PUSH2 0x134A DUP11 PUSH2 0xDED JUMP JUMPDEST ADD SWAP1 POP DUP6 ISZERO PUSH2 0x1366 JUMPI PUSH2 0x1361 DUP7 PUSH2 0x6C8 DUP8 DUP5 PUSH2 0x1AA9 JUMP JUMPDEST PUSH2 0x1369 JUMP JUMPDEST PUSH1 0x0 JUMPDEST SWAP8 POP DUP6 ISZERO PUSH2 0x1384 JUMPI PUSH2 0x137F DUP7 PUSH2 0x6C8 DUP7 DUP5 PUSH2 0x1AA9 JUMP JUMPDEST PUSH2 0x1387 JUMP JUMPDEST PUSH1 0x0 JUMPDEST SWAP7 POP POP POP POP POP POP POP SWAP2 POP SWAP2 JUMP JUMPDEST PUSH1 0x6 SLOAD DUP2 JUMP JUMPDEST PUSH1 0x5 SLOAD DUP2 JUMP JUMPDEST PUSH1 0x1 SLOAD PUSH1 0x40 DUP1 MLOAD PUSH4 0x70A08231 PUSH1 0xE0 SHL DUP2 MSTORE ADDRESS PUSH1 0x4 DUP3 ADD MSTORE SWAP1 MLOAD PUSH1 0x0 SWAP3 DUP4 SWAP3 PUSH1 0x1 PUSH1 0x1 PUSH1 0xA0 SHL SUB SWAP1 SWAP2 AND SWAP2 PUSH4 0x70A08231 SWAP2 PUSH1 0x24 DUP1 DUP3 ADD SWAP3 PUSH1 0x20 SWAP3 SWAP1 SWAP2 SWAP1 DUP3 SWAP1 SUB ADD DUP2 DUP7 DUP1 EXTCODESIZE ISZERO DUP1 ISZERO PUSH2 0x13F0 JUMPI PUSH1 0x0 DUP1 REVERT JUMPDEST POP GAS STATICCALL ISZERO DUP1 ISZERO PUSH2 0x1404 JUMPI RETURNDATASIZE PUSH1 0x0 DUP1 RETURNDATACOPY RETURNDATASIZE PUSH1 0x0 REVERT JUMPDEST POP POP POP POP PUSH1 0x40 MLOAD RETURNDATASIZE PUSH1 0x20 DUP2 LT ISZERO PUSH2 0x141A JUMPI PUSH1 0x0 DUP1 REVERT JUMPDEST POP MLOAD PUSH1 0x2 SLOAD PUSH1 0x40 DUP1 MLOAD PUSH4 0x70A08231 PUSH1 0xE0 SHL DUP2 MSTORE ADDRESS PUSH1 0x4 DUP3 ADD MSTORE SWAP1 MLOAD SWAP3 SWAP5 POP PUSH1 0x1 PUSH1 0x1 PUSH1 0xA0 SHL SUB SWAP1 SWAP2 AND SWAP2 PUSH4 0x70A08231 SWAP2 PUSH1 0x24 DUP1 DUP3 ADD SWAP3 PUSH1 0x20 SWAP3 SWAP1 SWAP2 SWAP1 DUP3 SWAP1 SUB ADD DUP2 DUP7 DUP1 EXTCODESIZE ISZERO DUP1 ISZERO PUSH2 0x146A JUMPI PUSH1 0x0 DUP1 REVERT JUMPDEST POP GAS STATICCALL ISZERO DUP1 ISZERO PUSH2 0x147E JUMPI RETURNDATASIZE PUSH1 0x0 DUP1 RETURNDATACOPY RETURNDATASIZE PUSH1 0x0 REVERT JUMPDEST POP POP POP POP PUSH1 0x40 MLOAD RETURNDATASIZE PUSH1 0x20 DUP2 LT ISZERO PUSH2 0x1494 JUMPI PUSH1 0x0 DUP1 REVERT JUMPDEST POP MLOAD SWAP2 SWAP3 SWAP1 POP JUMP JUMPDEST PUSH1 0x0 DUP1 PUSH2 0x14A7 PUSH2 0x423 JUMP JUMPDEST SWAP1 POP DUP1 PUSH2 0x14B8 JUMPI PUSH1 0x0 SWAP2 POP POP PUSH2 0xCD2 JUMP JUMPDEST PUSH1 0x0 DUP1 PUSH2 0x14C3 PUSH2 0x13A0 JUMP JUMPDEST SWAP2 POP SWAP2 POP PUSH1 0x0 DUP1 PUSH8 0x16345785D8A0000 DUP5 GT DUP1 ISZERO PUSH2 0x14E8 JUMPI POP PUSH8 0x16345785D8A0000 DUP4 GT JUMPDEST ISZERO PUSH2 0x18BF JUMPI PUSH1 0x40 DUP1 MLOAD PUSH1 0x2 DUP1 DUP3 MSTORE PUSH1 0x60 DUP1 DUP4 ADD DUP5 MSTORE SWAP3 PUSH1 0x20 DUP4 ADD SWAP1 DUP1 CALLDATASIZE DUP4 CALLDATACOPY POP POP PUSH1 0x40 DUP1 MLOAD PUSH1 0x2 DUP1 DUP3 MSTORE PUSH1 0x60 DUP1 DUP4 ADD DUP5 MSTORE SWAP5 SWAP6 POP SWAP1 SWAP3 POP SWAP1 PUSH1 0x20 DUP4 ADD SWAP1 DUP1 CALLDATASIZE DUP4 CALLDATACOPY POP POP PUSH1 0x3 SLOAD DUP5 MLOAD SWAP3 SWAP4 POP PUSH1 0x1 PUSH1 0x1 PUSH1 0xA0 SHL SUB AND SWAP2 DUP5 SWAP2 POP PUSH1 0x0 SWAP1 PUSH2 0x1549 JUMPI INVALID JUMPDEST PUSH1 0x1 PUSH1 0x1 PUSH1 0xA0 SHL SUB SWAP3 DUP4 AND PUSH1 0x20 SWAP2 DUP3 MUL SWAP3 SWAP1 SWAP3 ADD ADD MSTORE PUSH1 0x1 DUP1 SLOAD DUP5 MLOAD SWAP3 AND SWAP2 DUP5 SWAP2 SWAP1 DUP2 LT PUSH2 0x1573 JUMPI INVALID JUMPDEST PUSH1 0x1 PUSH1 0x1 PUSH1 0xA0 SHL SUB SWAP3 DUP4 AND PUSH1 0x20 SWAP2 DUP3 MUL SWAP3 SWAP1 SWAP3 ADD ADD MSTORE PUSH1 0x3 SLOAD DUP3 MLOAD SWAP2 AND SWAP1 DUP3 SWAP1 PUSH1 0x0 SWAP1 PUSH2 0x159C JUMPI INVALID JUMPDEST PUSH1 0x1 PUSH1 0x1 PUSH1 0xA0 SHL SUB SWAP3 DUP4 AND PUSH1 0x20 SWAP2 DUP3 MUL SWAP3 SWAP1 SWAP3 ADD ADD MSTORE PUSH1 0x2 SLOAD DUP3 MLOAD SWAP2 AND SWAP1 DUP3 SWAP1 PUSH1 0x1 SWAP1 DUP2 LT PUSH2 0x15C7 JUMPI INVALID JUMPDEST PUSH1 0x1 PUSH1 0x1 PUSH1 0xA0 SHL SUB SWAP3 DUP4 AND PUSH1 0x20 SWAP2 DUP3 MUL SWAP3 SWAP1 SWAP3 ADD DUP2 ADD SWAP2 SWAP1 SWAP2 MSTORE PUSH1 0x9 SLOAD PUSH1 0x40 DUP1 MLOAD PUSH4 0x7C0329D PUSH1 0xE2 SHL DUP2 MSTORE PUSH1 0x4 DUP2 ADD DUP12 DUP2 MSTORE PUSH1 0x24 DUP3 ADD SWAP3 DUP4 MSTORE DUP8 MLOAD PUSH1 0x44 DUP4 ADD MSTORE DUP8 MLOAD PUSH1 0x60 SWAP7 SWAP5 SWAP1 SWAP5 AND SWAP5 PUSH4 0x1F00CA74 SWAP5 DUP14 SWAP5 DUP11 SWAP5 SWAP1 SWAP3 PUSH1 0x64 SWAP1 SWAP2 ADD SWAP2 DUP6 DUP3 ADD SWAP2 MUL DUP1 DUP4 DUP4 PUSH1 0x0 JUMPDEST DUP4 DUP2 LT ISZERO PUSH2 0x1646 JUMPI DUP2 DUP2 ADD MLOAD DUP4 DUP3 ADD MSTORE PUSH1 0x20 ADD PUSH2 0x162E JUMP JUMPDEST POP POP POP POP SWAP1 POP ADD SWAP4 POP POP POP POP PUSH1 0x0 PUSH1 0x40 MLOAD DUP1 DUP4 SUB DUP2 DUP7 DUP1 EXTCODESIZE ISZERO DUP1 ISZERO PUSH2 0x166A JUMPI PUSH1 0x0 DUP1 REVERT JUMPDEST POP GAS STATICCALL ISZERO DUP1 ISZERO PUSH2 0x167E JUMPI RETURNDATASIZE PUSH1 0x0 DUP1 RETURNDATACOPY RETURNDATASIZE PUSH1 0x0 REVERT JUMPDEST POP POP POP POP PUSH1 0x40 MLOAD RETURNDATASIZE PUSH1 0x0 DUP3 RETURNDATACOPY PUSH1 0x1F RETURNDATASIZE SWAP1 DUP2 ADD PUSH1 0x1F NOT AND DUP3 ADD PUSH1 0x40 MSTORE PUSH1 0x20 DUP2 LT ISZERO PUSH2 0x16A7 JUMPI PUSH1 0x0 DUP1 REVERT JUMPDEST DUP2 ADD SWAP1 DUP1 DUP1 MLOAD PUSH1 0x40 MLOAD SWAP4 SWAP3 SWAP2 SWAP1 DUP5 PUSH1 0x1 PUSH1 0x20 SHL DUP3 GT ISZERO PUSH2 0x16C6 JUMPI PUSH1 0x0 DUP1 REVERT JUMPDEST SWAP1 DUP4 ADD SWAP1 PUSH1 0x20 DUP3 ADD DUP6 DUP2 GT ISZERO PUSH2 0x16DB JUMPI PUSH1 0x0 DUP1 REVERT JUMPDEST DUP3 MLOAD DUP7 PUSH1 0x20 DUP3 MUL DUP4 ADD GT PUSH1 0x1 PUSH1 0x20 SHL DUP3 GT OR ISZERO PUSH2 0x16F7 JUMPI PUSH1 0x0 DUP1 REVERT JUMPDEST DUP3 MSTORE POP DUP2 MLOAD PUSH1 0x20 SWAP2 DUP3 ADD SWAP3 DUP3 ADD SWAP2 MUL DUP1 DUP4 DUP4 PUSH1 0x0 JUMPDEST DUP4 DUP2 LT ISZERO PUSH2 0x1724 JUMPI DUP2 DUP2 ADD MLOAD DUP4 DUP3 ADD MSTORE PUSH1 0x20 ADD PUSH2 0x170C JUMP JUMPDEST POP POP POP POP SWAP2 SWAP1 SWAP2 ADD PUSH1 0x40 DUP2 DUP2 MSTORE PUSH1 0x9 SLOAD PUSH4 0x7C0329D PUSH1 0xE2 SHL DUP4 MSTORE PUSH1 0x4 DUP4 ADD DUP15 DUP2 MSTORE PUSH1 0x24 DUP5 ADD SWAP3 DUP4 MSTORE DUP11 MLOAD PUSH1 0x44 DUP6 ADD MSTORE DUP11 MLOAD SWAP9 SWAP10 POP PUSH1 0x60 SWAP9 PUSH1 0x1 PUSH1 0x1 PUSH1 0xA0 SHL SUB SWAP1 SWAP3 AND SWAP8 POP PUSH4 0x1F00CA74 SWAP7 POP DUP15 SWAP6 POP DUP11 SWAP5 POP SWAP3 PUSH1 0x64 ADD SWAP1 PUSH1 0x20 DUP1 DUP7 ADD SWAP2 MUL DUP1 DUP4 DUP4 PUSH1 0x0 JUMPDEST DUP4 DUP2 LT ISZERO PUSH2 0x179F JUMPI DUP2 DUP2 ADD MLOAD DUP4 DUP3 ADD MSTORE PUSH1 0x20 ADD PUSH2 0x1787 JUMP JUMPDEST POP POP POP POP SWAP1 POP ADD SWAP4 POP POP POP POP PUSH1 0x0 PUSH1 0x40 MLOAD DUP1 DUP4 SUB DUP2 DUP7 DUP1 EXTCODESIZE ISZERO DUP1 ISZERO PUSH2 0x17C3 JUMPI PUSH1 0x0 DUP1 REVERT JUMPDEST POP GAS STATICCALL ISZERO DUP1 ISZERO PUSH2 0x17D7 JUMPI RETURNDATASIZE PUSH1 0x0 DUP1 RETURNDATACOPY RETURNDATASIZE PUSH1 0x0 REVERT JUMPDEST POP POP POP POP PUSH1 0x40 MLOAD RETURNDATASIZE PUSH1 0x0 DUP3 RETURNDATACOPY PUSH1 0x1F RETURNDATASIZE SWAP1 DUP2 ADD PUSH1 0x1F NOT AND DUP3 ADD PUSH1 0x40 MSTORE PUSH1 0x20 DUP2 LT ISZERO PUSH2 0x1800 JUMPI PUSH1 0x0 DUP1 REVERT JUMPDEST DUP2 ADD SWAP1 DUP1 DUP1 MLOAD PUSH1 0x40 MLOAD SWAP4 SWAP3 SWAP2 SWAP1 DUP5 PUSH1 0x1 PUSH1 0x20 SHL DUP3 GT ISZERO PUSH2 0x181F JUMPI PUSH1 0x0 DUP1 REVERT JUMPDEST SWAP1 DUP4 ADD SWAP1 PUSH1 0x20 DUP3 ADD DUP6 DUP2 GT ISZERO PUSH2 0x1834 JUMPI PUSH1 0x0 DUP1 REVERT JUMPDEST DUP3 MLOAD DUP7 PUSH1 0x20 DUP3 MUL DUP4 ADD GT PUSH1 0x1 PUSH1 0x20 SHL DUP3 GT OR ISZERO PUSH2 0x1850 JUMPI PUSH1 0x0 DUP1 REVERT JUMPDEST DUP3 MSTORE POP DUP2 MLOAD PUSH1 0x20 SWAP2 DUP3 ADD SWAP3 DUP3 ADD SWAP2 MUL DUP1 DUP4 DUP4 PUSH1 0x0 JUMPDEST DUP4 DUP2 LT ISZERO PUSH2 0x187D JUMPI DUP2 DUP2 ADD MLOAD DUP4 DUP3 ADD MSTORE PUSH1 0x20 ADD PUSH2 0x1865 JUMP JUMPDEST POP POP POP POP SWAP1 POP ADD PUSH1 0x40 MSTORE POP POP POP SWAP1 POP DUP2 PUSH1 0x0 DUP2 MLOAD DUP2 LT PUSH2 0x1899 JUMPI INVALID JUMPDEST PUSH1 0x20 MUL PUSH1 0x20 ADD ADD MLOAD SWAP6 POP DUP1 PUSH1 0x1 DUP2 MLOAD DUP2 LT PUSH2 0x18B0 JUMPI INVALID JUMPDEST PUSH1 0x20 MUL PUSH1 0x20 ADD ADD MLOAD SWAP5 POP POP POP POP POP JUMPDEST PUSH1 0x5 SLOAD PUSH1 0x3 SLOAD PUSH1 0x40 DUP1 MLOAD PUSH4 0x70A08231 PUSH1 0xE0 SHL DUP2 MSTORE ADDRESS PUSH1 0x4 DUP3 ADD MSTORE SWAP1 MLOAD PUSH1 0x0 SWAP4 SWAP3 PUSH1 0x1 PUSH1 0x1 PUSH1 0xA0 SHL SUB AND SWAP2 PUSH4 0x70A08231 SWAP2 PUSH1 0x24 DUP1 DUP4 ADD SWAP3 PUSH1 0x20 SWAP3 SWAP2 SWAP1 DUP3 SWAP1 SUB ADD DUP2 DUP7 DUP1 EXTCODESIZE ISZERO DUP1 ISZERO PUSH2 0x190E JUMPI PUSH1 0x0 DUP1 REVERT JUMPDEST POP GAS STATICCALL ISZERO DUP1 ISZERO PUSH2 0x1922 JUMPI RETURNDATASIZE PUSH1 0x0 DUP1 RETURNDATACOPY RETURNDATASIZE PUSH1 0x0 REVERT JUMPDEST POP POP POP POP PUSH1 0x40 MLOAD RETURNDATASIZE PUSH1 0x20 DUP2 LT ISZERO PUSH2 0x1938 JUMPI PUSH1 0x0 DUP1 REVERT JUMPDEST POP MLOAD DUP5 DUP5 ADD ADD SUB SWAP1 POP DUP6 PUSH6 0x1CAE8C13E000 DUP3 MUL DUP2 PUSH2 0x1952 JUMPI INVALID JUMPDEST DIV SWAP7 POP POP POP POP POP POP POP SWAP1 JUMP JUMPDEST PUSH2 0x1966 PUSH2 0x1EA6 JUMP JUMPDEST PUSH1 0x0 SLOAD PUSH1 0x1 PUSH1 0x1 PUSH1 0xA0 SHL SUB SWAP1 DUP2 AND SWAP2 AND EQ PUSH2 0x19B6 JUMPI PUSH1 0x40 DUP1 MLOAD PUSH3 0x461BCD PUSH1 0xE5 SHL DUP2 MSTORE PUSH1 0x20 PUSH1 0x4 DUP3 ADD DUP2 SWAP1 MSTORE PUSH1 0x24 DUP3 ADD MSTORE PUSH1 0x0 DUP1 MLOAD PUSH1 0x20 PUSH2 0x1F9C DUP4 CODECOPY DUP2 MLOAD SWAP2 MSTORE PUSH1 0x44 DUP3 ADD MSTORE SWAP1 MLOAD SWAP1 DUP2 SWAP1 SUB PUSH1 0x64 ADD SWAP1 REVERT JUMPDEST PUSH2 0x19BF DUP2 PUSH2 0x1EAA JUMP JUMPDEST POP JUMP JUMPDEST PUSH1 0x5 SLOAD PUSH1 0x3 SLOAD PUSH1 0x40 DUP1 MLOAD PUSH4 0x70A08231 PUSH1 0xE0 SHL DUP2 MSTORE ADDRESS PUSH1 0x4 DUP3 ADD MSTORE SWAP1 MLOAD PUSH1 0x0 SWAP4 DUP5 SWAP4 DUP5 SWAP4 SWAP2 SWAP3 PUSH1 0x1 PUSH1 0x1 PUSH1 0xA0 SHL SUB SWAP1 SWAP2 AND SWAP2 PUSH4 0x70A08231 SWAP2 PUSH1 0x24 DUP1 DUP4 ADD SWAP3 PUSH1 0x20 SWAP3 SWAP2 SWAP1 DUP3 SWAP1 SUB ADD DUP2 DUP7 DUP1 EXTCODESIZE ISZERO DUP1 ISZERO PUSH2 0x1A18 JUMPI PUSH1 0x0 DUP1 REVERT JUMPDEST POP GAS STATICCALL ISZERO DUP1 ISZERO PUSH2 0x1A2C JUMPI RETURNDATASIZE PUSH1 0x0 DUP1 RETURNDATACOPY RETURNDATASIZE PUSH1 0x0 REVERT JUMPDEST POP POP POP POP PUSH1 0x40 MLOAD RETURNDATASIZE PUSH1 0x20 DUP2 LT ISZERO PUSH2 0x1A42 JUMPI PUSH1 0x0 DUP1 REVERT JUMPDEST POP MLOAD PUSH1 0x2 SWAP2 SWAP1 SUB DIV SWAP4 DUP5 SWAP4 POP SWAP2 POP POP JUMP JUMPDEST DUP1 DUP3 SUB DUP3 DUP2 GT ISZERO PUSH2 0x1AA3 JUMPI PUSH1 0x40 DUP1 MLOAD PUSH3 0x461BCD PUSH1 0xE5 SHL DUP2 MSTORE PUSH1 0x20 PUSH1 0x4 DUP3 ADD MSTORE PUSH1 0x15 PUSH1 0x24 DUP3 ADD MSTORE PUSH21 0x64732D6D6174682D7375622D756E646572666C6F77 PUSH1 0x58 SHL PUSH1 0x44 DUP3 ADD MSTORE SWAP1 MLOAD SWAP1 DUP2 SWAP1 SUB PUSH1 0x64 ADD SWAP1 REVERT JUMPDEST SWAP3 SWAP2 POP POP JUMP JUMPDEST PUSH1 0x0 DUP2 ISZERO DUP1 PUSH2 0x1AC4 JUMPI POP POP DUP1 DUP3 MUL DUP3 DUP3 DUP3 DUP2 PUSH2 0x1AC1 JUMPI INVALID JUMPDEST DIV EQ JUMPDEST PUSH2 0x1AA3 JUMPI PUSH1 0x40 DUP1 MLOAD PUSH3 0x461BCD PUSH1 0xE5 SHL DUP2 MSTORE PUSH1 0x20 PUSH1 0x4 DUP3 ADD MSTORE PUSH1 0x14 PUSH1 0x24 DUP3 ADD MSTORE PUSH20 0x64732D6D6174682D6D756C2D6F766572666C6F77 PUSH1 0x60 SHL PUSH1 0x44 DUP3 ADD MSTORE SWAP1 MLOAD SWAP1 DUP2 SWAP1 SUB PUSH1 0x64 ADD SWAP1 REVERT JUMPDEST PUSH1 0x0 PUSH2 0x1B16 PUSH2 0x19C2 JUMP JUMPDEST POP SWAP1 POP PUSH8 0x8AC7230489E80000 DUP2 GT ISZERO PUSH2 0x1B31 JUMPI PUSH2 0x1B31 PUSH2 0x6FF JUMP JUMPDEST PUSH2 0x1B39 PUSH2 0x423 JUMP JUMPDEST PUSH1 0x7 SSTORE POP TIMESTAMP PUSH1 0x6 SSTORE JUMP JUMPDEST PUSH1 0x0 DUP1 DUP3 GT PUSH2 0x1B90 JUMPI PUSH1 0x40 DUP1 MLOAD PUSH3 0x461BCD PUSH1 0xE5 SHL DUP2 MSTORE PUSH1 0x20 PUSH1 0x4 DUP3 ADD MSTORE PUSH1 0x14 PUSH1 0x24 DUP3 ADD MSTORE PUSH20 0x64732D6D6174682D6D756C2D6F766572666C6F77 PUSH1 0x60 SHL PUSH1 0x44 DUP3 ADD MSTORE SWAP1 MLOAD SWAP1 DUP2 SWAP1 SUB PUSH1 0x64 ADD SWAP1 REVERT JUMPDEST DUP2 DUP4 DUP2 PUSH2 0x1B99 JUMPI INVALID JUMPDEST DIV SWAP4 SWAP3 POP POP POP JUMP JUMPDEST PUSH1 0x40 DUP1 MLOAD PUSH1 0x2 DUP1 DUP3 MSTORE PUSH1 0x60 DUP1 DUP4 ADD DUP5 MSTORE SWAP3 PUSH1 0x20 DUP4 ADD SWAP1 DUP1 CALLDATASIZE DUP4 CALLDATACOPY POP POP PUSH1 0x40 DUP1 MLOAD PUSH1 0x2 DUP1 DUP3 MSTORE PUSH1 0x60 DUP1 DUP4 ADD DUP5 MSTORE SWAP5 SWAP6 POP SWAP1 SWAP3 POP SWAP1 PUSH1 0x20 DUP4 ADD SWAP1 DUP1 CALLDATASIZE DUP4 CALLDATACOPY POP POP PUSH1 0x3 SLOAD DUP5 MLOAD SWAP3 SWAP4 POP PUSH1 0x1 PUSH1 0x1 PUSH1 0xA0 SHL SUB AND SWAP2 DUP5 SWAP2 POP PUSH1 0x0 SWAP1 PUSH2 0x1BFD JUMPI INVALID JUMPDEST PUSH1 0x1 PUSH1 0x1 PUSH1 0xA0 SHL SUB SWAP3 DUP4 AND PUSH1 0x20 SWAP2 DUP3 MUL SWAP3 SWAP1 SWAP3 ADD ADD MSTORE PUSH1 0x1 DUP1 SLOAD DUP5 MLOAD SWAP3 AND SWAP2 DUP5 SWAP2 SWAP1 DUP2 LT PUSH2 0x1C27 JUMPI INVALID JUMPDEST PUSH1 0x1 PUSH1 0x1 PUSH1 0xA0 SHL SUB SWAP3 DUP4 AND PUSH1 0x20 SWAP2 DUP3 MUL SWAP3 SWAP1 SWAP3 ADD ADD MSTORE PUSH1 0x3 SLOAD DUP3 MLOAD SWAP2 AND SWAP1 DUP3 SWAP1 PUSH1 0x0 SWAP1 PUSH2 0x1C50 JUMPI INVALID JUMPDEST PUSH1 0x1 PUSH1 0x1 PUSH1 0xA0 SHL SUB SWAP3 DUP4 AND PUSH1 0x20 SWAP2 DUP3 MUL SWAP3 SWAP1 SWAP3 ADD ADD MSTORE PUSH1 0x2 SLOAD DUP3 MLOAD SWAP2 AND SWAP1 DUP3 SWAP1 PUSH1 0x1 SWAP1 DUP2 LT PUSH2 0x1C7B JUMPI INVALID JUMPDEST PUSH1 0x1 PUSH1 0x1 PUSH1 0xA0 SHL SUB SWAP3 DUP4 AND PUSH1 0x20 SWAP2 DUP3 MUL SWAP3 SWAP1 SWAP3 ADD DUP2 ADD SWAP2 SWAP1 SWAP2 MSTORE PUSH1 0x3 SLOAD PUSH1 0x9 SLOAD PUSH1 0x40 DUP1 MLOAD PUSH4 0x95EA7B3 PUSH1 0xE0 SHL DUP2 MSTORE SWAP2 DUP6 AND PUSH1 0x4 DUP4 ADD MSTORE DUP9 DUP9 ADD PUSH1 0x24 DUP4 ADD MSTORE MLOAD SWAP2 SWAP1 SWAP4 AND SWAP3 PUSH4 0x95EA7B3 SWAP3 PUSH1 0x44 DUP1 DUP4 ADD SWAP4 SWAP2 SWAP3 DUP3 SWAP1 SUB ADD DUP2 PUSH1 0x0 DUP8 DUP1 EXTCODESIZE ISZERO DUP1 ISZERO PUSH2 0x1CE3 JUMPI PUSH1 0x0 DUP1 REVERT JUMPDEST POP GAS CALL ISZERO DUP1 ISZERO PUSH2 0x1CF7 JUMPI RETURNDATASIZE PUSH1 0x0 DUP1 RETURNDATACOPY RETURNDATASIZE PUSH1 0x0 REVERT JUMPDEST POP POP POP POP PUSH1 0x40 MLOAD RETURNDATASIZE PUSH1 0x20 DUP2 LT ISZERO PUSH2 0x1D0D JUMPI PUSH1 0x0 DUP1 REVERT JUMPDEST POP POP PUSH1 0x9 SLOAD PUSH1 0x40 MLOAD PUSH4 0x5C11D795 PUSH1 0xE0 SHL DUP2 MSTORE PUSH1 0x4 DUP2 ADD DUP7 DUP2 MSTORE PUSH1 0x0 PUSH1 0x24 DUP4 ADD DUP2 SWAP1 MSTORE ADDRESS PUSH1 0x64 DUP5 ADD DUP2 SWAP1 MSTORE TIMESTAMP PUSH1 0x84 DUP6 ADD DUP2 SWAP1 MSTORE PUSH1 0xA0 PUSH1 0x44 DUP7 ADD SWAP1 DUP2 MSTORE DUP9 MLOAD PUSH1 0xA4 DUP8 ADD MSTORE DUP9 MLOAD PUSH1 0x1 PUSH1 0x1 PUSH1 0xA0 SHL SUB SWAP1 SWAP8 AND SWAP7 PUSH4 0x5C11D795 SWAP7 DUP13 SWAP7 DUP12 SWAP6 SWAP5 SWAP4 SWAP1 SWAP3 SWAP1 SWAP2 PUSH1 0xC4 ADD SWAP1 PUSH1 0x20 DUP8 DUP2 ADD SWAP2 MUL DUP1 DUP4 DUP4 DUP12 JUMPDEST DUP4 DUP2 LT ISZERO PUSH2 0x1D95 JUMPI DUP2 DUP2 ADD MLOAD DUP4 DUP3 ADD MSTORE PUSH1 0x20 ADD PUSH2 0x1D7D JUMP JUMPDEST POP POP POP POP SWAP1 POP ADD SWAP7 POP POP POP POP POP POP POP PUSH1 0x0 PUSH1 0x40 MLOAD DUP1 DUP4 SUB DUP2 PUSH1 0x0 DUP8 DUP1 EXTCODESIZE ISZERO DUP1 ISZERO PUSH2 0x1DBE JUMPI PUSH1 0x0 DUP1 REVERT JUMPDEST POP GAS CALL ISZERO DUP1 ISZERO PUSH2 0x1DD2 JUMPI RETURNDATASIZE PUSH1 0x0 DUP1 RETURNDATACOPY RETURNDATASIZE PUSH1 0x0 REVERT JUMPDEST POP POP PUSH1 0x9 SLOAD PUSH1 0x40 MLOAD PUSH4 0x5C11D795 PUSH1 0xE0 SHL DUP2 MSTORE PUSH1 0x4 DUP2 ADD DUP8 DUP2 MSTORE PUSH1 0x0 PUSH1 0x24 DUP4 ADD DUP2 SWAP1 MSTORE ADDRESS PUSH1 0x64 DUP5 ADD DUP2 SWAP1 MSTORE TIMESTAMP PUSH1 0x84 DUP6 ADD DUP2 SWAP1 MSTORE PUSH1 0xA0 PUSH1 0x44 DUP7 ADD SWAP1 DUP2 MSTORE DUP10 MLOAD PUSH1 0xA4 DUP8 ADD MSTORE DUP10 MLOAD PUSH1 0x1 PUSH1 0x1 PUSH1 0xA0 SHL SUB SWAP1 SWAP8 AND SWAP9 POP PUSH4 0x5C11D795 SWAP8 POP DUP12 SWAP7 SWAP4 SWAP6 DUP11 SWAP6 SWAP4 SWAP5 SWAP3 SWAP4 SWAP3 PUSH1 0xC4 SWAP1 SWAP2 ADD SWAP1 PUSH1 0x20 DUP1 DUP9 ADD SWAP2 MUL DUP1 DUP4 DUP4 DUP12 JUMPDEST DUP4 DUP2 LT ISZERO PUSH2 0x1E5F JUMPI DUP2 DUP2 ADD MLOAD DUP4 DUP3 ADD MSTORE PUSH1 0x20 ADD PUSH2 0x1E47 JUMP JUMPDEST POP POP POP POP SWAP1 POP ADD SWAP7 POP POP POP POP POP POP POP PUSH1 0x0 PUSH1 0x40 MLOAD DUP1 DUP4 SUB DUP2 PUSH1 0x0 DUP8 DUP1 EXTCODESIZE ISZERO DUP1 ISZERO PUSH2 0x1E88 JUMPI PUSH1 0x0 DUP1 REVERT JUMPDEST POP GAS CALL ISZERO DUP1 ISZERO PUSH2 0x1E9C JUMPI RETURNDATASIZE PUSH1 0x0 DUP1 RETURNDATACOPY RETURNDATASIZE PUSH1 0x0 REVERT JUMPDEST POP POP POP POP POP POP POP POP JUMP JUMPDEST CALLER SWAP1 JUMP JUMPDEST PUSH1 0x1 PUSH1 0x1 PUSH1 0xA0 SHL SUB DUP2 AND PUSH2 0x1EEF JUMPI PUSH1 0x40 MLOAD PUSH3 0x461BCD PUSH1 0xE5 SHL DUP2 MSTORE PUSH1 0x4 ADD DUP1 DUP1 PUSH1 0x20 ADD DUP3 DUP2 SUB DUP3 MSTORE PUSH1 0x26 DUP2 MSTORE PUSH1 0x20 ADD DUP1 PUSH2 0x1F76 PUSH1 0x26 SWAP2 CODECOPY PUSH1 0x40 ADD SWAP2 POP POP PUSH1 0x40 MLOAD DUP1 SWAP2 SUB SWAP1 REVERT JUMPDEST PUSH1 0x0 DUP1 SLOAD PUSH1 0x40 MLOAD PUSH1 0x1 PUSH1 0x1 PUSH1 0xA0 SHL SUB DUP1 DUP6 AND SWAP4 SWAP3 AND SWAP2 PUSH1 0x0 DUP1 MLOAD PUSH1 0x20 PUSH2 0x1FBC DUP4 CODECOPY DUP2 MLOAD SWAP2 MSTORE SWAP2 LOG3 PUSH1 0x0 DUP1 SLOAD PUSH1 0x1 PUSH1 0x1 PUSH1 0xA0 SHL SUB NOT AND PUSH1 0x1 PUSH1 0x1 PUSH1 0xA0 SHL SUB SWAP3 SWAP1 SWAP3 AND SWAP2 SWAP1 SWAP2 OR SWAP1 SSTORE JUMP JUMPDEST PUSH1 0x40 MLOAD DUP1 PUSH1 0xE0 ADD PUSH1 0x40 MSTORE DUP1 PUSH1 0x0 DUP2 MSTORE PUSH1 0x20 ADD PUSH1 0x0 DUP2 MSTORE PUSH1 0x20 ADD PUSH1 0x0 DUP2 MSTORE PUSH1 0x20 ADD PUSH1 0x0 DUP2 MSTORE PUSH1 0x20 ADD PUSH1 0x0 DUP2 MSTORE PUSH1 0x20 ADD PUSH1 0x0 DUP2 MSTORE PUSH1 0x20 ADD PUSH1 0x0 DUP2 MSTORE POP SWAP1 JUMP INVALID 0x4F PUSH24 0x6E61626C653A206E6577206F776E65722069732074686520 PUSH27 0x65726F20616464726573734F776E61626C653A2063616C6C657220 PUSH10 0x73206E6F742074686520 PUSH16 0x776E65728BE0079C531659141344CD1F 0xD0 LOG4 CALLCODE DUP5 NOT 0x49 PUSH32 0x9722A3DAAFE3B4186F6B6457E0A264697066735822122036C337B0441147134A CREATE PUSH16 0x9A4A2255528B7DC148C00F82D0EDB90F PUSH5 0x4F7C7BA664 PUSH20 0x6F6C634300060C00330000000000000000000000 "
        },
        "gasEstimates": {
          "creation": {
            "codeDepositCost": "1641800",
            "executionCost": "infinite",
            "totalCost": "infinite"
          },
          "external": {
            "APY()": "infinite",
            "PancakeSwapRouter()": "1125",
            "checkReward(address)": "infinite",
            "claimRewards()": "infinite",
            "countFee(address)": "1627",
            "countReward(address)": "infinite",
            "countStake(address)": "infinite",
            "countTotalReward()": "infinite",
            "countTotalStake()": "infinite",
            "getRewardableAmount()": "infinite",
            "getStakeInfo(address)": "infinite",
            "lastUpdateTime()": "1438",
            "marketingAddress()": "1345",
            "owner()": "1302",
            "renounceOwnership()": "infinite",
            "rewardTokenAddress_1()": "1037",
            "rewardTokenAddress_2()": "1059",
            "setInitialAddresses(address,address)": "infinite",
            "stake(uint256,address)": "infinite",
            "stakeTokenAddress()": "1015",
            "stakerNum()": "1174",
            "stakers(address)": "6420",
            "swapTokenForReward()": "infinite",
            "totalStake()": "1240",
            "totalStakingAmount()": "1460",
            "transferOwnership(address)": "infinite",
            "unstaking()": "infinite"
          },
          "internal": {
            "swapTokensForRewardToken(uint256,uint256)": "infinite",
            "updateTotalStake()": "infinite"
          }
        },
        "methodIdentifiers": {
          "APY()": "ef8bd305",
          "PancakeSwapRouter()": "421ea58b",
          "checkReward(address)": "c3c90e64",
          "claimRewards()": "372500ab",
          "countFee(address)": "b083692d",
          "countReward(address)": "56714be3",
          "countStake(address)": "b87089d9",
          "countTotalReward()": "e7caa8c4",
          "countTotalStake()": "2461da55",
          "getRewardableAmount()": "f4eb4a59",
          "getStakeInfo(address)": "c3453153",
          "lastUpdateTime()": "c8f33c91",
          "marketingAddress()": "a5ece941",
          "owner()": "8da5cb5b",
          "renounceOwnership()": "715018a6",
          "rewardTokenAddress_1()": "01c15475",
          "rewardTokenAddress_2()": "0a84bf3e",
          "setInitialAddresses(address,address)": "a9686e3c",
          "stake(uint256,address)": "7acb7757",
          "stakeTokenAddress()": "0106395f",
          "stakerNum()": "63c138b3",
          "stakers(address)": "9168ae72",
          "swapTokenForReward()": "5f920bba",
          "totalStake()": "8b0e9f3f",
          "totalStakingAmount()": "d201114a",
          "transferOwnership(address)": "f2fde38b",
          "unstaking()": "630b1146"
        }
      },
      "storageLayout": {
        "storage": [
          {
            "astId": 2438,
            "contract": "contracts/libs/staking.sol:Staking",
            "label": "_owner",
            "offset": 0,
            "slot": "0",
            "type": "t_address"
          },
          {
            "astId": 2782,
            "contract": "contracts/libs/staking.sol:Staking",
            "label": "rewardTokenAddress_1",
            "offset": 0,
            "slot": "1",
            "type": "t_address"
          },
          {
            "astId": 2784,
            "contract": "contracts/libs/staking.sol:Staking",
            "label": "rewardTokenAddress_2",
            "offset": 0,
            "slot": "2",
            "type": "t_address"
          },
          {
            "astId": 2786,
            "contract": "contracts/libs/staking.sol:Staking",
            "label": "stakeTokenAddress",
            "offset": 0,
            "slot": "3",
            "type": "t_address"
          },
          {
            "astId": 2788,
            "contract": "contracts/libs/staking.sol:Staking",
            "label": "marketingAddress",
            "offset": 0,
            "slot": "4",
            "type": "t_address"
          },
          {
            "astId": 2790,
            "contract": "contracts/libs/staking.sol:Staking",
            "label": "totalStakingAmount",
            "offset": 0,
            "slot": "5",
            "type": "t_uint256"
          },
          {
            "astId": 2792,
            "contract": "contracts/libs/staking.sol:Staking",
            "label": "lastUpdateTime",
            "offset": 0,
            "slot": "6",
            "type": "t_uint256"
          },
          {
            "astId": 2794,
            "contract": "contracts/libs/staking.sol:Staking",
            "label": "totalStake",
            "offset": 0,
            "slot": "7",
            "type": "t_uint256"
          },
          {
            "astId": 2796,
            "contract": "contracts/libs/staking.sol:Staking",
            "label": "stakerNum",
            "offset": 0,
            "slot": "8",
            "type": "t_uint256"
          },
          {
            "astId": 2798,
            "contract": "contracts/libs/staking.sol:Staking",
            "label": "PancakeSwapRouter",
            "offset": 0,
            "slot": "9",
            "type": "t_contract(IPancakeSwapRouter)690"
          },
          {
            "astId": 2802,
            "contract": "contracts/libs/staking.sol:Staking",
            "label": "stakers",
            "offset": 0,
            "slot": "10",
            "type": "t_mapping(t_address,t_struct(Staker)2780_storage)"
          }
        ],
        "types": {
          "t_address": {
            "encoding": "inplace",
            "label": "address",
            "numberOfBytes": "20"
          },
          "t_contract(IPancakeSwapRouter)690": {
            "encoding": "inplace",
            "label": "contract IPancakeSwapRouter",
            "numberOfBytes": "20"
          },
          "t_mapping(t_address,t_struct(Staker)2780_storage)": {
            "encoding": "mapping",
            "key": "t_address",
            "label": "mapping(address => struct Staking.Staker)",
            "numberOfBytes": "32",
            "value": "t_struct(Staker)2780_storage"
          },
          "t_struct(Staker)2780_storage": {
            "encoding": "inplace",
            "label": "struct Staking.Staker",
            "members": [
              {
                "astId": 2767,
                "contract": "contracts/libs/staking.sol:Staking",
                "label": "referal",
                "offset": 0,
                "slot": "0",
                "type": "t_uint256"
              },
              {
                "astId": 2769,
                "contract": "contracts/libs/staking.sol:Staking",
                "label": "stakingAmount",
                "offset": 0,
                "slot": "1",
                "type": "t_uint256"
              },
              {
                "astId": 2771,
                "contract": "contracts/libs/staking.sol:Staking",
                "label": "lastUpdateTime",
                "offset": 0,
                "slot": "2",
                "type": "t_uint256"
              },
              {
                "astId": 2773,
                "contract": "contracts/libs/staking.sol:Staking",
                "label": "lastStakeUpdateTime",
                "offset": 0,
                "slot": "3",
                "type": "t_uint256"
              },
              {
                "astId": 2775,
                "contract": "contracts/libs/staking.sol:Staking",
                "label": "stake",
                "offset": 0,
                "slot": "4",
                "type": "t_uint256"
              },
              {
                "astId": 2777,
                "contract": "contracts/libs/staking.sol:Staking",
                "label": "rewards_1",
                "offset": 0,
                "slot": "5",
                "type": "t_uint256"
              },
              {
                "astId": 2779,
                "contract": "contracts/libs/staking.sol:Staking",
                "label": "rewards_2",
                "offset": 0,
                "slot": "6",
                "type": "t_uint256"
              }
            ],
            "numberOfBytes": "224"
          },
          "t_uint256": {
            "encoding": "inplace",
            "label": "uint256",
            "numberOfBytes": "32"
          }
        }
      },
      "userdoc": {
        "kind": "user",
        "methods": {},
        "version": 1
      }
    }
  }
}