{
  "_format": "hh-sol-artifact-1",
  "contractName": "PancakeSwapFactory",
  "sourceName": "contracts/libs/dexfactory.sol",
  "abi": [
    {
      "inputs": [
        {
          "internalType": "address",
          "name": "feeToSetterAddress",
          "type": "address"
        }
      ],
      "stateMutability": "nonpayable",
      "type": "constructor"
    },
    {
      "anonymous": false,
      "inputs": [
        {
          "indexed": true,
          "internalType": "address",
          "name": "token0",
          "type": "address"
        },
        {
          "indexed": true,
          "internalType": "address",
          "name": "token1",
          "type": "address"
        },
        {
          "indexed": false,
          "internalType": "address",
          "name": "pair",
          "type": "address"
        },
        {
          "indexed": false,
          "internalType": "uint256",
          "name": "",
          "type": "uint256"
        }
      ],
      "name": "PairCreated",
      "type": "event"
    },
    {
      "inputs": [],
      "name": "INIT_CODE_PAIR_HASH",
      "outputs": [
        {
          "internalType": "bytes32",
          "name": "",
          "type": "bytes32"
        }
      ],
      "stateMutability": "view",
      "type": "function"
    },
    {
      "inputs": [
        {
          "internalType": "uint256",
          "name": "",
          "type": "uint256"
        }
      ],
      "name": "_allPairs",
      "outputs": [
        {
          "internalType": "address",
          "name": "",
          "type": "address"
        }
      ],
      "stateMutability": "view",
      "type": "function"
    },
    {
      "inputs": [],
      "name": "_feeTo",
      "outputs": [
        {
          "internalType": "address",
          "name": "",
          "type": "address"
        }
      ],
      "stateMutability": "view",
      "type": "function"
    },
    {
      "inputs": [],
      "name": "_feeToSetter",
      "outputs": [
        {
          "internalType": "address",
          "name": "",
          "type": "address"
        }
      ],
      "stateMutability": "view",
      "type": "function"
    },
    {
      "inputs": [
        {
          "internalType": "address",
          "name": "",
          "type": "address"
        },
        {
          "internalType": "address",
          "name": "",
          "type": "address"
        }
      ],
      "name": "_getPair",
      "outputs": [
        {
          "internalType": "address",
          "name": "",
          "type": "address"
        }
      ],
      "stateMutability": "view",
      "type": "function"
    },
    {
      "inputs": [],
      "name": "allPairs",
      "outputs": [
        {
          "internalType": "address[]",
          "name": "",
          "type": "address[]"
        }
      ],
      "stateMutability": "view",
      "type": "function"
    },
    {
      "inputs": [],
      "name": "allPairsLength",
      "outputs": [
        {
          "internalType": "uint256",
          "name": "",
          "type": "uint256"
        }
      ],
      "stateMutability": "view",
      "type": "function"
    },
    {
      "inputs": [
        {
          "internalType": "address",
          "name": "tokenA",
          "type": "address"
        },
        {
          "internalType": "address",
          "name": "tokenB",
          "type": "address"
        }
      ],
      "name": "createPair",
      "outputs": [
        {
          "internalType": "address",
          "name": "pair",
          "type": "address"
        }
      ],
      "stateMutability": "nonpayable",
      "type": "function"
    },
    {
      "inputs": [],
      "name": "feeTo",
      "outputs": [
        {
          "internalType": "address",
          "name": "",
          "type": "address"
        }
      ],
      "stateMutability": "view",
      "type": "function"
    },
    {
      "inputs": [],
      "name": "feeToSetter",
      "outputs": [
        {
          "internalType": "address",
          "name": "",
          "type": "address"
        }
      ],
      "stateMutability": "view",
      "type": "function"
    },
    {
      "inputs": [
        {
          "internalType": "address",
          "name": "tokenA",
          "type": "address"
        },
        {
          "internalType": "address",
          "name": "tokenB",
          "type": "address"
        }
      ],
      "name": "getPair",
      "outputs": [
        {
          "internalType": "address",
          "name": "",
          "type": "address"
        }
      ],
      "stateMutability": "view",
      "type": "function"
    },
    {
      "inputs": [],
      "name": "init_code_pair_hash",
      "outputs": [
        {
          "internalType": "bytes32",
          "name": "",
          "type": "bytes32"
        }
      ],
      "stateMutability": "pure",
      "type": "function"
    },
    {
      "inputs": [
        {
          "internalType": "address",
          "name": "feeAddress",
          "type": "address"
        }
      ],
      "name": "setFeeTo",
      "outputs": [],
      "stateMutability": "nonpayable",
      "type": "function"
    },
    {
      "inputs": [
        {
          "internalType": "address",
          "name": "feeToSetterAddress",
          "type": "address"
        }
      ],
      "name": "setFeeToSetter",
      "outputs": [],
      "stateMutability": "nonpayable",
      "type": "function"
    }
  ],
  "bytecode": "0x608060405234801561001057600080fd5b5060405161308138038061308183398101604081905261002f91610054565b600180546001600160a01b0319166001600160a01b0392909216919091179055610084565b60006020828403121561006657600080fd5b81516001600160a01b038116811461007d57600080fd5b9392505050565b612fee806100936000396000f3fe60806040523480156200001157600080fd5b5060043610620000ca5760003560e01c8063017e7e5814620000cf578063094b741514620000f9578063574f2ba3146200010b5780635855a25a146200011e5780635d114dcc146200012857806390c833f4146200013c57806397ed0a7c1462000173578063a2e74af6146200018a578063c97682f814620001a3578063c9c6539614620001bc578063e6a4390514620001d3578063e8ecb23e146200020e578063ef8e510b1462000218578063f46901ed146200022c575b600080fd5b6000546001600160a01b03165b6040516001600160a01b0390911681526020015b60405180910390f35b6001546001600160a01b0316620000dc565b6003545b604051908152602001620000f0565b6200010f62000243565b600054620000dc906001600160a01b031681565b620000dc6200014d36600462000749565b60026020908152600092835260408084209091529082529020546001600160a01b031681565b620000dc6200018436600462000781565b62000291565b620001a16200019b3660046200079b565b620002bc565b005b620001ad62000314565b604051620000f09190620007c0565b620000dc620001cd36600462000749565b62000378565b620000dc620001e436600462000749565b6001600160a01b039182166000908152600260209081526040808320938516835292905220541690565b6200010f6200067c565b600154620000dc906001600160a01b031681565b620001a16200023d3660046200079b565b620006cf565b60405162000254602082016200071e565b601f1982820381018352601f9091011660408190526200027891906020016200080f565b6040516020818303038152906040528051906020012081565b60038181548110620002a257600080fd5b6000918252602090912001546001600160a01b0316905081565b6001546001600160a01b03163314620002f25760405162461bcd60e51b8152600401620002e9906200084d565b60405180910390fd5b600180546001600160a01b0319166001600160a01b0392909216919091179055565b606060038054806020026020016040519081016040528092919081815260200182805480156200036e57602002820191906000526020600020905b81546001600160a01b031681526001909101906020018083116200034f575b5050505050905090565b6000816001600160a01b0316836001600160a01b03161415620003de5760405162461bcd60e51b815260206004820181905260248201527f50616e63616b65537761703a204944454e544943414c5f4144445245535345536044820152606401620002e9565b600080836001600160a01b0316856001600160a01b0316106200040357838562000406565b84845b90925090506001600160a01b0382166200045f5760405162461bcd60e51b815260206004820152601960248201527850616e63616b65537761703a205a45524f5f4144445245535360381b6044820152606401620002e9565b6001600160a01b03828116600090815260026020908152604080832085851684529091529020541615620004d15760405162461bcd60e51b815260206004820152601860248201527750616e63616b65537761703a20504149525f45584953545360401b6044820152606401620002e9565b600060405180602001620004e5906200071e565b601f1982820381018352601f9091011660408190526001600160601b0319606086811b8216602084015285901b166034820152909150600090604801604051602081830303815290604052805190602001209050808251602084016000f560405163485cc95560e01b81526001600160a01b03868116600483015285811660248301529196509086169063485cc95590604401600060405180830381600087803b1580156200059357600080fd5b505af1158015620005a8573d6000803e3d6000fd5b505050506001600160a01b0384811660008181526002602081815260408084208987168086529083528185208054978d166001600160a01b031998891681179091559383528185208686528352818520805488168517905560038054600181018255958190527fc2575a0e9e593c00f959f8c92f12db2869c3395a3b0502d05e2516446f71f85b9095018054909716841790965592548351928352908201527f0d3648bd0f6ba80134a33ba9275ac585d9d315f0ad8355cddefde31afa28d0e9910160405180910390a35050505092915050565b60006040518060200162000690906200071e565b601f1982820381018352601f909101166040819052620006b491906020016200080f565b60405160208183030381529060405280519060200120905090565b6000546001600160a01b03163314620006fc5760405162461bcd60e51b8152600401620002e9906200084d565b600080546001600160a01b0319166001600160a01b0392909216919091179055565b61273b806200087e83390190565b80356001600160a01b03811681146200074457600080fd5b919050565b600080604083850312156200075d57600080fd5b62000768836200072c565b915062000778602084016200072c565b90509250929050565b6000602082840312156200079457600080fd5b5035919050565b600060208284031215620007ae57600080fd5b620007b9826200072c565b9392505050565b6020808252825182820181905260009190848201906040850190845b81811015620008035783516001600160a01b031683529284019291840191600101620007dc565b50909695505050505050565b6000825160005b8181101562000832576020818601810151858301520162000816565b8181111562000842576000828501525b509190910192915050565b6020808252601690820152752830b731b0b5b2a9bbb0b81d102327a92124a22222a760511b60408201526060019056fe60c0604052600c60808190526b02830b731b0b5b2a9bbb0b8160a51b60a09081526200002f916000919062000174565b5060408051808201909152600a80825269050616e63616b652d4c560b41b6020909201918252620000639160019162000174565b506002805460ff191660121790557f6e71edae12b1b97f4d1f60370fef10105fa2faae0126114a169c64845d6126c96007556001601055348015620000a757600080fd5b5060405146907f8b73c3c69bb8fe3d512ecc4cf759cc79239f7b179b0ffacaa9a75d522b39400f90620000dd9060009062000257565b60408051918290038220828201825260018352603160f81b6020938401528151928301939093528101919091527fc89efdaa54c0f20c7adf612882df0950f5a951637e0307cdcb4c672f298b8bc66060820152608081018290523060a082015260c00160408051601f19818403018152919052805160209091012060065550600980546001600160a01b03191633179055620002fb565b82805462000182906200021a565b90600052602060002090601f016020900481019282620001a65760008555620001f1565b82601f10620001c157805160ff1916838001178555620001f1565b82800160010185558215620001f1579182015b82811115620001f1578251825591602001919060010190620001d4565b50620001ff92915062000203565b5090565b5b80821115620001ff576000815560010162000204565b600181811c908216806200022f57607f821691505b602082108114156200025157634e487b7160e01b600052602260045260246000fd5b50919050565b600080835481600182811c9150808316806200027457607f831692505b60208084108214156200029557634e487b7160e01b86526022600452602486fd5b818015620002ac5760018114620002be57620002ed565b60ff19861689528489019650620002ed565b60008a81526020902060005b86811015620002e55781548b820152908501908301620002ca565b505084890196505b509498975050505050505050565b612430806200030b6000396000f3fe608060405234801561001057600080fd5b50600436106101c25760003560e01c8063022c0d9f146101c7578063053c238d146101dc57806306fdde03146102525780630902f1ac14610281578063095ea7b3146102b55780630dfe1681146102d857806318160ddd146102f257806323b872dd1461030457806330adf81f14610317578063313ce5671461033d57806332424aa3146103525780633644e5151461035f5780633eaaf86b14610367578063485cc95514610370578063496b35b9146103835780634ef4ebaf146103965780635909c0d5146103a95780635a3d5493146103b15780636a627842146103b95780636f642e7f146103cc57806370a08231146103d55780637464fc3d146103fe5780637ecebe001461040657806389afcb441461042f57806395d89b4114610457578063a9059cbb1461047c578063b09f12661461048f578063ba9a7a5614610497578063bc25cf77146104a0578063c45a0155146104b3578063c5cc6b6a146104c4578063d21220a7146104d7578063d28d8852146104e8578063d505accf146104f0578063dd62ed3e14610503578063e6a987c61461053c578063e78f81ea14610545578063fff6cae91461054e575b600080fd5b6101da6101d5366004611f1b565b610556565b005b6040805180820190915260198152787472616e7366657228616464726573732c75696e743235362960381b6020909101526102347fa9059cbb2ab09eb219583f4a59a5d0623ade346d962bcd4e46b11da047c9049b81565b6040516001600160e01b031990911681526020015b60405180910390f35b60408051808201909152600a815269050616e63616b65204c560b41b60208201525b6040516102499190611fe0565b610289610a5f565b604080516001600160701b03948516815293909216602084015263ffffffff1690820152606001610249565b6102c86102c3366004612013565b610a89565b6040519015158152602001610249565b600a546001600160a01b03165b604051610249919061203f565b6003545b604051908152602001610249565b6102c8610312366004612053565b610aa0565b7f6e71edae12b1b97f4d1f60370fef10105fa2faae0126114a169c64845d6126c96102f6565b60125b60405160ff9091168152602001610249565b6002546103409060ff1681565b6006546102f6565b6102f660035481565b6101da61037e366004612094565b610b3f565b600b546102e5906001600160a01b031681565b600a546102e5906001600160a01b031681565b600d546102f6565b600e546102f6565b6102f66103c73660046120cd565b610bc0565b6102f6600e5481565b6102f66103e33660046120cd565b6001600160a01b031660009081526004602052604090205490565b600f546102f6565b6102f66104143660046120cd565b6001600160a01b031660009081526008602052604090205490565b61044261043d3660046120cd565b610e7f565b60408051928352602083019190915201610249565b60408051808201909152600981526813140814de5b589bdb60ba1b6020820152610274565b6102c861048a366004612013565b6111e7565b6102746111f4565b6102f66103e881565b6101da6104ae3660046120cd565b611282565b6009546001600160a01b03166102e5565b6009546102e5906001600160a01b031681565b600b546001600160a01b03166102e5565b6102746113a0565b6101da6104fe3660046120ea565b6113ad565b6102f6610511366004612094565b6001600160a01b03918216600090815260056020908152604080832093909416825291909152205490565b6102f6600f5481565b6102f6600d5481565b6101da6115a4565b6010546001146105815760405162461bcd60e51b815260040161057890612161565b60405180910390fd5b6000601055841515806105945750600084115b6105f05760405162461bcd60e51b815260206004820152602760248201527f50616e63616b65537761703a20494e53554646494349454e545f4f555450555460448201526617d05353d5539560ca1b6064820152608401610578565b6000806105fb610a5f565b5091509150816001600160701b0316871080156106205750806001600160701b031686105b6106665760405162461bcd60e51b815260206004820152602360248201526000805160206123bb83398151915260448201526249545960e81b6064820152608401610578565b600a54600b5460009182916001600160a01b039182169190811690891682148015906106a45750806001600160a01b0316896001600160a01b031614155b6106ea5760405162461bcd60e51b815260206004820152601760248201527650616e63616b65537761703a20494e56414c49445f544f60481b6044820152606401610578565b8a156106fb576106fb828a8d6116d2565b891561070c5761070c818a8c6116d2565b861561077957604051636d7e4f1360e01b81526001600160a01b038a1690636d7e4f13906107469033908f908f908e908e9060040161218e565b600060405180830381600087803b15801561076057600080fd5b505af1158015610774573d6000803e3d6000fd5b505050505b6040516370a0823160e01b81526001600160a01b038316906370a08231906107a590309060040161203f565b602060405180830381865afa1580156107c2573d6000803e3d6000fd5b505050506040513d601f19601f820116820180604052508101906107e691906121da565b6040516370a0823160e01b81529094506001600160a01b038216906370a082319061081590309060040161203f565b602060405180830381865afa158015610832573d6000803e3d6000fd5b505050506040513d601f19601f8201168201806040525081019061085691906121da565b92505050600089856001600160701b03166108719190612209565b831161087e57600061089b565b6108918a6001600160701b038716612209565b61089b9084612209565b905060006108b28a6001600160701b038716612209565b83116108bf5760006108dc565b6108d28a6001600160701b038716612209565b6108dc9084612209565b905060008211806108ed5750600081115b6109485760405162461bcd60e51b815260206004820152602660248201527f50616e63616b65537761703a20494e53554646494349454e545f494e5055545f604482015265105353d5539560d21b6064820152608401610578565b600061096a610958846003611825565b610964876103e8611825565b9061188c565b9050600061097c610958846003611825565b90506109a1620f424061099b6001600160701b038b8116908b16611825565b90611825565b6109ab8383611825565b10156109ea5760405162461bcd60e51b815260206004820152600e60248201526d50616e63616b65537761703a204b60901b6044820152606401610578565b50506109f8848488886118e2565b60408051838152602081018390529081018c9052606081018b90526001600160a01b038a169033907fd78ad95fa46c994b6551d0da85fc275fe613ce37657fb8d5e3d130840159d8229060800160405180910390a350506001601055505050505050505050565b600c546001600160701b0380821692600160701b830490911691600160e01b900463ffffffff1690565b6000610a96338484611acf565b5060015b92915050565b6001600160a01b03831660009081526005602090815260408083203384529091528120548190610ad1908490612209565b1115610b2a576001600160a01b0384166000908152600560209081526040808320338452909152902054610b05908361188c565b6001600160a01b03851660009081526005602090815260408083203384529091529020555b610b35848484611b31565b5060019392505050565b6009546001600160a01b03163314610b925760405162461bcd60e51b81526020600482015260166024820152752830b731b0b5b2a9bbb0b81d102327a92124a22222a760511b6044820152606401610578565b600a80546001600160a01b039384166001600160a01b031991821617909155600b8054929093169116179055565b6000601054600114610be45760405162461bcd60e51b815260040161057890612161565b6000601081905580610bf4610a5f565b50600a546040516370a0823160e01b81529294509092506000916001600160a01b03909116906370a0823190610c2e90309060040161203f565b602060405180830381865afa158015610c4b573d6000803e3d6000fd5b505050506040513d601f19601f82011682018060405250810190610c6f91906121da565b600b546040516370a0823160e01b81529192506000916001600160a01b03909116906370a0823190610ca590309060040161203f565b602060405180830381865afa158015610cc2573d6000803e3d6000fd5b505050506040513d601f19601f82011682018060405250810190610ce691906121da565b90506000610cfd836001600160701b03871661188c565b90506000610d14836001600160701b03871661188c565b90506000610d228787611bc5565b60035490915080610d5957610d456103e8610964610d408787611825565b611d02565b9850610d5460006103e8611d72565b610da0565b610d9d6001600160701b038916610d708684611825565b610d7a9190612236565b6001600160701b038916610d8e8685611825565b610d989190612236565b611df0565b98505b60008911610df15760405162461bcd60e51b815260206004820152602a60248201526000805160206123bb83398151915260448201526912551657d3525395115160b21b6064820152608401610578565b610dfb8a8a611d72565b610e0786868a8a6118e2565b8115610e3157600c54610e2d906001600160701b0380821691600160701b900416611825565b600f555b604080518581526020810185905233917f4c209b5fc8ad50758f13e2e1088ba56a560dff690a1c6fef26394f4c03821c4f910160405180910390a25050600160105550949695505050505050565b600080601054600114610ea45760405162461bcd60e51b815260040161057890612161565b6000601081905580610eb4610a5f565b50600a54600b546040516370a0823160e01b81529395509193506001600160a01b039081169291169060009083906370a0823190610ef690309060040161203f565b602060405180830381865afa158015610f13573d6000803e3d6000fd5b505050506040513d601f19601f82011682018060405250810190610f3791906121da565b90506000826001600160a01b03166370a08231306040518263ffffffff1660e01b8152600401610f67919061203f565b602060405180830381865afa158015610f84573d6000803e3d6000fd5b505050506040513d601f19601f82011682018060405250810190610fa891906121da565b30600090815260046020526040812054919250610fc58888611bc5565b60035490915080610fd68487611825565b610fe09190612236565b9a5080610fed8486611825565b610ff79190612236565b995060008b118015611009575060008a115b6110565760405162461bcd60e51b815260206004820152602a60248201526000805160206123bb83398151915260448201526912551657d0955493915160b21b6064820152608401610578565b6110603084611e08565b61106b878d8d6116d2565b611076868d8c6116d2565b6040516370a0823160e01b81526001600160a01b038816906370a08231906110a290309060040161203f565b602060405180830381865afa1580156110bf573d6000803e3d6000fd5b505050506040513d601f19601f820116820180604052508101906110e391906121da565b6040516370a0823160e01b81529095506001600160a01b038716906370a082319061111290309060040161203f565b602060405180830381865afa15801561112f573d6000803e3d6000fd5b505050506040513d601f19601f8201168201806040525081019061115391906121da565b935061116185858b8b6118e2565b811561118b57600c54611187906001600160701b0380821691600160701b900416611825565b600f555b604080518c8152602081018c90526001600160a01b038e169133917fdccd412f0b1252819cb1fd330b93224ca42612892bb3f4f789976e6d81936496910160405180910390a35050505050505050506001601081905550915091565b6000610a96338484611b31565b600180546112019061224a565b80601f016020809104026020016040519081016040528092919081815260200182805461122d9061224a565b801561127a5780601f1061124f5761010080835404028352916020019161127a565b820191906000526020600020905b81548152906001019060200180831161125d57829003601f168201915b505050505081565b6010546001146112a45760405162461bcd60e51b815260040161057890612161565b6000601055600a54600b54600c546040516370a0823160e01b81526001600160a01b039384169390921691611343918491869161133e916001600160701b039091169084906370a08231906112fd90309060040161203f565b602060405180830381865afa15801561131a573d6000803e3d6000fd5b505050506040513d601f19601f8201168201806040525081019061096491906121da565b6116d2565b611396818461133e600c600e9054906101000a90046001600160701b03166001600160701b0316856001600160a01b03166370a08231306040518263ffffffff1660e01b81526004016112fd919061203f565b5050600160105550565b600080546112019061224a565b428410156113f45760405162461bcd60e51b815260206004820152601460248201527314185b98d85ad954ddd85c0e881156141254915160621b6044820152606401610578565b6006546007546001600160a01b03891660009081526008602052604081208054919392918b918b918b91876114288361227f565b909155506040805160208101969096526001600160a01b0394851690860152929091166060840152608083015260a082015260c0810187905260e001604051602081830303815290604052805190602001206040516020016114a192919061190160f01b81526002810192909252602282015260420190565b60408051601f198184030181528282528051602091820120600080855291840180845281905260ff88169284019290925260608301869052608083018590529092509060019060a0016020604051602081039080840390855afa15801561150c573d6000803e3d6000fd5b5050604051601f1901519150506001600160a01b038116158015906115425750886001600160a01b0316816001600160a01b0316145b61158e5760405162461bcd60e51b815260206004820152601e60248201527f50616e63616b65537761703a20494e56414c49445f5349474e415455524500006044820152606401610578565b611599898989611acf565b505050505050505050565b6010546001146115c65760405162461bcd60e51b815260040161057890612161565b6000601055600a546040516370a0823160e01b81526116cb916001600160a01b0316906370a08231906115fd90309060040161203f565b602060405180830381865afa15801561161a573d6000803e3d6000fd5b505050506040513d601f19601f8201168201806040525081019061163e91906121da565b600b546040516370a0823160e01b81526001600160a01b03909116906370a082319061166e90309060040161203f565b602060405180830381865afa15801561168b573d6000803e3d6000fd5b505050506040513d601f19601f820116820180604052508101906116af91906121da565b600c546001600160701b0380821691600160701b9004166118e2565b6001601055565b60408051808201825260198152787472616e7366657228616464726573732c75696e743235362960381b60209182015281516001600160a01b0385811660248301526044808301869052845180840390910181526064909201845291810180516001600160e01b031663a9059cbb60e01b1790529151600092839287169161175a919061229a565b6000604051808303816000865af19150503d8060008114611797576040519150601f19603f3d011682016040523d82523d6000602084013e61179c565b606091505b50915091508180156117c65750805115806117c65750808060200190518101906117c691906122b6565b61181e5760405162461bcd60e51b815260206004820152602360248201527f50616e63616b6553776170466163746f72793a205452414e534645525f46414960448201526213115160ea1b6064820152608401610578565b5050505050565b60008115806118495750828261183b81836122d8565b92506118479083612236565b145b610a9a5760405162461bcd60e51b815260206004820152601460248201527364732d6d6174682d6d756c2d6f766572666c6f7760601b6044820152606401610578565b6000826118998382612209565b9150811115610a9a5760405162461bcd60e51b815260206004820152601560248201527464732d6d6174682d7375622d756e646572666c6f7760581b6044820152606401610578565b6001600160701b03841180159061190057506001600160701b038311155b6119445760405162461bcd60e51b815260206004820152601560248201527450616e63616b65537761703a204f564552464c4f5760581b6044820152606401610578565b6000611954600160201b426122f7565b600c5490915060009061197490600160e01b900463ffffffff168361230b565b905060008163ffffffff1611801561199457506001600160701b03841615155b80156119a857506001600160701b03831615155b15611a37578063ffffffff166119d0856119c186611e80565b6001600160e01b031690611e99565b6001600160e01b03166119e391906122d8565b600d60008282546119f49190612330565b909155505063ffffffff8116611a0d846119c187611e80565b6001600160e01b0316611a2091906122d8565b600e6000828254611a319190612330565b90915550505b600c805463ffffffff8416600160e01b026001600160e01b036001600160701b03898116600160701b9081026001600160e01b03199095168c83161794909417918216831794859055604080519382169282169290921783529290930490911660208201527f1c411e9a96e071241c2f21f7726b17ae89e3cab4c78be50e062b03a9fffbbad1910160405180910390a1505050505050565b6001600160a01b0383811660008181526005602090815260408083209487168084529482529182902085905590518481527f8c5be1e5ebec7d5bd14f71427d1e84f3dd0314c0f7b2291e5b200ac8c7c3b92591015b60405180910390a3505050565b6001600160a01b038316600090815260046020526040902054611b54908261188c565b6001600160a01b038085166000908152600460205260408082209390935590841681522054611b839082611eae565b6001600160a01b0380841660008181526004602052604090819020939093559151908516906000805160206123db83398151915290611b249085815260200190565b600080600960009054906101000a90046001600160a01b03166001600160a01b031663017e7e586040518163ffffffff1660e01b8152600401602060405180830381865afa158015611c1b573d6000803e3d6000fd5b505050506040513d601f19601f82011682018060405250810190611c3f9190612348565b600f546001600160a01b038216158015945091925090611cee578015611ce9576000611c7a610d406001600160701b03888116908816611825565b90506000611c8783611d02565b905080821115611ce6576000611ca9611ca0848461188c565b60035490611825565b90506000611cc283611cbc866005611825565b90611eae565b90506000611cd08284612236565b90508015611ce257611ce28782611d72565b5050505b50505b611cfa565b8015611cfa576000600f555b505092915050565b60006003821115611d635750806000611d1c600283612236565b611d27906001612330565b90505b81811015611d5d57905080600281611d428186612236565b611d4c9190612330565b611d569190612236565b9050611d2a565b50919050565b8115611d6d575060015b919050565b600354611d7f9082611eae565b6003556001600160a01b038216600090815260046020526040902054611da59082611eae565b6001600160a01b0383166000818152600460205260408082209390935591519091906000805160206123db83398151915290611de49085815260200190565b60405180910390a35050565b6000818310611dff5781611e01565b825b9392505050565b6001600160a01b038216600090815260046020526040902054611e2b908261188c565b6001600160a01b038316600090815260046020526040902055600354611e51908261188c565b6003556040518181526000906001600160a01b038416906000805160206123db83398151915290602001611de4565b6000610a9a600160701b6001600160701b038416612365565b6000611e016001600160701b03831684612394565b600082611ebb8382612330565b9150811015610a9a5760405162461bcd60e51b815260206004820152601460248201527364732d6d6174682d6164642d6f766572666c6f7760601b6044820152606401610578565b6001600160a01b0381168114611f1857600080fd5b50565b600080600080600060808688031215611f3357600080fd5b85359450602086013593506040860135611f4c81611f03565b925060608601356001600160401b0380821115611f6857600080fd5b818801915088601f830112611f7c57600080fd5b813581811115611f8b57600080fd5b896020828501011115611f9d57600080fd5b9699959850939650602001949392505050565b60005b83811015611fcb578181015183820152602001611fb3565b83811115611fda576000848401525b50505050565b6020815260008251806020840152611fff816040850160208701611fb0565b601f01601f19169190910160400192915050565b6000806040838503121561202657600080fd5b823561203181611f03565b946020939093013593505050565b6001600160a01b0391909116815260200190565b60008060006060848603121561206857600080fd5b833561207381611f03565b9250602084013561208381611f03565b929592945050506040919091013590565b600080604083850312156120a757600080fd5b82356120b281611f03565b915060208301356120c281611f03565b809150509250929050565b6000602082840312156120df57600080fd5b8135611e0181611f03565b600080600080600080600060e0888a03121561210557600080fd5b873561211081611f03565b9650602088013561212081611f03565b95506040880135945060608801359350608088013560ff8116811461214457600080fd5b9699959850939692959460a0840135945060c09093013592915050565b60208082526013908201527214185b98d85ad954ddd85c0e881313d0d2d151606a1b604082015260600190565b60018060a01b038616815284602082015283604082015260806060820152816080820152818360a0830137600081830160a090810191909152601f909201601f19160101949350505050565b6000602082840312156121ec57600080fd5b5051919050565b634e487b7160e01b600052601160045260246000fd5b60008282101561221b5761221b6121f3565b500390565b634e487b7160e01b600052601260045260246000fd5b60008261224557612245612220565b500490565b600181811c9082168061225e57607f821691505b60208210811415611d5d57634e487b7160e01b600052602260045260246000fd5b6000600019821415612293576122936121f3565b5060010190565b600082516122ac818460208701611fb0565b9190910192915050565b6000602082840312156122c857600080fd5b81518015158114611e0157600080fd5b60008160001904831182151516156122f2576122f26121f3565b500290565b60008261230657612306612220565b500690565b600063ffffffff83811690831681811015612328576123286121f3565b039392505050565b60008219821115612343576123436121f3565b500190565b60006020828403121561235a57600080fd5b8151611e0181611f03565b60006001600160e01b038281168482168115158284048211161561238b5761238b6121f3565b02949350505050565b60006001600160e01b03838116806123ae576123ae612220565b9216919091049291505056fe50616e63616b65537761703a20494e53554646494349454e545f4c4951554944ddf252ad1be2c89b69c2b068fc378daa952ba7f163c4a11628f55a4df523b3efa2646970667358221220c22ddbaacb4e3bcd38b81b543aa7cedf96e227e3c9066c8fbda2f19b213e5c3e64736f6c634300080a0033a2646970667358221220b848a8c0de2706ba6d2fb064aa176cba588a855156db578ddda49f0d997dd38e64736f6c634300080a0033",
  "linkReferences": {},
  "deployedLinkReferences": {}
}