{
  "_format": "hh-sol-artifact-1",
  "contractName": "PancakeSwapERC20",
  "sourceName": "contracts/libs/dexfactory.sol",
  "abi": [
    {
      "inputs": [],
      "stateMutability": "nonpayable",
      "type": "constructor"
    },
    {
      "anonymous": false,
      "inputs": [
        {
          "indexed": true,
          "internalType": "address",
          "name": "owner",
          "type": "address"
        },
        {
          "indexed": true,
          "internalType": "address",
          "name": "spender",
          "type": "address"
        },
        {
          "indexed": false,
          "internalType": "uint256",
          "name": "value",
          "type": "uint256"
        }
      ],
      "name": "Approval",
      "type": "event"
    },
    {
      "anonymous": false,
      "inputs": [
        {
          "indexed": true,
          "internalType": "address",
          "name": "from",
          "type": "address"
        },
        {
          "indexed": true,
          "internalType": "address",
          "name": "to",
          "type": "address"
        },
        {
          "indexed": false,
          "internalType": "uint256",
          "name": "value",
          "type": "uint256"
        }
      ],
      "name": "Transfer",
      "type": "event"
    },
    {
      "inputs": [],
      "name": "DOMAIN_SEPARATOR",
      "outputs": [
        {
          "internalType": "bytes32",
          "name": "",
          "type": "bytes32"
        }
      ],
      "stateMutability": "view",
      "type": "function"
    },
    {
      "inputs": [],
      "name": "PERMIT_TYPEHASH",
      "outputs": [
        {
          "internalType": "bytes32",
          "name": "",
          "type": "bytes32"
        }
      ],
      "stateMutability": "pure",
      "type": "function"
    },
    {
      "inputs": [],
      "name": "_decimals",
      "outputs": [
        {
          "internalType": "uint8",
          "name": "",
          "type": "uint8"
        }
      ],
      "stateMutability": "view",
      "type": "function"
    },
    {
      "inputs": [],
      "name": "_name",
      "outputs": [
        {
          "internalType": "string",
          "name": "",
          "type": "string"
        }
      ],
      "stateMutability": "view",
      "type": "function"
    },
    {
      "inputs": [],
      "name": "_symbol",
      "outputs": [
        {
          "internalType": "string",
          "name": "",
          "type": "string"
        }
      ],
      "stateMutability": "view",
      "type": "function"
    },
    {
      "inputs": [],
      "name": "_totalSupply",
      "outputs": [
        {
          "internalType": "uint256",
          "name": "",
          "type": "uint256"
        }
      ],
      "stateMutability": "view",
      "type": "function"
    },
    {
      "inputs": [
        {
          "internalType": "address",
          "name": "owner",
          "type": "address"
        },
        {
          "internalType": "address",
          "name": "spender",
          "type": "address"
        }
      ],
      "name": "allowance",
      "outputs": [
        {
          "internalType": "uint256",
          "name": "",
          "type": "uint256"
        }
      ],
      "stateMutability": "view",
      "type": "function"
    },
    {
      "inputs": [
        {
          "internalType": "address",
          "name": "spender",
          "type": "address"
        },
        {
          "internalType": "uint256",
          "name": "value",
          "type": "uint256"
        }
      ],
      "name": "approve",
      "outputs": [
        {
          "internalType": "bool",
          "name": "",
          "type": "bool"
        }
      ],
      "stateMutability": "nonpayable",
      "type": "function"
    },
    {
      "inputs": [
        {
          "internalType": "address",
          "name": "owner",
          "type": "address"
        }
      ],
      "name": "balanceOf",
      "outputs": [
        {
          "internalType": "uint256",
          "name": "",
          "type": "uint256"
        }
      ],
      "stateMutability": "view",
      "type": "function"
    },
    {
      "inputs": [],
      "name": "decimals",
      "outputs": [
        {
          "internalType": "uint8",
          "name": "",
          "type": "uint8"
        }
      ],
      "stateMutability": "pure",
      "type": "function"
    },
    {
      "inputs": [],
      "name": "name",
      "outputs": [
        {
          "internalType": "string",
          "name": "",
          "type": "string"
        }
      ],
      "stateMutability": "pure",
      "type": "function"
    },
    {
      "inputs": [
        {
          "internalType": "address",
          "name": "owner",
          "type": "address"
        }
      ],
      "name": "nonces",
      "outputs": [
        {
          "internalType": "uint256",
          "name": "",
          "type": "uint256"
        }
      ],
      "stateMutability": "view",
      "type": "function"
    },
    {
      "inputs": [
        {
          "internalType": "address",
          "name": "owner",
          "type": "address"
        },
        {
          "internalType": "address",
          "name": "spender",
          "type": "address"
        },
        {
          "internalType": "uint256",
          "name": "value",
          "type": "uint256"
        },
        {
          "internalType": "uint256",
          "name": "deadline",
          "type": "uint256"
        },
        {
          "internalType": "uint8",
          "name": "v",
          "type": "uint8"
        },
        {
          "internalType": "bytes32",
          "name": "r",
          "type": "bytes32"
        },
        {
          "internalType": "bytes32",
          "name": "s",
          "type": "bytes32"
        }
      ],
      "name": "permit",
      "outputs": [],
      "stateMutability": "nonpayable",
      "type": "function"
    },
    {
      "inputs": [],
      "name": "symbol",
      "outputs": [
        {
          "internalType": "string",
          "name": "",
          "type": "string"
        }
      ],
      "stateMutability": "pure",
      "type": "function"
    },
    {
      "inputs": [],
      "name": "totalSupply",
      "outputs": [
        {
          "internalType": "uint256",
          "name": "",
          "type": "uint256"
        }
      ],
      "stateMutability": "view",
      "type": "function"
    },
    {
      "inputs": [
        {
          "internalType": "address",
          "name": "to",
          "type": "address"
        },
        {
          "internalType": "uint256",
          "name": "value",
          "type": "uint256"
        }
      ],
      "name": "transfer",
      "outputs": [
        {
          "internalType": "bool",
          "name": "",
          "type": "bool"
        }
      ],
      "stateMutability": "nonpayable",
      "type": "function"
    },
    {
      "inputs": [
        {
          "internalType": "address",
          "name": "from",
          "type": "address"
        },
        {
          "internalType": "address",
          "name": "to",
          "type": "address"
        },
        {
          "internalType": "uint256",
          "name": "value",
          "type": "uint256"
        }
      ],
      "name": "transferFrom",
      "outputs": [
        {
          "internalType": "bool",
          "name": "",
          "type": "bool"
        }
      ],
      "stateMutability": "nonpayable",
      "type": "function"
    }
  ],
  "bytecode": "0x60c0604052600c60808190526b02830b731b0b5b2a9bbb0b8160a51b60a09081526200002f91600091906200015d565b5060408051808201909152600a80825269050616e63616b652d4c560b41b602090920191825262000063916001916200015d565b506002805460ff191660121790557f6e71edae12b1b97f4d1f60370fef10105fa2faae0126114a169c64845d6126c9600755348015620000a257600080fd5b5060405146907f8b73c3c69bb8fe3d512ecc4cf759cc79239f7b179b0ffacaa9a75d522b39400f90620000d89060009062000240565b60408051918290038220828201825260018352603160f81b6020938401528151928301939093528101919091527fc89efdaa54c0f20c7adf612882df0950f5a951637e0307cdcb4c672f298b8bc66060820152608081018290523060a082015260c00160408051601f19818403018152919052805160209091012060065550620002e4565b8280546200016b9062000203565b90600052602060002090601f0160209004810192826200018f5760008555620001da565b82601f10620001aa57805160ff1916838001178555620001da565b82800160010185558215620001da579182015b82811115620001da578251825591602001919060010190620001bd565b50620001e8929150620001ec565b5090565b5b80821115620001e85760008155600101620001ed565b600181811c908216806200021857607f821691505b602082108114156200023a57634e487b7160e01b600052602260045260246000fd5b50919050565b600080835481600182811c9150808316806200025d57607f831692505b60208084108214156200027e57634e487b7160e01b86526022600452602486fd5b818015620002955760018114620002a757620002d6565b60ff19861689528489019650620002d6565b60008a81526020902060005b86811015620002ce5781548b820152908501908301620002b3565b505084890196505b509498975050505050505050565b610a1e80620002f46000396000f3fe608060405234801561001057600080fd5b50600436106100db5760003560e01c806306fdde03146100e0578063095ea7b31461011857806318160ddd1461013b57806323b872dd1461014d57806330adf81f14610160578063313ce5671461018657806332424aa31461019b5780633644e515146101a85780633eaaf86b146101b057806370a08231146101b95780637ecebe00146101e257806395d89b411461020b578063a9059cbb14610230578063b09f126614610243578063d28d88521461024b578063d505accf14610253578063dd62ed3e14610268575b600080fd5b60408051808201909152600a815269050616e63616b65204c560b41b60208201525b60405161010f91906107ae565b60405180910390f35b61012b61012636600461081f565b6102a1565b604051901515815260200161010f565b6003545b60405190815260200161010f565b61012b61015b366004610849565b6102b8565b7f6e71edae12b1b97f4d1f60370fef10105fa2faae0126114a169c64845d6126c961013f565b60125b60405160ff909116815260200161010f565b6002546101899060ff1681565b60065461013f565b61013f60035481565b61013f6101c7366004610885565b6001600160a01b031660009081526004602052604090205490565b61013f6101f0366004610885565b6001600160a01b031660009081526008602052604090205490565b60408051808201909152600981526813140814de5b589bdb60ba1b6020820152610102565b61012b61023e36600461081f565b610357565b610102610364565b6101026103f2565b6102666102613660046108a7565b6103ff565b005b61013f61027636600461091a565b6001600160a01b03918216600090815260056020908152604080832093909416825291909152205490565b60006102ae3384846105fb565b5060015b92915050565b6001600160a01b038316600090815260056020908152604080832033845290915281205481906102e9908490610963565b1115610342576001600160a01b038416600090815260056020908152604080832033845290915290205461031d908361065d565b6001600160a01b03851660009081526005602090815260408083203384529091529020555b61034d8484846106b3565b5060019392505050565b60006102ae3384846106b3565b600180546103719061097a565b80601f016020809104026020016040519081016040528092919081815260200182805461039d9061097a565b80156103ea5780601f106103bf576101008083540402835291602001916103ea565b820191906000526020600020905b8154815290600101906020018083116103cd57829003601f168201915b505050505081565b600080546103719061097a565b4284101561044b5760405162461bcd60e51b815260206004820152601460248201527314185b98d85ad954ddd85c0e881156141254915160621b60448201526064015b60405180910390fd5b6006546007546001600160a01b03891660009081526008602052604081208054919392918b918b918b918761047f836109b5565b909155506040805160208101969096526001600160a01b0394851690860152929091166060840152608083015260a082015260c0810187905260e001604051602081830303815290604052805190602001206040516020016104f892919061190160f01b81526002810192909252602282015260420190565b60408051601f198184030181528282528051602091820120600080855291840180845281905260ff88169284019290925260608301869052608083018590529092509060019060a0016020604051602081039080840390855afa158015610563573d6000803e3d6000fd5b5050604051601f1901519150506001600160a01b038116158015906105995750886001600160a01b0316816001600160a01b0316145b6105e55760405162461bcd60e51b815260206004820152601e60248201527f50616e63616b65537761703a20494e56414c49445f5349474e415455524500006044820152606401610442565b6105f08989896105fb565b505050505050505050565b6001600160a01b0383811660008181526005602090815260408083209487168084529482529182902085905590518481527f8c5be1e5ebec7d5bd14f71427d1e84f3dd0314c0f7b2291e5b200ac8c7c3b92591015b60405180910390a3505050565b60008261066a8382610963565b91508111156102b25760405162461bcd60e51b815260206004820152601560248201527464732d6d6174682d7375622d756e646572666c6f7760581b6044820152606401610442565b6001600160a01b0383166000908152600460205260409020546106d6908261065d565b6001600160a01b0380851660009081526004602052604080822093909355908416815220546107059082610759565b6001600160a01b0380841660008181526004602052604090819020939093559151908516907fddf252ad1be2c89b69c2b068fc378daa952ba7f163c4a11628f55a4df523b3ef906106509085815260200190565b60008261076683826109d0565b91508110156102b25760405162461bcd60e51b815260206004820152601460248201527364732d6d6174682d6164642d6f766572666c6f7760601b6044820152606401610442565b600060208083528351808285015260005b818110156107db578581018301518582016040015282016107bf565b818111156107ed576000604083870101525b50601f01601f1916929092016040019392505050565b80356001600160a01b038116811461081a57600080fd5b919050565b6000806040838503121561083257600080fd5b61083b83610803565b946020939093013593505050565b60008060006060848603121561085e57600080fd5b61086784610803565b925061087560208501610803565b9150604084013590509250925092565b60006020828403121561089757600080fd5b6108a082610803565b9392505050565b600080600080600080600060e0888a0312156108c257600080fd5b6108cb88610803565b96506108d960208901610803565b95506040880135945060608801359350608088013560ff811681146108fd57600080fd5b9699959850939692959460a0840135945060c09093013592915050565b6000806040838503121561092d57600080fd5b61093683610803565b915061094460208401610803565b90509250929050565b634e487b7160e01b600052601160045260246000fd5b6000828210156109755761097561094d565b500390565b600181811c9082168061098e57607f821691505b602082108114156109af57634e487b7160e01b600052602260045260246000fd5b50919050565b60006000198214156109c9576109c961094d565b5060010190565b600082198211156109e3576109e361094d565b50019056fea2646970667358221220c34009d71670f5d5e12cd19a42656c00ac32d624f9dd1545f05fe34d917be71a64736f6c634300080a0033",
  "linkReferences": {},
  "deployedLinkReferences": {}
}