{
  "_format": "hh-sol-artifact-1",
  "contractName": "Swello",
  "sourceName": "contracts/Swello.sol",
  "abi": [
    {
      "anonymous": false,
      "inputs": [
        {
          "indexed": false,
          "internalType": "address",
          "name": "previousAdmin",
          "type": "address"
        },
        {
          "indexed": false,
          "internalType": "address",
          "name": "newAdmin",
          "type": "address"
        }
      ],
      "name": "AdminChanged",
      "type": "event"
    },
    {
      "anonymous": false,
      "inputs": [
        {
          "indexed": true,
          "internalType": "address",
          "name": "owner",
          "type": "address"
        },
        {
          "indexed": true,
          "internalType": "address",
          "name": "spender",
          "type": "address"
        },
        {
          "indexed": false,
          "internalType": "uint256",
          "name": "value",
          "type": "uint256"
        }
      ],
      "name": "Approval",
      "type": "event"
    },
    {
      "anonymous": false,
      "inputs": [
        {
          "indexed": true,
          "internalType": "address",
          "name": "beacon",
          "type": "address"
        }
      ],
      "name": "BeaconUpgraded",
      "type": "event"
    },
    {
      "anonymous": false,
      "inputs": [
        {
          "indexed": false,
          "internalType": "address",
          "name": "_receiver",
          "type": "address"
        }
      ],
      "name": "ClearStuckBalance",
      "type": "event"
    },
    {
      "anonymous": false,
      "inputs": [
        {
          "indexed": true,
          "internalType": "uint256",
          "name": "epoch",
          "type": "uint256"
        },
        {
          "indexed": false,
          "internalType": "uint256",
          "name": "totalSupply",
          "type": "uint256"
        }
      ],
      "name": "LogRebase",
      "type": "event"
    },
    {
      "anonymous": false,
      "inputs": [
        {
          "indexed": false,
          "internalType": "int256",
          "name": "supplyDelta",
          "type": "int256"
        }
      ],
      "name": "ManualRebase",
      "type": "event"
    },
    {
      "anonymous": false,
      "inputs": [
        {
          "indexed": true,
          "internalType": "address",
          "name": "previousOwner",
          "type": "address"
        },
        {
          "indexed": true,
          "internalType": "address",
          "name": "newOwner",
          "type": "address"
        }
      ],
      "name": "OwnershipTransferred",
      "type": "event"
    },
    {
      "anonymous": false,
      "inputs": [
        {
          "indexed": false,
          "internalType": "uint256",
          "name": "_autoLPFrequency",
          "type": "uint256"
        }
      ],
      "name": "SetAutoLPFrequency",
      "type": "event"
    },
    {
      "anonymous": false,
      "inputs": [
        {
          "indexed": false,
          "internalType": "bool",
          "name": "_autoRebase",
          "type": "bool"
        }
      ],
      "name": "SetAutoRebase",
      "type": "event"
    },
    {
      "anonymous": false,
      "inputs": [
        {
          "indexed": true,
          "internalType": "address",
          "name": "pair",
          "type": "address"
        },
        {
          "indexed": true,
          "internalType": "bool",
          "name": "value",
          "type": "bool"
        }
      ],
      "name": "SetAutomatedMarketMakerPair",
      "type": "event"
    },
    {
      "anonymous": false,
      "inputs": [
        {
          "indexed": false,
          "internalType": "uint256[]",
          "name": "_bonfireBalanceThresholds",
          "type": "uint256[]"
        },
        {
          "indexed": false,
          "internalType": "uint256[]",
          "name": "_bonfireFees",
          "type": "uint256[]"
        }
      ],
      "name": "SetBonfireFees",
      "type": "event"
    },
    {
      "anonymous": false,
      "inputs": [
        {
          "indexed": false,
          "internalType": "address",
          "name": "_addr",
          "type": "address"
        },
        {
          "indexed": false,
          "internalType": "bool",
          "name": "_value",
          "type": "bool"
        }
      ],
      "name": "SetFeeExempted",
      "type": "event"
    },
    {
      "anonymous": false,
      "inputs": [
        {
          "indexed": false,
          "internalType": "address",
          "name": "_liquidityReceiver",
          "type": "address"
        },
        {
          "indexed": false,
          "internalType": "address",
          "name": "_treasuryReceiver",
          "type": "address"
        },
        {
          "indexed": false,
          "internalType": "address",
          "name": "_safetyFundReceiver",
          "type": "address"
        },
        {
          "indexed": false,
          "internalType": "address",
          "name": "_charityReceiver",
          "type": "address"
        }
      ],
      "name": "SetFeeReceivers",
      "type": "event"
    },
    {
      "anonymous": false,
      "inputs": [
        {
          "indexed": false,
          "internalType": "uint256",
          "name": "_liquidityFee",
          "type": "uint256"
        },
        {
          "indexed": false,
          "internalType": "uint256",
          "name": "_safetyFundFee",
          "type": "uint256"
        },
        {
          "indexed": false,
          "internalType": "uint256",
          "name": "_treasuryFee",
          "type": "uint256"
        },
        {
          "indexed": false,
          "internalType": "uint256",
          "name": "_sellFeeLiquidityAdded",
          "type": "uint256"
        },
        {
          "indexed": false,
          "internalType": "uint256",
          "name": "_feeDenominator",
          "type": "uint256"
        }
      ],
      "name": "SetFees",
      "type": "event"
    },
    {
      "anonymous": false,
      "inputs": [
        {
          "indexed": false,
          "internalType": "bool",
          "name": "_value",
          "type": "bool"
        }
      ],
      "name": "SetInitialDistributionFinished",
      "type": "event"
    },
    {
      "anonymous": false,
      "inputs": [
        {
          "indexed": false,
          "internalType": "bool",
          "name": "_value",
          "type": "bool"
        }
      ],
      "name": "SetIsLiquidityInBnb",
      "type": "event"
    },
    {
      "anonymous": false,
      "inputs": [
        {
          "indexed": false,
          "internalType": "uint256",
          "name": "_nextAutoLP",
          "type": "uint256"
        }
      ],
      "name": "SetNextAutoLP",
      "type": "event"
    },
    {
      "anonymous": false,
      "inputs": [
        {
          "indexed": false,
          "internalType": "uint256",
          "name": "_nextRebase",
          "type": "uint256"
        }
      ],
      "name": "SetNextRebase",
      "type": "event"
    },
    {
      "anonymous": false,
      "inputs": [
        {
          "indexed": false,
          "internalType": "uint256",
          "name": "_rebaseFrequency",
          "type": "uint256"
        }
      ],
      "name": "SetRebaseFrequency",
      "type": "event"
    },
    {
      "anonymous": false,
      "inputs": [
        {
          "indexed": false,
          "internalType": "uint256",
          "name": "_rewardYield",
          "type": "uint256"
        },
        {
          "indexed": false,
          "internalType": "uint256",
          "name": "_rewardYieldDenominator",
          "type": "uint256"
        }
      ],
      "name": "SetRewardYield",
      "type": "event"
    },
    {
      "anonymous": false,
      "inputs": [
        {
          "indexed": false,
          "internalType": "bool",
          "name": "_enabled",
          "type": "bool"
        },
        {
          "indexed": false,
          "internalType": "uint256",
          "name": "_num",
          "type": "uint256"
        },
        {
          "indexed": false,
          "internalType": "uint256",
          "name": "_denom",
          "type": "uint256"
        }
      ],
      "name": "SetSwapBackSettings",
      "type": "event"
    },
    {
      "anonymous": false,
      "inputs": [
        {
          "indexed": false,
          "internalType": "uint256",
          "name": "target",
          "type": "uint256"
        },
        {
          "indexed": false,
          "internalType": "uint256",
          "name": "accuracy",
          "type": "uint256"
        }
      ],
      "name": "SetTargetLiquidity",
      "type": "event"
    },
    {
      "anonymous": false,
      "inputs": [
        {
          "indexed": false,
          "internalType": "uint256",
          "name": "tokensSwapped",
          "type": "uint256"
        },
        {
          "indexed": false,
          "internalType": "uint256",
          "name": "bnbReceived",
          "type": "uint256"
        },
        {
          "indexed": false,
          "internalType": "uint256",
          "name": "tokensIntoLiqudity",
          "type": "uint256"
        }
      ],
      "name": "SwapAndLiquify",
      "type": "event"
    },
    {
      "anonymous": false,
      "inputs": [
        {
          "indexed": false,
          "internalType": "uint256",
          "name": "tokensSwapped",
          "type": "uint256"
        },
        {
          "indexed": false,
          "internalType": "uint256",
          "name": "busdReceived",
          "type": "uint256"
        },
        {
          "indexed": false,
          "internalType": "uint256",
          "name": "tokensIntoLiqudity",
          "type": "uint256"
        }
      ],
      "name": "SwapAndLiquifyBusd",
      "type": "event"
    },
    {
      "anonymous": false,
      "inputs": [
        {
          "indexed": false,
          "internalType": "uint256",
          "name": "contractTokenBalance",
          "type": "uint256"
        },
        {
          "indexed": false,
          "internalType": "uint256",
          "name": "amountToLiquify",
          "type": "uint256"
        },
        {
          "indexed": false,
          "internalType": "uint256",
          "name": "amountToSafetyFund",
          "type": "uint256"
        },
        {
          "indexed": false,
          "internalType": "uint256",
          "name": "amountToTreasury",
          "type": "uint256"
        },
        {
          "indexed": false,
          "internalType": "uint256",
          "name": "amountToBurn",
          "type": "uint256"
        },
        {
          "indexed": false,
          "internalType": "uint256",
          "name": "amountToCharity",
          "type": "uint256"
        }
      ],
      "name": "SwapBack",
      "type": "event"
    },
    {
      "anonymous": false,
      "inputs": [
        {
          "indexed": true,
          "internalType": "address",
          "name": "from",
          "type": "address"
        },
        {
          "indexed": true,
          "internalType": "address",
          "name": "to",
          "type": "address"
        },
        {
          "indexed": false,
          "internalType": "uint256",
          "name": "value",
          "type": "uint256"
        }
      ],
      "name": "Transfer",
      "type": "event"
    },
    {
      "anonymous": false,
      "inputs": [
        {
          "indexed": true,
          "internalType": "address",
          "name": "implementation",
          "type": "address"
        }
      ],
      "name": "Upgraded",
      "type": "event"
    },
    {
      "inputs": [],
      "name": "MAX_FEE_BUY",
      "outputs": [
        {
          "internalType": "uint256",
          "name": "",
          "type": "uint256"
        }
      ],
      "stateMutability": "view",
      "type": "function"
    },
    {
      "inputs": [],
      "name": "MAX_FEE_RATE",
      "outputs": [
        {
          "internalType": "uint256",
          "name": "",
          "type": "uint256"
        }
      ],
      "stateMutability": "view",
      "type": "function"
    },
    {
      "inputs": [],
      "name": "MAX_FEE_SELL",
      "outputs": [
        {
          "internalType": "uint256",
          "name": "",
          "type": "uint256"
        }
      ],
      "stateMutability": "view",
      "type": "function"
    },
    {
      "inputs": [
        {
          "internalType": "uint256",
          "name": "",
          "type": "uint256"
        }
      ],
      "name": "_markerPairs",
      "outputs": [
        {
          "internalType": "address",
          "name": "",
          "type": "address"
        }
      ],
      "stateMutability": "view",
      "type": "function"
    },
    {
      "inputs": [
        {
          "internalType": "address",
          "name": "owner_",
          "type": "address"
        },
        {
          "internalType": "address",
          "name": "spender",
          "type": "address"
        }
      ],
      "name": "allowance",
      "outputs": [
        {
          "internalType": "uint256",
          "name": "",
          "type": "uint256"
        }
      ],
      "stateMutability": "view",
      "type": "function"
    },
    {
      "inputs": [
        {
          "internalType": "address",
          "name": "spender",
          "type": "address"
        },
        {
          "internalType": "uint256",
          "name": "value",
          "type": "uint256"
        }
      ],
      "name": "approve",
      "outputs": [
        {
          "internalType": "bool",
          "name": "",
          "type": "bool"
        }
      ],
      "stateMutability": "nonpayable",
      "type": "function"
    },
    {
      "inputs": [],
      "name": "autoLPFrequency",
      "outputs": [
        {
          "internalType": "uint256",
          "name": "",
          "type": "uint256"
        }
      ],
      "stateMutability": "view",
      "type": "function"
    },
    {
      "inputs": [],
      "name": "autoRebase",
      "outputs": [
        {
          "internalType": "bool",
          "name": "",
          "type": "bool"
        }
      ],
      "stateMutability": "view",
      "type": "function"
    },
    {
      "inputs": [
        {
          "internalType": "address",
          "name": "",
          "type": "address"
        }
      ],
      "name": "automatedMarketMakerPairs",
      "outputs": [
        {
          "internalType": "bool",
          "name": "",
          "type": "bool"
        }
      ],
      "stateMutability": "view",
      "type": "function"
    },
    {
      "inputs": [
        {
          "internalType": "address",
          "name": "who",
          "type": "address"
        }
      ],
      "name": "balanceOf",
      "outputs": [
        {
          "internalType": "uint256",
          "name": "",
          "type": "uint256"
        }
      ],
      "stateMutability": "view",
      "type": "function"
    },
    {
      "inputs": [
        {
          "internalType": "uint256",
          "name": "",
          "type": "uint256"
        }
      ],
      "name": "bonfireBalanceThresholds",
      "outputs": [
        {
          "internalType": "uint256",
          "name": "",
          "type": "uint256"
        }
      ],
      "stateMutability": "view",
      "type": "function"
    },
    {
      "inputs": [],
      "name": "bonfireBurn",
      "outputs": [
        {
          "internalType": "uint256",
          "name": "",
          "type": "uint256"
        }
      ],
      "stateMutability": "view",
      "type": "function"
    },
    {
      "inputs": [],
      "name": "bonfireCharity",
      "outputs": [
        {
          "internalType": "uint256",
          "name": "",
          "type": "uint256"
        }
      ],
      "stateMutability": "view",
      "type": "function"
    },
    {
      "inputs": [],
      "name": "bonfireDenominator",
      "outputs": [
        {
          "internalType": "uint256",
          "name": "",
          "type": "uint256"
        }
      ],
      "stateMutability": "view",
      "type": "function"
    },
    {
      "inputs": [
        {
          "internalType": "uint256",
          "name": "",
          "type": "uint256"
        }
      ],
      "name": "bonfireFees",
      "outputs": [
        {
          "internalType": "uint256",
          "name": "",
          "type": "uint256"
        }
      ],
      "stateMutability": "view",
      "type": "function"
    },
    {
      "inputs": [],
      "name": "bonfireTreasury",
      "outputs": [
        {
          "internalType": "uint256",
          "name": "",
          "type": "uint256"
        }
      ],
      "stateMutability": "view",
      "type": "function"
    },
    {
      "inputs": [],
      "name": "busdToken",
      "outputs": [
        {
          "internalType": "address",
          "name": "",
          "type": "address"
        }
      ],
      "stateMutability": "view",
      "type": "function"
    },
    {
      "inputs": [],
      "name": "charityReceiver",
      "outputs": [
        {
          "internalType": "address",
          "name": "",
          "type": "address"
        }
      ],
      "stateMutability": "view",
      "type": "function"
    },
    {
      "inputs": [
        {
          "internalType": "address",
          "name": "_addr",
          "type": "address"
        }
      ],
      "name": "checkFeeExempt",
      "outputs": [
        {
          "internalType": "bool",
          "name": "",
          "type": "bool"
        }
      ],
      "stateMutability": "view",
      "type": "function"
    },
    {
      "inputs": [],
      "name": "checkSwapThreshold",
      "outputs": [
        {
          "internalType": "uint256",
          "name": "",
          "type": "uint256"
        }
      ],
      "stateMutability": "view",
      "type": "function"
    },
    {
      "inputs": [
        {
          "internalType": "address",
          "name": "_receiver",
          "type": "address"
        }
      ],
      "name": "clearStuckBalance",
      "outputs": [],
      "stateMutability": "nonpayable",
      "type": "function"
    },
    {
      "inputs": [],
      "name": "currentTimestamp",
      "outputs": [
        {
          "internalType": "uint256",
          "name": "",
          "type": "uint256"
        }
      ],
      "stateMutability": "view",
      "type": "function"
    },
    {
      "inputs": [],
      "name": "decimals",
      "outputs": [
        {
          "internalType": "uint8",
          "name": "",
          "type": "uint8"
        }
      ],
      "stateMutability": "view",
      "type": "function"
    },
    {
      "inputs": [
        {
          "internalType": "address",
          "name": "spender",
          "type": "address"
        },
        {
          "internalType": "uint256",
          "name": "subtractedValue",
          "type": "uint256"
        }
      ],
      "name": "decreaseAllowance",
      "outputs": [
        {
          "internalType": "bool",
          "name": "",
          "type": "bool"
        }
      ],
      "stateMutability": "nonpayable",
      "type": "function"
    },
    {
      "inputs": [],
      "name": "feeDenominator",
      "outputs": [
        {
          "internalType": "uint256",
          "name": "",
          "type": "uint256"
        }
      ],
      "stateMutability": "view",
      "type": "function"
    },
    {
      "inputs": [],
      "name": "getCirculatingSupply",
      "outputs": [
        {
          "internalType": "uint256",
          "name": "",
          "type": "uint256"
        }
      ],
      "stateMutability": "view",
      "type": "function"
    },
    {
      "inputs": [
        {
          "internalType": "uint256",
          "name": "accuracy",
          "type": "uint256"
        }
      ],
      "name": "getLiquidityBacking",
      "outputs": [
        {
          "internalType": "uint256",
          "name": "",
          "type": "uint256"
        }
      ],
      "stateMutability": "view",
      "type": "function"
    },
    {
      "inputs": [
        {
          "internalType": "address",
          "name": "spender",
          "type": "address"
        },
        {
          "internalType": "uint256",
          "name": "addedValue",
          "type": "uint256"
        }
      ],
      "name": "increaseAllowance",
      "outputs": [
        {
          "internalType": "bool",
          "name": "",
          "type": "bool"
        }
      ],
      "stateMutability": "nonpayable",
      "type": "function"
    },
    {
      "inputs": [],
      "name": "initialDistributionFinished",
      "outputs": [
        {
          "internalType": "bool",
          "name": "",
          "type": "bool"
        }
      ],
      "stateMutability": "view",
      "type": "function"
    },
    {
      "inputs": [
        {
          "internalType": "address",
          "name": "_router",
          "type": "address"
        },
        {
          "internalType": "address",
          "name": "_busd",
          "type": "address"
        }
      ],
      "name": "initialize",
      "outputs": [],
      "stateMutability": "nonpayable",
      "type": "function"
    },
    {
      "inputs": [],
      "name": "isLiquidityInBnb",
      "outputs": [
        {
          "internalType": "bool",
          "name": "",
          "type": "bool"
        }
      ],
      "stateMutability": "view",
      "type": "function"
    },
    {
      "inputs": [
        {
          "internalType": "uint256",
          "name": "target",
          "type": "uint256"
        },
        {
          "internalType": "uint256",
          "name": "accuracy",
          "type": "uint256"
        }
      ],
      "name": "isOverLiquified",
      "outputs": [
        {
          "internalType": "bool",
          "name": "",
          "type": "bool"
        }
      ],
      "stateMutability": "view",
      "type": "function"
    },
    {
      "inputs": [],
      "name": "liquidityFee",
      "outputs": [
        {
          "internalType": "uint256",
          "name": "",
          "type": "uint256"
        }
      ],
      "stateMutability": "view",
      "type": "function"
    },
    {
      "inputs": [],
      "name": "liquidityReceiver",
      "outputs": [
        {
          "internalType": "address",
          "name": "",
          "type": "address"
        }
      ],
      "stateMutability": "view",
      "type": "function"
    },
    {
      "inputs": [],
      "name": "manualRebase",
      "outputs": [
        {
          "internalType": "bool",
          "name": "",
          "type": "bool"
        }
      ],
      "stateMutability": "nonpayable",
      "type": "function"
    },
    {
      "inputs": [],
      "name": "manualSync",
      "outputs": [],
      "stateMutability": "nonpayable",
      "type": "function"
    },
    {
      "inputs": [],
      "name": "name",
      "outputs": [
        {
          "internalType": "string",
          "name": "",
          "type": "string"
        }
      ],
      "stateMutability": "view",
      "type": "function"
    },
    {
      "inputs": [],
      "name": "nextAutoLP",
      "outputs": [
        {
          "internalType": "uint256",
          "name": "",
          "type": "uint256"
        }
      ],
      "stateMutability": "view",
      "type": "function"
    },
    {
      "inputs": [],
      "name": "nextRebase",
      "outputs": [
        {
          "internalType": "uint256",
          "name": "",
          "type": "uint256"
        }
      ],
      "stateMutability": "view",
      "type": "function"
    },
    {
      "inputs": [],
      "name": "owner",
      "outputs": [
        {
          "internalType": "address",
          "name": "",
          "type": "address"
        }
      ],
      "stateMutability": "view",
      "type": "function"
    },
    {
      "inputs": [],
      "name": "pair",
      "outputs": [
        {
          "internalType": "address",
          "name": "",
          "type": "address"
        }
      ],
      "stateMutability": "view",
      "type": "function"
    },
    {
      "inputs": [],
      "name": "pairBusd",
      "outputs": [
        {
          "internalType": "address",
          "name": "",
          "type": "address"
        }
      ],
      "stateMutability": "view",
      "type": "function"
    },
    {
      "inputs": [],
      "name": "proxiableUUID",
      "outputs": [
        {
          "internalType": "bytes32",
          "name": "",
          "type": "bytes32"
        }
      ],
      "stateMutability": "view",
      "type": "function"
    },
    {
      "inputs": [],
      "name": "rebaseFrequency",
      "outputs": [
        {
          "internalType": "uint256",
          "name": "",
          "type": "uint256"
        }
      ],
      "stateMutability": "view",
      "type": "function"
    },
    {
      "inputs": [],
      "name": "renounceOwnership",
      "outputs": [],
      "stateMutability": "nonpayable",
      "type": "function"
    },
    {
      "inputs": [],
      "name": "rewardYield",
      "outputs": [
        {
          "internalType": "uint256",
          "name": "",
          "type": "uint256"
        }
      ],
      "stateMutability": "view",
      "type": "function"
    },
    {
      "inputs": [],
      "name": "rewardYieldDenominator",
      "outputs": [
        {
          "internalType": "uint256",
          "name": "",
          "type": "uint256"
        }
      ],
      "stateMutability": "view",
      "type": "function"
    },
    {
      "inputs": [],
      "name": "router",
      "outputs": [
        {
          "internalType": "contract IDEXRouter",
          "name": "",
          "type": "address"
        }
      ],
      "stateMutability": "view",
      "type": "function"
    },
    {
      "inputs": [],
      "name": "safetyFundFee",
      "outputs": [
        {
          "internalType": "uint256",
          "name": "",
          "type": "uint256"
        }
      ],
      "stateMutability": "view",
      "type": "function"
    },
    {
      "inputs": [],
      "name": "safetyFundReceiver",
      "outputs": [
        {
          "internalType": "address",
          "name": "",
          "type": "address"
        }
      ],
      "stateMutability": "view",
      "type": "function"
    },
    {
      "inputs": [],
      "name": "sellFeeliquidityAdded",
      "outputs": [
        {
          "internalType": "uint256",
          "name": "",
          "type": "uint256"
        }
      ],
      "stateMutability": "view",
      "type": "function"
    },
    {
      "inputs": [
        {
          "internalType": "uint256",
          "name": "_autoLPFrequency",
          "type": "uint256"
        }
      ],
      "name": "setAutoLPFrequency",
      "outputs": [],
      "stateMutability": "nonpayable",
      "type": "function"
    },
    {
      "inputs": [
        {
          "internalType": "bool",
          "name": "_autoRebase",
          "type": "bool"
        }
      ],
      "name": "setAutoRebase",
      "outputs": [],
      "stateMutability": "nonpayable",
      "type": "function"
    },
    {
      "inputs": [
        {
          "internalType": "address",
          "name": "_pair",
          "type": "address"
        },
        {
          "internalType": "bool",
          "name": "_value",
          "type": "bool"
        }
      ],
      "name": "setAutomatedMarketMakerPair",
      "outputs": [],
      "stateMutability": "nonpayable",
      "type": "function"
    },
    {
      "inputs": [
        {
          "internalType": "uint256[]",
          "name": "_bonfireBalanceThresholds",
          "type": "uint256[]"
        },
        {
          "internalType": "uint256[]",
          "name": "_bonfireFees",
          "type": "uint256[]"
        }
      ],
      "name": "setBonfireFees",
      "outputs": [],
      "stateMutability": "nonpayable",
      "type": "function"
    },
    {
      "inputs": [
        {
          "internalType": "address",
          "name": "_addr",
          "type": "address"
        },
        {
          "internalType": "bool",
          "name": "_value",
          "type": "bool"
        }
      ],
      "name": "setFeeExempt",
      "outputs": [],
      "stateMutability": "nonpayable",
      "type": "function"
    },
    {
      "inputs": [
        {
          "internalType": "address",
          "name": "_liquidityReceiver",
          "type": "address"
        },
        {
          "internalType": "address",
          "name": "_treasuryReceiver",
          "type": "address"
        },
        {
          "internalType": "address",
          "name": "_safetyFundReceiver",
          "type": "address"
        },
        {
          "internalType": "address",
          "name": "_charityReceiver",
          "type": "address"
        }
      ],
      "name": "setFeeReceivers",
      "outputs": [],
      "stateMutability": "nonpayable",
      "type": "function"
    },
    {
      "inputs": [
        {
          "internalType": "uint256",
          "name": "_liquidityFee",
          "type": "uint256"
        },
        {
          "internalType": "uint256",
          "name": "_safetyFundFee",
          "type": "uint256"
        },
        {
          "internalType": "uint256",
          "name": "_treasuryFee",
          "type": "uint256"
        },
        {
          "internalType": "uint256",
          "name": "_sellFeeliquidityAdded",
          "type": "uint256"
        },
        {
          "internalType": "uint256",
          "name": "_feeDenominator",
          "type": "uint256"
        }
      ],
      "name": "setFees",
      "outputs": [],
      "stateMutability": "nonpayable",
      "type": "function"
    },
    {
      "inputs": [
        {
          "internalType": "bool",
          "name": "_value",
          "type": "bool"
        }
      ],
      "name": "setInitialDistributionFinished",
      "outputs": [],
      "stateMutability": "nonpayable",
      "type": "function"
    },
    {
      "inputs": [
        {
          "internalType": "bool",
          "name": "_value",
          "type": "bool"
        }
      ],
      "name": "setIsLiquidityInBnb",
      "outputs": [],
      "stateMutability": "nonpayable",
      "type": "function"
    },
    {
      "inputs": [
        {
          "internalType": "uint256",
          "name": "_nextAutoLP",
          "type": "uint256"
        }
      ],
      "name": "setNextAutoLP",
      "outputs": [],
      "stateMutability": "nonpayable",
      "type": "function"
    },
    {
      "inputs": [
        {
          "internalType": "uint256",
          "name": "_nextRebase",
          "type": "uint256"
        }
      ],
      "name": "setNextRebase",
      "outputs": [],
      "stateMutability": "nonpayable",
      "type": "function"
    },
    {
      "inputs": [
        {
          "internalType": "uint256",
          "name": "_rebaseFrequency",
          "type": "uint256"
        }
      ],
      "name": "setRebaseFrequency",
      "outputs": [],
      "stateMutability": "nonpayable",
      "type": "function"
    },
    {
      "inputs": [
        {
          "internalType": "uint256",
          "name": "_rewardYield",
          "type": "uint256"
        },
        {
          "internalType": "uint256",
          "name": "_rewardYieldDenominator",
          "type": "uint256"
        }
      ],
      "name": "setRewardYield",
      "outputs": [],
      "stateMutability": "nonpayable",
      "type": "function"
    },
    {
      "inputs": [
        {
          "internalType": "bool",
          "name": "_enabled",
          "type": "bool"
        },
        {
          "internalType": "uint256",
          "name": "_num",
          "type": "uint256"
        },
        {
          "internalType": "uint256",
          "name": "_denom",
          "type": "uint256"
        }
      ],
      "name": "setSwapBackSettings",
      "outputs": [],
      "stateMutability": "nonpayable",
      "type": "function"
    },
    {
      "inputs": [
        {
          "internalType": "uint256",
          "name": "target",
          "type": "uint256"
        },
        {
          "internalType": "uint256",
          "name": "accuracy",
          "type": "uint256"
        }
      ],
      "name": "setTargetLiquidity",
      "outputs": [],
      "stateMutability": "nonpayable",
      "type": "function"
    },
    {
      "inputs": [],
      "name": "swapEnabled",
      "outputs": [
        {
          "internalType": "bool",
          "name": "",
          "type": "bool"
        }
      ],
      "stateMutability": "view",
      "type": "function"
    },
    {
      "inputs": [],
      "name": "symbol",
      "outputs": [
        {
          "internalType": "string",
          "name": "",
          "type": "string"
        }
      ],
      "stateMutability": "view",
      "type": "function"
    },
    {
      "inputs": [],
      "name": "totalBurnFee",
      "outputs": [
        {
          "internalType": "uint256",
          "name": "",
          "type": "uint256"
        }
      ],
      "stateMutability": "view",
      "type": "function"
    },
    {
      "inputs": [],
      "name": "totalBuyFee",
      "outputs": [
        {
          "internalType": "uint256",
          "name": "",
          "type": "uint256"
        }
      ],
      "stateMutability": "view",
      "type": "function"
    },
    {
      "inputs": [],
      "name": "totalCharityFee",
      "outputs": [
        {
          "internalType": "uint256",
          "name": "",
          "type": "uint256"
        }
      ],
      "stateMutability": "view",
      "type": "function"
    },
    {
      "inputs": [],
      "name": "totalLiquidityFee",
      "outputs": [
        {
          "internalType": "uint256",
          "name": "",
          "type": "uint256"
        }
      ],
      "stateMutability": "view",
      "type": "function"
    },
    {
      "inputs": [],
      "name": "totalSafetyFundFee",
      "outputs": [
        {
          "internalType": "uint256",
          "name": "",
          "type": "uint256"
        }
      ],
      "stateMutability": "view",
      "type": "function"
    },
    {
      "inputs": [],
      "name": "totalSellFee",
      "outputs": [
        {
          "internalType": "uint256",
          "name": "",
          "type": "uint256"
        }
      ],
      "stateMutability": "view",
      "type": "function"
    },
    {
      "inputs": [],
      "name": "totalSupply",
      "outputs": [
        {
          "internalType": "uint256",
          "name": "",
          "type": "uint256"
        }
      ],
      "stateMutability": "view",
      "type": "function"
    },
    {
      "inputs": [],
      "name": "totalTreasuryFee",
      "outputs": [
        {
          "internalType": "uint256",
          "name": "",
          "type": "uint256"
        }
      ],
      "stateMutability": "view",
      "type": "function"
    },
    {
      "inputs": [
        {
          "internalType": "address",
          "name": "to",
          "type": "address"
        },
        {
          "internalType": "uint256",
          "name": "value",
          "type": "uint256"
        }
      ],
      "name": "transfer",
      "outputs": [
        {
          "internalType": "bool",
          "name": "",
          "type": "bool"
        }
      ],
      "stateMutability": "nonpayable",
      "type": "function"
    },
    {
      "inputs": [
        {
          "internalType": "address",
          "name": "from",
          "type": "address"
        },
        {
          "internalType": "address",
          "name": "to",
          "type": "address"
        },
        {
          "internalType": "uint256",
          "name": "value",
          "type": "uint256"
        }
      ],
      "name": "transferFrom",
      "outputs": [
        {
          "internalType": "bool",
          "name": "",
          "type": "bool"
        }
      ],
      "stateMutability": "nonpayable",
      "type": "function"
    },
    {
      "inputs": [
        {
          "internalType": "address",
          "name": "newOwner",
          "type": "address"
        }
      ],
      "name": "transferOwnership",
      "outputs": [],
      "stateMutability": "nonpayable",
      "type": "function"
    },
    {
      "inputs": [],
      "name": "treasuryFee",
      "outputs": [
        {
          "internalType": "uint256",
          "name": "",
          "type": "uint256"
        }
      ],
      "stateMutability": "view",
      "type": "function"
    },
    {
      "inputs": [],
      "name": "treasuryReceiver",
      "outputs": [
        {
          "internalType": "address",
          "name": "",
          "type": "address"
        }
      ],
      "stateMutability": "view",
      "type": "function"
    },
    {
      "inputs": [
        {
          "internalType": "address",
          "name": "newImplementation",
          "type": "address"
        }
      ],
      "name": "upgradeTo",
      "outputs": [],
      "stateMutability": "nonpayable",
      "type": "function"
    },
    {
      "inputs": [
        {
          "internalType": "address",
          "name": "newImplementation",
          "type": "address"
        },
        {
          "internalType": "bytes",
          "name": "data",
          "type": "bytes"
        }
      ],
      "name": "upgradeToAndCall",
      "outputs": [],
      "stateMutability": "payable",
      "type": "function"
    },
    {
      "stateMutability": "payable",
      "type": "receive"
    }
  ],
  "bytecode": "0x60a06040523060601b60805234801561001757600080fd5b5060805160601c6152f6610052600039600081816115eb0152818161162b01528181611990015281816119d00152611a4c01526152f66000f3fe6080604052600436106103a85760003560e01c806301b16827146103b457806304a66b48146103d657806306fdde03146103f657806308b1fd8f14610421578063095ea7b31461044e5780630af083141461047e5780630e30b850146104a25780631082bbe4146104b75780631161ae39146104d7578063123bc105146104f75780631276089b1461050d578063180b0d7e1461052d57806318160ddd146105435780631e2ff94f14610558578063201e79911461056b5780632062e1871461058b57806323b872dd146105a1578063264d26dd146105c15780632b112e49146105e15780632c39ce4e146105f6578063313ce56714610616578063324db30f146106385780633659cfe61461064e578063395093511461066e5780633c8e556d1461068e5780633d61b42c146106ae5780633f0e4705146106ce57806341fbffc0146106ee578063485cc9551461070457806348aa24b414610724578063499045431461073a5780634cd9ddf2146107505780634f1ef2861461077057806350603b2d146107835780635266c32f1461079957806352d1902d146107b9578063544727bc146107ce578063567df3a8146107ee57806358a8af291461080457806359b107b91461081a578063611436d11461083057806361a9d1b1146108505780636d351d1a146108655780636ddd17131461087a5780636def69e11461089a57806370a08231146108af578063715018a6146108cf57806374318224146108e4578063753d02a1146108fa578063764d72bf1461090f5780637f2b9f901461092f578063835439c71461094557806389375abf146109665780638da5cb5b1461097c5780638ebfc796146109915780638fe07970146109b15780639079f932146109c757806392f6576e1461089a57806395d89b41146109e857806398118cb4146109fd5780639a7a23d614610a135780639ae7372d14610a335780639d9241ec14610a53578063a457c2d714610a69578063a8aa1b3114610a89578063a9059cbb14610aa9578063b62496f514610ac9578063bc7e68a314610af9578063c994c7d814610b0f578063cc32d17614610b25578063d088935814610b3b578063d1fce26414610b5b578063d439979014610b7a578063d51ed1c814610bb3578063d7832b1114610bd3578063dd62ed3e14610be9578063de0e701414610c2f578063e15beb8014610c4f578063e1d5584c14610c6f578063ea6930af14610c8f578063f1efdfd514610caf578063f2fde38b14610ccf578063f887ea4014610cef57600080fd5b366103af57005b600080fd5b3480156103c057600080fd5b506103d46103cf366004614bad565b610d0f565b005b3480156103e257600080fd5b506103d46103f1366004614bfb565b610d8f565b34801561040257600080fd5b5061040b610f9f565b6040516104189190614cf7565b60405180910390f35b34801561042d57600080fd5b5060d654610441906001600160a01b031681565b6040516104189190614c8b565b34801561045a57600080fd5b5061046e610469366004614a86565b611031565b6040519015158152602001610418565b34801561048a57600080fd5b5061049460cc5481565b604051908152602001610418565b3480156104ae57600080fd5b50610494600d81565b3480156104c357600080fd5b506103d46104d2366004614ab1565b61108c565b3480156104e357600080fd5b5061046e6104f2366004614bad565b6112d3565b34801561050357600080fd5b5061049460d05481565b34801561051957600080fd5b506103d4610528366004614b11565b6112e7565b34801561053957600080fd5b5061049460e55481565b34801561054f57600080fd5b5060f254610494565b34801561056457600080fd5b5042610494565b34801561057757600080fd5b506103d4610586366004614bad565b611397565b34801561059757600080fd5b5061049460ed5481565b3480156105ad57600080fd5b5061046e6105bc366004614978565b611406565b3480156105cd57600080fd5b5060d554610441906001600160a01b031681565b3480156105ed57600080fd5b50610494611529565b34801561060257600080fd5b50610494610611366004614b95565b6115bf565b34801561062257600080fd5b5060cb5460405160ff9091168152602001610418565b34801561064457600080fd5b5061049460f05481565b34801561065a57600080fd5b506103d46106693660046148ad565b6115e0565b34801561067a57600080fd5b5061046e610689366004614a86565b6116a9565b34801561069a57600080fd5b506103d46106a936600461491d565b61171c565b3480156106ba57600080fd5b506104946106c9366004614b95565b6117e6565b3480156106da57600080fd5b506103d46106e9366004614b95565b6117f6565b3480156106fa57600080fd5b5061049460df5481565b34801561071057600080fd5b506103d461071f3660046148e5565b61185a565b34801561073057600080fd5b5061049460ee5481565b34801561074657600080fd5b5061049460e05481565b34801561075c57600080fd5b506103d461076b366004614b95565b6118e4565b6103d461077e3660046149e5565b611985565b34801561078f57600080fd5b5061049460ec5481565b3480156107a557600080fd5b5060dc54610441906001600160a01b031681565b3480156107c557600080fd5b50610494611a3f565b3480156107da57600080fd5b506103d46107e9366004614b11565b611aed565b3480156107fa57600080fd5b5061049460d15481565b34801561081057600080fd5b5061049460e85481565b34801561082657600080fd5b5061049460e15481565b34801561083c57600080fd5b5060d854610441906001600160a01b031681565b34801561085c57600080fd5b5061046e611b98565b34801561087157600080fd5b50610494611ca2565b34801561088657600080fd5b5060cb5461046e9062010000900460ff1681565b3480156108a657600080fd5b50610494601281565b3480156108bb57600080fd5b506104946108ca3660046148ad565b611cbb565b3480156108db57600080fd5b506103d4611ce3565b3480156108f057600080fd5b5061049460e75481565b34801561090657600080fd5b506103d4611d1e565b34801561091b57600080fd5b506103d461092a3660046148ad565b611dc2565b34801561093b57600080fd5b5061049460ef5481565b34801561095157600080fd5b5060cb5461046e90600160201b900460ff1681565b34801561097257600080fd5b5061049460ce5481565b34801561098857600080fd5b50610441611e59565b34801561099d57600080fd5b506103d46109ac3660046149b8565b611e68565b3480156109bd57600080fd5b5061049460e65481565b3480156109d357600080fd5b5060cb5461046e906301000000900460ff1681565b3480156109f457600080fd5b5061040b611f32565b348015610a0957600080fd5b5061049460dd5481565b348015610a1f57600080fd5b506103d4610a2e3660046149b8565b611f41565b348015610a3f57600080fd5b506103d4610a4e366004614b95565b612213565b348015610a5f57600080fd5b5061049460e25481565b348015610a7557600080fd5b5061046e610a84366004614a86565b612277565b348015610a9557600080fd5b5060db54610441906001600160a01b031681565b348015610ab557600080fd5b5061046e610ac4366004614a86565b61234c565b348015610ad557600080fd5b5061046e610ae43660046148ad565b60d46020526000908152604090205460ff1681565b348015610b0557600080fd5b5061049460cf5481565b348015610b1b57600080fd5b5061049460e95481565b348015610b3157600080fd5b5061049460de5481565b348015610b4757600080fd5b506103d4610b56366004614b49565b61238b565b348015610b6757600080fd5b5060cb5461046e90610100900460ff1681565b348015610b8657600080fd5b5061046e610b953660046148ad565b6001600160a01b0316600090815260d2602052604090205460ff1690565b348015610bbf57600080fd5b50610494610bce366004614b95565b612452565b348015610bdf57600080fd5b5061049460cd5481565b348015610bf557600080fd5b50610494610c043660046148e5565b6001600160a01b03918216600090815260f66020908152604080832093909416825291909152205490565b348015610c3b57600080fd5b5060d954610441906001600160a01b031681565b348015610c5b57600080fd5b506103d4610c6a366004614b11565b6124f4565b348015610c7b57600080fd5b50610441610c8a366004614b95565b61259f565b348015610c9b57600080fd5b506103d4610caa366004614b95565b6125c9565b348015610cbb57600080fd5b5060d754610441906001600160a01b031681565b348015610cdb57600080fd5b506103d4610cea3660046148ad565b61262d565b348015610cfb57600080fd5b5060da54610441906001600160a01b031681565b33610d18611e59565b6001600160a01b031614610d475760405162461bcd60e51b8152600401610d3e90614e11565b60405180910390fd5b60cc82905560cd81905560408051838152602081018390527f3f34134cbdd92374af629b5ba82900de3e5301e7206333e1463e306916507d5691015b60405180910390a15050565b33610d98611e59565b6001600160a01b031614610dbe5760405162461bcd60e51b8152600401610d3e90614e11565b60128511158015610dd0575060128411155b8015610ddd575060128311155b8015610dea575060128211155b610e1e5760405162461bcd60e51b815260206004820152600560248201526477726f6e6760d81b6044820152606401610d3e565b60dd85905560df84905560de83905560e0829055610e4684610e4087866126ca565b906126ca565b60e181905560e054610e5891906126ca565b60e25560e154600d1015610eaa5760405162461bcd60e51b81526020600482015260196024820152780a8dee8c2d84084aab240cccaca40d2e640e8dede40d0d2ced603b1b6044820152606401610d3e565b601260e2541115610efa5760405162461bcd60e51b815260206004820152601a6024820152790a8dee8c2d840a68a989840cccaca40d2e640e8dede40d0d2ced60331b6044820152606401610d3e565b60e5819055610f0a600482614f8f565b60e15410610f485760405162461bcd60e51b815260206004820152600b60248201526a746f74616c42757946656560a81b6044820152606401610d3e565b604080518681526020810186905290810184905260608101839052608081018290527f881c278b86ef48391462a184ea0f2a579fec4c752524d2982eb0e2c9a956b7a39060a0015b60405180910390a15050505050565b606060c98054610fae906150f0565b80601f0160208091040260200160405190810160405280929190818152602001828054610fda906150f0565b80156110275780601f10610ffc57610100808354040283529160200191611027565b820191906000526020600020905b81548152906001019060200180831161100a57829003601f168201915b5050505050905090565b33600081815260f6602090815260408083206001600160a01b038716808552925280832085905551919290916000805160206152818339815191529061107a9086815260200190565b60405180910390a35060015b92915050565b33611095611e59565b6001600160a01b0316146110bb5760405162461bcd60e51b8152600401610d3e90614e11565b80518251146110ff5760405162461bcd60e51b815260206004820152601060248201526f0dcdee840cae2eac2d840d8cadccee8d60831b6044820152606401610d3e565b8151806001600160401b0381111561112757634e487b7160e01b600052604160045260246000fd5b604051908082528060200260200182016040528015611150578160200160208202803683370190505b5080516111659160e3916020909101906146d6565b50806001600160401b0381111561118c57634e487b7160e01b600052604160045260246000fd5b6040519080825280602002602001820160405280156111b5578160200160208202803683370190505b5080516111ca9160e4916020909101906146d6565b5060005b81811015611294578381815181106111f657634e487b7160e01b600052603260045260246000fd5b602002602001015160e3828154811061121f57634e487b7160e01b600052603260045260246000fd5b906000526020600020018190555082818151811061124d57634e487b7160e01b600052603260045260246000fd5b602002602001015160e4828154811061127657634e487b7160e01b600052603260045260246000fd5b6000918252602090912001558061128c8161512b565b9150506111ce565b507f99224d84de960b2f94de268d3612c0e057da1398e4b506cdfdef20ca8f2163cc83836040516112c6929190614cd2565b60405180910390a1505050565b6000826112df83612452565b119392505050565b336112f0611e59565b6001600160a01b0316146113165760405162461bcd60e51b8152600401610d3e90614e11565b60cb5460ff61010090910416151581151514156113455760405162461bcd60e51b8152600401610d3e90614d2a565b60cb805461ff001916610100831515021790556040517f7ff743f3545e37dc045546239e43c5339aa2a94f682e0350554fb0fb044ed3769061138c90831515815260200190565b60405180910390a150565b336113a0611e59565b6001600160a01b0316146113c65760405162461bcd60e51b8152600401610d3e90614e11565b60ea82905560eb81905560408051838152602081018390527f61b037fbf40888c3d344a3dfa6986a7d511feda40cac15b93162e3e21713aed69101610d83565b6000826001600160a01b03811661142f5760405162461bcd60e51b8152600401610d3e90614e91565b6001600160a01b038516600090815260f6602090815260408083203384529091529020546000191461151257336001600160a01b03851614158061148c57506001600160a01b038416600090815260d2602052604090205460ff16155b15611512576040805180820182526016815275496e73756666696369656e7420416c6c6f77616e636560501b6020808301919091526001600160a01b038816600090815260f6825283812033825290915291909120546114ed9185906126d6565b6001600160a01b038616600090815260f6602090815260408083203384529091529020555b61151d858585612702565b50600195945050505050565b60f35460f56020527f84b4d0501e1ebb84b790e8bf784bd8e281da1f0706e679555c81e94160fff2a45461dead60009081526000805160206151da8339815191525490926115ba9290916115b491906115ae906115886012600a614fe6565b6115969063ee6b280061508e565b6115a290600019615146565b6115ae906000196150ad565b9061293f565b9061294b565b905090565b60e381815481106115cf57600080fd5b600091825260209091200154905081565b306001600160a01b037f00000000000000000000000000000000000000000000000000000000000000001614156116295760405162461bcd60e51b8152600401610d3e90614d4f565b7f00000000000000000000000000000000000000000000000000000000000000006001600160a01b031661165b612957565b6001600160a01b0316146116815760405162461bcd60e51b8152600401610d3e90614d89565b61168a81612973565b604080516000808252602082019092526116a6918391906129a2565b50565b33600090815260f6602090815260408083206001600160a01b03861684529091528120546116d790836126ca565b33600081815260f6602090815260408083206001600160a01b03891680855290835292819020859055519384529092600080516020615281833981519152910161107a565b33611725611e59565b6001600160a01b03161461174b5760405162461bcd60e51b8152600401610d3e90614e11565b60d580546001600160a01b038681166001600160a01b0319928316811790935560d68054878316908416811790915560d78054878416908516811790915560d8805493871693909416831790935560408051948552602085019190915283019190915260608201527f0824f26a5a1c7f10b10915a7b3391149cf6bd9af4fc0c2da7e492fdaadc2e0609060800160405180910390a150505050565b60e481815481106115cf57600080fd5b336117ff611e59565b6001600160a01b0316146118255760405162461bcd60e51b8152600401610d3e90614e11565b60d08190556040518181527f41d7fce710ca4ebbc34f7f67eae511827de435b1c9bd90cf8d38da8655514c289060200161138c565b600054610100900460ff166118755760005460ff161561187d565b61187d612b1c565b6118995760405162461bcd60e51b8152600401610d3e90614dc3565b600054610100900460ff161580156118bb576000805461ffff19166101011790555b6118c3612b2d565b6118cd8383612b5c565b80156118df576000805461ff00191690555b505050565b336118ed611e59565b6001600160a01b0316146119135760405162461bcd60e51b8152600401610d3e90614e11565b6107088111156119505760405162461bcd60e51b81526020600482015260086024820152670a8dede40d0d2ced60c31b6044820152606401610d3e565b60ce8190556040518181527f2b437b36906bbacfbc05b761a7c548a2789a8f89f67286f88e93b04560822bc79060200161138c565b306001600160a01b037f00000000000000000000000000000000000000000000000000000000000000001614156119ce5760405162461bcd60e51b8152600401610d3e90614d4f565b7f00000000000000000000000000000000000000000000000000000000000000006001600160a01b0316611a00612957565b6001600160a01b031614611a265760405162461bcd60e51b8152600401610d3e90614d89565b611a2f82612973565b611a3b828260016129a2565b5050565b6000306001600160a01b037f00000000000000000000000000000000000000000000000000000000000000001614611ada5760405162461bcd60e51b815260206004820152603860248201527f555550535570677261646561626c653a206d757374206e6f742062652063616c6044820152771b1959081d1a1c9bdd59da0819195b1959d85d1958d85b1b60421b6064820152608401610d3e565b5060008051602061521a83398151915290565b33611af6611e59565b6001600160a01b031614611b1c5760405162461bcd60e51b8152600401610d3e90614e11565b60cb5460ff600160201b9091041615158115151415611b4d5760405162461bcd60e51b8152600401610d3e90614d2a565b60cb805460ff60201b1916600160201b831515021790556040517f83e471af05d20b81366748ebaab0192fabe382e712b4f6eb181d018c41a799a79061138c90831515815260200190565b60f15460009060ff1615611bda5760405162461bcd60e51b81526020600482015260096024820152682a393c9030b3b0b4b760b91b6044820152606401610d3e565b60d6546001600160a01b03163314611c345760405162461bcd60e51b815260206004820181905260248201527f73656e6465722073686f756c642062652074726561737572792077616c6c65746044820152606401610d3e565b6000611c5360cd546115b460cc5460f2546135aa90919063ffffffff16565b9050611c5e816135b6565b50611c67611d1e565b6040518181527f612668bb4420df7d3f2fcc122dfd5fd434dc0cb2e1dce1b8180712f9200677119060200160405180910390a1600191505090565b60006115ba60f35460f45461294b90919063ffffffff16565b60f3546001600160a01b038216600090815260f560205260408120549091611086919061294b565b33611cec611e59565b6001600160a01b031614611d125760405162461bcd60e51b8152600401610d3e90614e11565b611d1c600061368f565b565b60005b60d3548110156116a65760d38181548110611d4c57634e487b7160e01b600052603260045260246000fd5b60009182526020822001546040805160016209351760e01b0319815290516001600160a01b039092169263fff6cae99260048084019382900301818387803b158015611d9757600080fd5b505af1158015611dab573d6000803e3d6000fd5b505050508080611dba9061512b565b915050611d21565b33611dcb611e59565b6001600160a01b031614611df15760405162461bcd60e51b8152600401610d3e90614e11565b60405147906001600160a01b0383169082156108fc029083906000818181858888f19350505050158015611e29573d6000803e3d6000fd5b507f2f0f983bc447da14da80ef6b41a88ab1ea636129df3a6af92b870934d6802a8582604051610d839190614c8b565b6097546001600160a01b031690565b33611e71611e59565b6001600160a01b031614611e975760405162461bcd60e51b8152600401610d3e90614e11565b6001600160a01b038216600090815260d2602052604090205460ff1615158115151415611ed65760405162461bcd60e51b8152600401610d3e90614d2a565b6001600160a01b038216600081815260d26020908152604091829020805460ff19168515159081179091558251938452908301527f6be51401060be42994125d8c96b787433e7a641a3555e3c3c4765e8a950fa37a9101610d83565b606060ca8054610fae906150f0565b33611f4a611e59565b6001600160a01b031614611f705760405162461bcd60e51b8152600401610d3e90614e11565b6001600160a01b038216600090815260d4602052604090205460ff1615158115151415611fd35760405162461bcd60e51b815260206004820152601160248201527015985b1d5948185b1c9958591e481cd95d607a1b6044820152606401610d3e565b6001600160a01b038216600090815260d460205260409020805460ff191682158015919091179091556120505760d380546001810182556000919091527f915c3eb987b20e1af620c1403197bf687fb7f18513b3a73fde6e78c7072c41a60180546001600160a01b0319166001600160a01b0384161790556121d7565b60d3546001106120945760405162461bcd60e51b815260206004820152600f60248201526e2932b8bab4b932b21018903830b4b960891b6044820152606401610d3e565b60005b60d3548110156121d557826001600160a01b031660d382815481106120cc57634e487b7160e01b600052603260045260246000fd5b6000918252602090912001546001600160a01b031614156121c35760d380546120f7906001906150ad565b8154811061211557634e487b7160e01b600052603260045260246000fd5b60009182526020909120015460d380546001600160a01b03909216918390811061214f57634e487b7160e01b600052603260045260246000fd5b9060005260206000200160006101000a8154816001600160a01b0302191690836001600160a01b0316021790555060d380548061219c57634e487b7160e01b600052603160045260246000fd5b600082815260209020810160001990810180546001600160a01b03191690550190556121d5565b806121cd8161512b565b915050612097565b505b604051811515906001600160a01b038416907fffa9187bf1f18bf477bd0ea1bcbb64e93b6a98132473929edfce215cd9b16fab90600090a35050565b3361221c611e59565b6001600160a01b0316146122425760405162461bcd60e51b8152600401610d3e90614e11565b60cf8190556040518181527fde97971104f1e2ea739b6fa6bd7a7eb834d3ed54ffa08425c5eb48ed9fbc27b69060200161138c565b33600090815260f6602090815260408083206001600160a01b03861684529091528120548083106122cb5733600090815260f6602090815260408083206001600160a01b03881684529091528120556122fa565b6122d5818461293f565b33600090815260f6602090815260408083206001600160a01b03891684529091529020555b33600081815260f6602090815260408083206001600160a01b03891680855290835292819020549051908152919291600080516020615281833981519152910160405180910390a35060019392505050565b6000826001600160a01b0381166123755760405162461bcd60e51b8152600401610d3e90614e91565b612380338585612702565b506001949350505050565b33612394611e59565b6001600160a01b0316146123ba5760405162461bcd60e51b8152600401610d3e90614e11565b60cb805462ff00001916620100008515150217905561240f82612409836123e36012600a614fe6565b6123f19063ee6b280061508e565b6123fd90600019615146565b6115b4906000196150ad565b906135aa565b60f455604080518415158152602081018490529081018290527f512cfe1aedabdc06d12a680ace7434d88a9532c8853515536842f5ff52cbe55a906060016112c6565b600080805b60d3548110156124c4576124b16124aa633b9aca006115b460d3858154811061249057634e487b7160e01b600052603260045260246000fd5b6000918252602090912001546001600160a01b0316611cbb565b83906126ca565b50806124bc8161512b565b915050612457565b506124ed6124d8633b9aca006115b4611529565b6115b46124e68460026135aa565b86906135aa565b9392505050565b336124fd611e59565b6001600160a01b0316146125235760405162461bcd60e51b8152600401610d3e90614e11565b60cb5460ff630100000090910416151581151514156125545760405162461bcd60e51b8152600401610d3e90614d2a565b60cb805463ff00000019166301000000831515021790556040517f76a3b4a2762dae8901450e92a099b166b4ec4b38d2509a67740a4d48fc6424609061138c90831515815260200190565b60d381815481106125af57600080fd5b6000918252602090912001546001600160a01b0316905081565b336125d2611e59565b6001600160a01b0316146125f85760405162461bcd60e51b8152600401610d3e90614e11565b60d18190556040518181527f3685ed04d3a6b8874d2101ccf5b38373f324143b556ab0e1341563a66a52dee09060200161138c565b33612636611e59565b6001600160a01b03161461265c5760405162461bcd60e51b8152600401610d3e90614e11565b6001600160a01b0381166126c15760405162461bcd60e51b815260206004820152602660248201527f4f776e61626c653a206e6577206f776e657220697320746865207a65726f206160448201526564647265737360d01b6064820152608401610d3e565b6116a68161368f565b60006124ed8284614f77565b600081848411156126fa5760405162461bcd60e51b8152600401610d3e9190614cf7565b505050900390565b6001600160a01b038316600090815260d26020526040812054819060ff168061274357506001600160a01b038416600090815260d2602052604090205460ff165b60cb54909150610100900460ff16806127595750805b61279b5760405162461bcd60e51b8152602060048201526013602482015272151c98591a5b99c81b9bdd081cdd185c9d1959606a1b6044820152606401610d3e565b60f15460ff16156127b9576127b18585856136e1565b9150506124ed565b60006127d060f354856135aa90919063ffffffff16565b90506127da6137a3565b156127e7576127e76137ff565b6001600160a01b038616600090815260f5602052604090205461280a908261293f565b6001600160a01b038716600090815260f560205260408120919091556128308787613abf565b61283a5781612845565b612845878784613b51565b6001600160a01b038716600090815260f5602052604090205490915061286b90826126ca565b6001600160a01b03808816600081815260f5602052604090209290925560f35490891690600080516020615261833981519152906128aa90859061294b565b60405190815260200160405180910390a360cf5442101580156128d6575060cb546301000000900460ff165b15612932576128e3613d20565b6001600160a01b038716600090815260d4602052604090205460ff1615801561292557506001600160a01b038616600090815260d4602052604090205460ff16155b1561293257612932611d1e565b5060019695505050505050565b60006124ed82846150ad565b60006124ed8284614f8f565b60008051602061521a833981519152546001600160a01b031690565b3361297c611e59565b6001600160a01b0316146116a65760405162461bcd60e51b8152600401610d3e90614e11565b7f4910fdfa16fed3260ed0e7147f7cc6da11a60208b5b9406d12a635614ffd91435460ff16156129d5576118df83613d54565b826001600160a01b03166352d1902d6040518163ffffffff1660e01b815260040160206040518083038186803b158015612a0e57600080fd5b505afa925050508015612a3e575060408051601f3d908101601f19168201909252612a3b91810190614b7d565b60015b612aa15760405162461bcd60e51b815260206004820152602e60248201527f45524331393637557067726164653a206e657720696d706c656d656e7461746960448201526d6f6e206973206e6f74205555505360901b6064820152608401610d3e565b60008051602061521a8339815191528114612b105760405162461bcd60e51b815260206004820152602960248201527f45524331393637557067726164653a20756e737570706f727465642070726f786044820152681a58589b195555525160ba1b6064820152608401610d3e565b506118df838383613dee565b6000612b2730613e19565b15905090565b600054610100900460ff16612b545760405162461bcd60e51b8152600401610d3e90614e46565b611d1c613e28565b600054610100900460ff16612b775760005460ff1615612b7f565b612b7f612b1c565b612b9b5760405162461bcd60e51b8152600401610d3e90614dc3565b600054610100900460ff16158015612bbd576000805461ffff19166101011790555b60408051808201909152600c8082526b29bbb2b63637902a37b5b2b760a11b6020909201918252612bf09160c991614721565b506040805180820190915260048082526353574c4f60e01b6020909201918252612c1c9160ca91614721565b5060cb805460d580546001600160a01b0319908116738f00867f18db6851910b1ad1758a379166aa361a1790915560d680548216736985e759f4fc4c4ecbf96c232a25ab0b84094ca617905560d78054821673511396d971405bc99ea2031b1ca579c11a5dc22c17905560d880549091167342337ba4fef99d3ad6339cf84b8f2ce3e22fbfff17905564010001001264ffffffffff19909116179055621fc2b060cc556402540be40060cd5561038460ce55612cdc426301e13380614f77565b60cf556202a30060d055612cf4426301e13380614f77565b60d155600260dd819055600360de819055600560df81905560e0819055612d21929091610e4091906126ca565b60e181905560e054612d3391906126ca565b60e2556040805161010081018252620186a081526203d09060208201526207a12091810191909152620f42406060820152621e84806080820152622dc6c060a0820152623d090060c0820152624c4b4060e0820152612d969060e3906008614794565b50604080516101008101825260018152600260208201526003918101919091526004606082015260056080820152600660a0820152600760c0820152600860e08201819052612de79160e4916147d6565b50606460e555603c60e6819055601e60e7819055600a60e8819055612e12929091610e4091906126ca565b60e955603260ea55606460eb556103e8612e2e6012600a614fe6565b612e3c9063ee6b280061508e565b612e4890600019615146565b612e54906000196150ad565b612e5e9190614f8f565b60f45560d980546001600160a01b038085166001600160a01b03199283161790925560da805492861692909116821790556040805163c45a015560e01b8152905163c45a015591600480820192602092909190829003018186803b158015612ec557600080fd5b505afa158015612ed9573d6000803e3d6000fd5b505050506040513d601f19601f82011682018060405250810190612efd91906148c9565b6001600160a01b031663c9c653963060da60009054906101000a90046001600160a01b03166001600160a01b031663ad5c46486040518163ffffffff1660e01b815260040160206040518083038186803b158015612f5a57600080fd5b505afa158015612f6e573d6000803e3d6000fd5b505050506040513d601f19601f82011682018060405250810190612f9291906148c9565b6040518363ffffffff1660e01b8152600401612faf929190614c9f565b602060405180830381600087803b158015612fc957600080fd5b505af1158015612fdd573d6000803e3d6000fd5b505050506040513d601f19601f8201168201806040525081019061300191906148c9565b60db80546001600160a01b0319166001600160a01b0392831617905560da546040805163c45a015560e01b81529051919092169163c45a0155916004808301926020929190829003018186803b15801561305a57600080fd5b505afa15801561306e573d6000803e3d6000fd5b505050506040513d601f19601f8201168201806040525081019061309291906148c9565b60d9546040516364e329cb60e11b81526001600160a01b039283169263c9c65396926130c692309290911690600401614c9f565b602060405180830381600087803b1580156130e057600080fd5b505af11580156130f4573d6000803e3d6000fd5b505050506040513d601f19601f8201168201806040525081019061311891906148c9565b60dc80546001600160a01b0319166001600160a01b0392831617815530600081815260f66020908152604080832060da54871684529091528082206000199081905560db5486168352818320819055928252808220839055925490931683529082205560ec81905560ed81905560ee81905560ef81905560f08190555b60e354811015613220576131ab6012600a614fe6565b60e382815481106131cc57634e487b7160e01b600052603260045260246000fd5b90600052602060002001546131e1919061508e565b60e3828154811061320257634e487b7160e01b600052603260045260246000fd5b600091825260209091200155806132188161512b565b915050613195565b5060db54613238906001600160a01b03166001611f41565b60dc5461324f906001600160a01b03166001611f41565b600061326961015e6124096127106123e36012600a614fe6565b9050600061328460326124096127106123e36012600a614fe6565b90506132926012600a614fe6565b6132a09063ee6b280061508e565b60f28190556132b5906123e36012600a614fe6565b60f3556132cc816115ae846115886012600a614fe6565b33600081815260f560209081526040808320949094557fc6c241e1cbb7f58ac256f3f4acc91873fa2a3022a62a9d16e2588964f5e415418690557f1e4a4acaa18bf25eaaa932179ec1c1560493ed757b668b620dcc68f06b9916c985905560d6546001600160a01b03908116835260d29091528382208054600160ff19918216811790925560d75483168452858420805482168317905560d854831684528584208054821683179055308452858420805482168317905593835284832080548516821790557f20232a89a4296248e97fd344cc729d07b1f156d5158c984ef574843659876742805485168217905573b2fa4a7c676f9130cdadbafe2246991b8f50563c9092527f8f85f64f24d1604f87a0363e9b141554cf1a2a484c97248e2df6c41d09f663b0805490931690911790915560d95460da54925163095ea7b360e01b81529082169263095ea7b39261342d9291169060001990600401614cb9565b602060405180830381600087803b15801561344757600080fd5b505af115801561345b573d6000803e3d6000fd5b505050506040513d601f19601f8201168201806040525081019061347f9190614b2d565b5060d95460dc5460405163095ea7b360e01b81526001600160a01b039283169263095ea7b3926134b89291169060001990600401614cb9565b602060405180830381600087803b1580156134d257600080fd5b505af11580156134e6573d6000803e3d6000fd5b505050506040513d601f19601f8201168201806040525081019061350a9190614b2d565b5060d95460405163095ea7b360e01b81526001600160a01b039091169063095ea7b39061353f90309060001990600401614cb9565b602060405180830381600087803b15801561355957600080fd5b505af115801561356d573d6000803e3d6000fd5b505050506040513d601f19601f820116820180604052508101906135919190614b2d565b50505080156118df576000805461ff0019169055505050565b60006124ed828461508e565b600042826135f257806000805160206152a183398151915260f2546040516135e091815260200190565b60405180910390a2505060f254919050565b6000831215613618576136106136078461515a565b60f2549061293f565b60f255613629565b60f25461362590846126ca565b60f2555b60f2546001600160801b031015613646576001600160801b0360f2555b60f254613659906123e36012600a614fe6565b60f35560ce546136699082614f77565b60cf5560f25460405190815281906000805160206152a1833981519152906020016135e0565b609780546001600160a01b038381166001600160a01b0319831681179093556040519116919082907f8be0079c531659141344cd1fd0a4f28419497f9722a3daafe3b4186f6b6457e090600090a35050565b6000806136f960f354846135aa90919063ffffffff16565b6001600160a01b038616600090815260f5602052604090205490915061371f908261293f565b6001600160a01b03808716600090815260f56020526040808220939093559086168152205461374e90826126ca565b6001600160a01b03808616600081815260f560205260409081902093909355915190871690600080516020615261833981519152906137909087815260200190565b60405180910390a3506001949350505050565b33600090815260d4602052604081205460ff161580156137c6575060f15460ff16155b80156137da575060cb5462010000900460ff165b80156137ed575060006137eb613e58565b115b80156115ba57504260d1541115905090565b60f15460ff16156138525760405162461bcd60e51b815260206004820152601f60248201527f5265656e7472616e637947756172643a207265656e7472616e742063616c6c006044820152606401610d3e565b60f1805460ff1916600117905542600061386a613e58565b60f35430600090815260f560205260408120549293509161388a9161294b565b905060006138a760ec54612409858561294b90919063ffffffff16565b905060006138c460ee54612409868661294b90919063ffffffff16565b905060006138e160ed54612409878761294b90919063ffffffff16565b905060006138fe60ef54612409888861294b90919063ffffffff16565b9050600061391b60f054612409898961294b90919063ffffffff16565b9050841561392c5761392c85613e83565b83156139495760d7546139499085906001600160a01b031661405c565b82156139665760d6546139669084906001600160a01b031661405c565b81156139835760d8546139839083906001600160a01b031661405c565b8015613a45576139b76139a160f354836135aa90919063ffffffff16565b30600090815260f560205260409020549061293f565b30600090815260f5602052604090205560f3546139fa906139d99083906135aa565b61dead60005260f56020526000805160206151da83398151915254906126ca565b61dead600081905260f56020526000805160206151da83398151915291909155604051309060008051602061526183398151915290613a3c9085815260200190565b60405180910390a35b60d054613a529089614f77565b60d1556040805187815260208101879052908101859052606081018490526080810182905260a081018390527ffc18969df35ccba802c14035d6d6273bf5bb4d8b9de8faa7aba1044c813b13009060c00160405180910390a1505060f1805460ff19169055505050505050565b6001600160a01b038216600090815260d2602052604081205460ff1680613afe57506001600160a01b038216600090815260d2602052604090205460ff165b15613b0b57506000611086565b6001600160a01b038316600090815260d4602052604090205460ff1680613b4a57506001600160a01b038216600090815260d4602052604090205460ff165b9050611086565b60e1546001600160a01b038416600090815260f560205260408120549091908290613b8590613b8090866126ca565b6141c9565b9050613baa613ba160e95460dd546135aa90919063ffffffff16565b60ec54906126ca565b60ec5560e95460de54613bca91613bc191906135aa565b60ed54906126ca565b60ed5560e95460df54613bea91613be191906135aa565b60ee54906126ca565b60ee556001600160a01b038516600090815260d4602052604090205460ff1615613c8d578060e254613c1c9190614f77565b9150613c38613ba160e95460e0546135aa90919063ffffffff16565b60ec5560e854613c5690613c4d9083906135aa565b60ef54906126ca565b60ef5560e754613c6b90613bc19083906135aa565b60ed5560e654613c8990613c809083906135aa565b60f054906126ca565b60f0555b60e554600090613ca1906115b487866135aa565b30600090815260f56020526040902054909150613cbe90826126ca565b30600081815260f5602052604090209190915560f3546001600160a01b0389169060008051602061526183398151915290613cfa90859061294b565b60405190815260200160405180910390a3613d15858261293f565b979650505050505050565b60f15460ff16611d1c576000613d4960cd546115b460cc5460f2546135aa90919063ffffffff16565b9050611a3b816135b6565b613d5d81613e19565b613dbf5760405162461bcd60e51b815260206004820152602d60248201527f455243313936373a206e657720696d706c656d656e746174696f6e206973206e60448201526c1bdd08184818dbdb9d1c9858dd609a1b6064820152608401610d3e565b60008051602061521a83398151915280546001600160a01b0319166001600160a01b0392909216919091179055565b613df783614295565b600082511180613e045750805b156118df57613e1383836142d5565b50505050565b6001600160a01b03163b151590565b600054610100900460ff16613e4f5760405162461bcd60e51b8152600401610d3e90614e46565b611d1c3361368f565b60006115ba60ee54610e4060ef54610e4060f054610e4060ed5460ec546126ca90919063ffffffff16565b6000613e9082600261294b565b90506000613e9e838361293f565b60cb54909150600160201b900460ff1615613f095747613ebe833061405c565b6000613eca478361293f565b9050613ed683826143c7565b7f17bbfb9a6069321b6ded73bd96327c9e6b7212a5cd51ff219cd61370acafb561848285604051610f9093929190614f31565b60d9546040516370a0823160e01b81526000916001600160a01b0316906370a0823190613f3a903090600401614c8b565b60206040518083038186803b158015613f5257600080fd5b505afa158015613f66573d6000803e3d6000fd5b505050506040513d601f19601f82011682018060405250810190613f8a9190614b7d565b9050613f968330614472565b60d9546040516370a0823160e01b815260009161401d9184916001600160a01b0316906370a0823190613fcd903090600401614c8b565b60206040518083038186803b158015613fe557600080fd5b505afa158015613ff9573d6000803e3d6000fd5b505050506040513d601f19601f820116820180604052508101906115ae9190614b7d565b905061402983826145e9565b7f558e8efb161691189a8c7d8e35d5831fd8efc87c53c587fddcd4f574d7c8c8cf848285604051610f9093929190614f31565b604080516002808252606082018352600092602083019080368337019050509050308160008151811061409f57634e487b7160e01b600052603260045260246000fd5b6001600160a01b0392831660209182029290920181019190915260da54604080516315ab88c960e31b81529051919093169263ad5c4648926004808301939192829003018186803b1580156140f357600080fd5b505afa158015614107573d6000803e3d6000fd5b505050506040513d601f19601f8201168201806040525081019061412b91906148c9565b8160018151811061414c57634e487b7160e01b600052603260045260246000fd5b6001600160a01b03928316602091820292909201015260da5460405163791ac94760e01b815291169063791ac94790614192908690600090869088904290600401614ec1565b600060405180830381600087803b1580156141ac57600080fd5b505af11580156141c0573d6000803e3d6000fd5b50505050505050565b6000806141e160f3548461294b90919063ffffffff16565b905060005b60e35481101561428b5760e3546000906001906142049084906150ad565b61420e91906150ad565b905060e3818154811061423157634e487b7160e01b600052603260045260246000fd5b906000526020600020015483106142785760e4818154811061426357634e487b7160e01b600052603260045260246000fd5b90600052602060002001549350505050919050565b50806142838161512b565b9150506141e6565b5060009392505050565b61429e81613d54565b6040516001600160a01b038216907fbc7cd75a20ee27fd9adebab32041f755214dbc6bffa90cc0225b39da2e5c2d3b90600090a250565b60606142e083613e19565b61433b5760405162461bcd60e51b815260206004820152602660248201527f416464726573733a2064656c65676174652063616c6c20746f206e6f6e2d636f6044820152651b9d1c9858dd60d21b6064820152608401610d3e565b600080846001600160a01b0316846040516143569190614c6f565b600060405180830381855af49150503d8060008114614391576040519150601f19603f3d011682016040523d82523d6000602084013e614396565b606091505b50915091506143be828260405180606001604052806027815260200161523a6027913961469d565b95945050505050565b60da5460d55460405163f305d71960e01b81523060048201526024810185905260006044820181905260648201526001600160a01b0391821660848201524260a482015291169063f305d71990839060c4016060604051808303818588803b15801561443257600080fd5b505af1158015614446573d6000803e3d6000fd5b50505050506040513d601f19601f8201168201806040525081019061446b9190614bce565b5050505050565b604080516003808252608082019092526000916020820160608036833701905050905030816000815181106144b757634e487b7160e01b600052603260045260246000fd5b6001600160a01b0392831660209182029290920181019190915260da54604080516315ab88c960e31b81529051919093169263ad5c4648926004808301939192829003018186803b15801561450b57600080fd5b505afa15801561451f573d6000803e3d6000fd5b505050506040513d601f19601f8201168201806040525081019061454391906148c9565b8160018151811061456457634e487b7160e01b600052603260045260246000fd5b6001600160a01b03928316602091820292909201015260d9548251911690829060029081106145a357634e487b7160e01b600052603260045260246000fd5b6001600160a01b03928316602091820292909201015260da54604051635c11d79560e01b8152911690635c11d79590614192908690600090869088904290600401614ec1565b60da5460d95460d55460405162e8e33760e81b81523060048201526001600160a01b039283166024820152604481018690526064810185905260006084820181905260a482015290821660c48201524260e482015291169063e8e337009061010401606060405180830381600087803b15801561466557600080fd5b505af1158015614679573d6000803e3d6000fd5b505050506040513d601f19601f8201168201806040525081019061446b9190614bce565b606083156146ac5750816124ed565b8251156146bc5782518084602001fd5b8160405162461bcd60e51b8152600401610d3e9190614cf7565b828054828255906000526020600020908101928215614711579160200282015b828111156147115782518255916020019190600101906146f6565b5061471d929150614816565b5090565b82805461472d906150f0565b90600052602060002090601f01602090048101928261474f5760008555614711565b82601f1061476857805160ff1916838001178555614711565b8280016001018555821561471157918201828111156147115782518255916020019190600101906146f6565b828054828255906000526020600020908101928215614711579160200282015b82811115614711578251829062ffffff169055916020019190600101906147b4565b828054828255906000526020600020908101928215614711579160200282015b82811115614711578251829060ff169055916020019190600101906147f6565b5b8082111561471d5760008155600101614817565b600082601f83011261483b578081fd5b813560206001600160401b03821115614856576148566151a0565b8160051b614865828201614f47565b83815282810190868401838801850189101561487f578687fd5b8693505b858410156148a1578035835260019390930192918401918401614883565b50979650505050505050565b6000602082840312156148be578081fd5b81356124ed816151b6565b6000602082840312156148da578081fd5b81516124ed816151b6565b600080604083850312156148f7578081fd5b8235614902816151b6565b91506020830135614912816151b6565b809150509250929050565b60008060008060808587031215614932578182fd5b843561493d816151b6565b9350602085013561494d816151b6565b9250604085013561495d816151b6565b9150606085013561496d816151b6565b939692955090935050565b60008060006060848603121561498c578283fd5b8335614997816151b6565b925060208401356149a7816151b6565b929592945050506040919091013590565b600080604083850312156149ca578182fd5b82356149d5816151b6565b91506020830135614912816151cb565b600080604083850312156149f7578182fd5b8235614a02816151b6565b91506020838101356001600160401b0380821115614a1e578384fd5b818601915086601f830112614a31578384fd5b813581811115614a4357614a436151a0565b614a55601f8201601f19168501614f47565b91508082528784828501011115614a6a578485fd5b8084840185840137810190920192909252919491935090915050565b60008060408385031215614a98578182fd5b8235614aa3816151b6565b946020939093013593505050565b60008060408385031215614ac3578182fd5b82356001600160401b0380821115614ad9578384fd5b614ae58683870161482b565b93506020850135915080821115614afa578283fd5b50614b078582860161482b565b9150509250929050565b600060208284031215614b22578081fd5b81356124ed816151cb565b600060208284031215614b3e578081fd5b81516124ed816151cb565b600080600060608486031215614b5d578283fd5b8335614b68816151cb565b95602085013595506040909401359392505050565b600060208284031215614b8e578081fd5b5051919050565b600060208284031215614ba6578081fd5b5035919050565b60008060408385031215614bbf578182fd5b50508035926020909101359150565b600080600060608486031215614be2578081fd5b8351925060208401519150604084015190509250925092565b600080600080600060a08688031215614c12578283fd5b505083359560208501359550604085013594606081013594506080013592509050565b6000815180845260208085019450808401835b83811015614c6457815187529582019590820190600101614c48565b509495945050505050565b60008251614c818184602087016150c4565b9190910192915050565b6001600160a01b0391909116815260200190565b6001600160a01b0392831681529116602082015260400190565b6001600160a01b03929092168252602082015260400190565b604081526000614ce56040830185614c35565b82810360208401526143be8185614c35565b6020815260008251806020840152614d168160408501602087016150c4565b601f01601f19169190910160400192915050565b6020808252600b908201526a139bdd0818da185b99d95960aa1b604082015260600190565b6020808252602c908201526000805160206151fa83398151915260408201526b19195b1959d85d1958d85b1b60a21b606082015260800190565b6020808252602c908201526000805160206151fa83398151915260408201526b6163746976652070726f787960a01b606082015260800190565b6020808252602e908201527f496e697469616c697a61626c653a20636f6e747261637420697320616c72656160408201526d191e481a5b9a5d1a585b1a5e995960921b606082015260800190565b6020808252818101527f4f776e61626c653a2063616c6c6572206973206e6f7420746865206f776e6572604082015260600190565b6020808252602b908201527f496e697469616c697a61626c653a20636f6e7472616374206973206e6f74206960408201526a6e697469616c697a696e6760a81b606082015260800190565b602080825260169082015275526563697069656e74207a65726f206164647265737360501b604082015260600190565b600060a082018783526020878185015260a0604085015281875180845260c0860191508289019350845b81811015614f105784516001600160a01b031683529383019391830191600101614eeb565b50506001600160a01b03969096166060850152505050608001529392505050565b9283526020830191909152604082015260600190565b604051601f8201601f191681016001600160401b0381118282101715614f6f57614f6f6151a0565b604052919050565b60008219821115614f8a57614f8a615174565b500190565b600082614f9e57614f9e61518a565b500490565b600181815b80851115614fde578160001904821115614fc457614fc4615174565b80851615614fd157918102915b93841c9390800290614fa8565b509250929050565b60006124ed8383600082614ffc57506001611086565b8161500957506000611086565b816001811461501f576002811461502957615045565b6001915050611086565b60ff84111561503a5761503a615174565b50506001821b611086565b5060208310610133831016604e8410600b8410161715615068575081810a611086565b6150728383614fa3565b806000190482111561508657615086615174565b029392505050565b60008160001904831182151516156150a8576150a8615174565b500290565b6000828210156150bf576150bf615174565b500390565b60005b838110156150df5781810151838201526020016150c7565b83811115613e135750506000910152565b600181811c9082168061510457607f821691505b6020821081141561512557634e487b7160e01b600052602260045260246000fd5b50919050565b600060001982141561513f5761513f615174565b5060010190565b6000826151555761515561518a565b500690565b6000600160ff1b82141561517057615170615174565b0390565b634e487b7160e01b600052601160045260246000fd5b634e487b7160e01b600052601260045260246000fd5b634e487b7160e01b600052604160045260246000fd5b6001600160a01b03811681146116a657600080fd5b80151581146116a657600080fdfe52fad9cb3e456a6719f4a710617c8d6d0a6ba4a2c57d5fd09b4c8b0e268a06fb46756e6374696f6e206d7573742062652063616c6c6564207468726f75676820360894a13ba1a3210667c828492db98dca3e2076cc3735a920a3ca505d382bbc416464726573733a206c6f772d6c6576656c2064656c65676174652063616c6c206661696c6564ddf252ad1be2c89b69c2b068fc378daa952ba7f163c4a11628f55a4df523b3ef8c5be1e5ebec7d5bd14f71427d1e84f3dd0314c0f7b2291e5b200ac8c7c3b92572725a3b1e5bd622d6bcd1339bb31279c351abe8f541ac7fd320f24e1b1641f2a2646970667358221220b059cdec7f1ed52fa864fe750c8bf97e38eed96ab4e914747d0c188b045523d164736f6c63430008040033",
  "linkReferences": {},
  "deployedLinkReferences": {}
}