{
  "_format": "hh-sol-artifact-1",
  "contractName": "MinterRole",
  "sourceName": "contracts/libs/MinterRole.sol",
  "abi": [
    {
      "inputs": [],
      "stateMutability": "nonpayable",
      "type": "constructor"
    },
    {
      "anonymous": false,
      "inputs": [
        {
          "indexed": true,
          "internalType": "address",
          "name": "account",
          "type": "address"
        }
      ],
      "name": "MinterAdded",
      "type": "event"
    },
    {
      "anonymous": false,
      "inputs": [
        {
          "indexed": true,
          "internalType": "address",
          "name": "account",
          "type": "address"
        }
      ],
      "name": "MinterRemoved",
      "type": "event"
    },
    {
      "inputs": [
        {
          "internalType": "address",
          "name": "account",
          "type": "address"
        }
      ],
      "name": "isMinter",
      "outputs": [
        {
          "internalType": "bool",
          "name": "",
          "type": "bool"
        }
      ],
      "stateMutability": "view",
      "type": "function"
    },
    {
      "inputs": [],
      "name": "renounceMinter",
      "outputs": [],
      "stateMutability": "nonpayable",
      "type": "function"
    }
  ],
  "bytecode": "0x608060405234801561001057600080fd5b5061001a3361001f565b610172565b61003781600061006e60201b6100891790919060201c565b6040516001600160a01b038216907f6ae172837ea30b801fbfcdd4108aa1d5bf8ff775444fd70256b44e6bf3dfc3f690600090a250565b61007882826100ef565b156100ca5760405162461bcd60e51b815260206004820152601f60248201527f526f6c65733a206163636f756e7420616c72656164792068617320726f6c650060448201526064015b60405180910390fd5b6001600160a01b0316600090815260209190915260409020805460ff19166001179055565b60006001600160a01b0382166101525760405162461bcd60e51b815260206004820152602260248201527f526f6c65733a206163636f756e7420697320746865207a65726f206164647265604482015261737360f01b60648201526084016100c1565b506001600160a01b03166000908152602091909152604090205460ff1690565b6102b7806101816000396000f3fe608060405234801561001057600080fd5b50600436106100365760003560e01c8063986502751461003b578063aa271e1a14610045575b600080fd5b61004361006c565b005b610058610053366004610251565b610077565b604051901515815260200160405180910390f35b6100753361010a565b565b6000610083818361014c565b92915050565b610093828261014c565b156100e55760405162461bcd60e51b815260206004820152601f60248201527f526f6c65733a206163636f756e7420616c72656164792068617320726f6c650060448201526064015b60405180910390fd5b6001600160a01b0316600090815260209190915260409020805460ff19166001179055565b6101156000826101cf565b6040516001600160a01b038216907fe94479a9f7e1952cc78f2d6baab678adc1b772d936c6583def489e524cb6669290600090a250565b60006001600160a01b0382166101af5760405162461bcd60e51b815260206004820152602260248201527f526f6c65733a206163636f756e7420697320746865207a65726f206164647265604482015261737360f01b60648201526084016100dc565b506001600160a01b03166000908152602091909152604090205460ff1690565b6101d9828261014c565b61022f5760405162461bcd60e51b815260206004820152602160248201527f526f6c65733a206163636f756e7420646f6573206e6f74206861766520726f6c6044820152606560f81b60648201526084016100dc565b6001600160a01b0316600090815260209190915260409020805460ff19169055565b60006020828403121561026357600080fd5b81356001600160a01b038116811461027a57600080fd5b939250505056fea26469706673582212209f41deba0dbd59ab095f23f89c4c909f8d1806d8957e55e68fee25ebc0f2ddeb64736f6c634300080a0033",
  "linkReferences": {},
  "deployedLinkReferences": {}
}